{
  "_format": "hh-sol-artifact-1",
  "contractName": "PoEP",
  "sourceName": "contracts/PoEP.sol",
  "abi": [
    {
      "inputs": [
        {
          "internalType": "string",
          "name": "baseURI",
          "type": "string"
        },
        {
          "internalType": "address",
          "name": "verifierAddress",
          "type": "address"
        }
      ],
      "stateMutability": "nonpayable",
      "type": "constructor"
    },
    {
      "inputs": [],
      "name": "ERC721EnumerableForbiddenBatchMint",
      "type": "error"
    },
    {
      "inputs": [
        {
          "internalType": "address",
          "name": "sender",
          "type": "address"
        },
        {
          "internalType": "uint256",
          "name": "tokenId",
          "type": "uint256"
        },
        {
          "internalType": "address",
          "name": "owner",
          "type": "address"
        }
      ],
      "name": "ERC721IncorrectOwner",
      "type": "error"
    },
    {
      "inputs": [
        {
          "internalType": "address",
          "name": "operator",
          "type": "address"
        },
        {
          "internalType": "uint256",
          "name": "tokenId",
          "type": "uint256"
        }
      ],
      "name": "ERC721InsufficientApproval",
      "type": "error"
    },
    {
      "inputs": [
        {
          "internalType": "address",
          "name": "approver",
          "type": "address"
        }
      ],
      "name": "ERC721InvalidApprover",
      "type": "error"
    },
    {
      "inputs": [
        {
          "internalType": "address",
          "name": "operator",
          "type": "address"
        }
      ],
      "name": "ERC721InvalidOperator",
      "type": "error"
    },
    {
      "inputs": [
        {
          "internalType": "address",
          "name": "owner",
          "type": "address"
        }
      ],
      "name": "ERC721InvalidOwner",
      "type": "error"
    },
    {
      "inputs": [
        {
          "internalType": "address",
          "name": "receiver",
          "type": "address"
        }
      ],
      "name": "ERC721InvalidReceiver",
      "type": "error"
    },
    {
      "inputs": [
        {
          "internalType": "address",
          "name": "sender",
          "type": "address"
        }
      ],
      "name": "ERC721InvalidSender",
      "type": "error"
    },
    {
      "inputs": [
        {
          "internalType": "uint256",
          "name": "tokenId",
          "type": "uint256"
        }
      ],
      "name": "ERC721NonexistentToken",
      "type": "error"
    },
    {
      "inputs": [
        {
          "internalType": "address",
          "name": "owner",
          "type": "address"
        },
        {
          "internalType": "uint256",
          "name": "index",
          "type": "uint256"
        }
      ],
      "name": "ERC721OutOfBoundsIndex",
      "type": "error"
    },
    {
      "inputs": [],
      "name": "EnforcedPause",
      "type": "error"
    },
    {
      "inputs": [],
      "name": "ExpectedPause",
      "type": "error"
    },
    {
      "inputs": [
        {
          "internalType": "address",
          "name": "owner",
          "type": "address"
        }
      ],
      "name": "OwnableInvalidOwner",
      "type": "error"
    },
    {
      "inputs": [
        {
          "internalType": "address",
          "name": "account",
          "type": "address"
        }
      ],
      "name": "OwnableUnauthorizedAccount",
      "type": "error"
    },
    {
      "inputs": [],
      "name": "ReentrancyGuardReentrantCall",
      "type": "error"
    },
    {
      "anonymous": false,
      "inputs": [
        {
          "indexed": true,
          "internalType": "address",
          "name": "owner",
          "type": "address"
        },
        {
          "indexed": true,
          "internalType": "address",
          "name": "approved",
          "type": "address"
        },
        {
          "indexed": true,
          "internalType": "uint256",
          "name": "tokenId",
          "type": "uint256"
        }
      ],
      "name": "Approval",
      "type": "event"
    },
    {
      "anonymous": false,
      "inputs": [
        {
          "indexed": true,
          "internalType": "address",
          "name": "owner",
          "type": "address"
        },
        {
          "indexed": true,
          "internalType": "address",
          "name": "operator",
          "type": "address"
        },
        {
          "indexed": false,
          "internalType": "bool",
          "name": "approved",
          "type": "bool"
        }
      ],
      "name": "ApprovalForAll",
      "type": "event"
    },
    {
      "anonymous": false,
      "inputs": [
        {
          "indexed": true,
          "internalType": "address",
          "name": "previousOwner",
          "type": "address"
        },
        {
          "indexed": true,
          "internalType": "address",
          "name": "newOwner",
          "type": "address"
        }
      ],
      "name": "OwnershipTransferred",
      "type": "event"
    },
    {
      "anonymous": false,
      "inputs": [
        {
          "indexed": true,
          "internalType": "address",
          "name": "user",
          "type": "address"
        },
        {
          "indexed": true,
          "internalType": "uint256",
          "name": "tokenId",
          "type": "uint256"
        },
        {
          "indexed": false,
          "internalType": "uint256",
          "name": "nullifier",
          "type": "uint256"
        }
      ],
      "name": "PassportMinted",
      "type": "event"
    },
    {
      "anonymous": false,
      "inputs": [
        {
          "indexed": false,
          "internalType": "address",
          "name": "account",
          "type": "address"
        }
      ],
      "name": "Paused",
      "type": "event"
    },
    {
      "anonymous": false,
      "inputs": [
        {
          "indexed": true,
          "internalType": "address",
          "name": "app",
          "type": "address"
        },
        {
          "indexed": true,
          "internalType": "address",
          "name": "user",
          "type": "address"
        },
        {
          "indexed": false,
          "internalType": "uint256",
          "name": "fee",
          "type": "uint256"
        }
      ],
      "name": "QueryFeePaid",
      "type": "event"
    },
    {
      "anonymous": false,
      "inputs": [
        {
          "indexed": true,
          "internalType": "address",
          "name": "user",
          "type": "address"
        },
        {
          "indexed": false,
          "internalType": "uint256",
          "name": "oldScore",
          "type": "uint256"
        },
        {
          "indexed": false,
          "internalType": "uint256",
          "name": "newScore",
          "type": "uint256"
        }
      ],
      "name": "ScoreUpdated",
      "type": "event"
    },
    {
      "anonymous": false,
      "inputs": [
        {
          "indexed": true,
          "internalType": "address",
          "name": "from",
          "type": "address"
        },
        {
          "indexed": true,
          "internalType": "address",
          "name": "to",
          "type": "address"
        },
        {
          "indexed": true,
          "internalType": "uint256",
          "name": "tokenId",
          "type": "uint256"
        }
      ],
      "name": "Transfer",
      "type": "event"
    },
    {
      "anonymous": false,
      "inputs": [
        {
          "indexed": false,
          "internalType": "address",
          "name": "account",
          "type": "address"
        }
      ],
      "name": "Unpaused",
      "type": "event"
    },
    {
      "inputs": [],
      "name": "MAX_SCORE",
      "outputs": [
        {
          "internalType": "uint256",
          "name": "",
          "type": "uint256"
        }
      ],
      "stateMutability": "view",
      "type": "function"
    },
    {
      "inputs": [],
      "name": "QUERY_FEE",
      "outputs": [
        {
          "internalType": "uint256",
          "name": "",
          "type": "uint256"
        }
      ],
      "stateMutability": "view",
      "type": "function"
    },
    {
      "inputs": [
        {
          "internalType": "address",
          "name": "to",
          "type": "address"
        },
        {
          "internalType": "uint256",
          "name": "tokenId",
          "type": "uint256"
        }
      ],
      "name": "approve",
      "outputs": [],
      "stateMutability": "nonpayable",
      "type": "function"
    },
    {
      "inputs": [
        {
          "internalType": "address",
          "name": "owner",
          "type": "address"
        }
      ],
      "name": "balanceOf",
      "outputs": [
        {
          "internalType": "uint256",
          "name": "",
          "type": "uint256"
        }
      ],
      "stateMutability": "view",
      "type": "function"
    },
    {
      "inputs": [
        {
          "internalType": "uint256",
          "name": "tokenId",
          "type": "uint256"
        }
      ],
      "name": "burn",
      "outputs": [],
      "stateMutability": "nonpayable",
      "type": "function"
    },
    {
      "inputs": [
        {
          "internalType": "uint256",
          "name": "tokenId",
          "type": "uint256"
        }
      ],
      "name": "getApproved",
      "outputs": [
        {
          "internalType": "address",
          "name": "",
          "type": "address"
        }
      ],
      "stateMutability": "view",
      "type": "function"
    },
    {
      "inputs": [
        {
          "internalType": "address",
          "name": "user",
          "type": "address"
        }
      ],
      "name": "getTrustScore",
      "outputs": [
        {
          "internalType": "uint256",
          "name": "score",
          "type": "uint256"
        }
      ],
      "stateMutability": "payable",
      "type": "function"
    },
    {
      "inputs": [
        {
          "internalType": "address",
          "name": "owner",
          "type": "address"
        },
        {
          "internalType": "address",
          "name": "operator",
          "type": "address"
        }
      ],
      "name": "isApprovedForAll",
      "outputs": [
        {
          "internalType": "bool",
          "name": "",
          "type": "bool"
        }
      ],
      "stateMutability": "view",
      "type": "function"
    },
    {
      "inputs": [
        {
          "internalType": "uint256[2]",
          "name": "_pA",
          "type": "uint256[2]"
        },
        {
          "internalType": "uint256[2][2]",
          "name": "_pB",
          "type": "uint256[2][2]"
        },
        {
          "internalType": "uint256[2]",
          "name": "_pC",
          "type": "uint256[2]"
        },
        {
          "internalType": "uint256",
          "name": "_nullifier",
          "type": "uint256"
        }
      ],
      "name": "mint",
      "outputs": [],
      "stateMutability": "nonpayable",
      "type": "function"
    },
    {
      "inputs": [],
      "name": "name",
      "outputs": [
        {
          "internalType": "string",
          "name": "",
          "type": "string"
        }
      ],
      "stateMutability": "view",
      "type": "function"
    },
    {
      "inputs": [
        {
          "internalType": "uint256",
          "name": "",
          "type": "uint256"
        }
      ],
      "name": "nullifiers",
      "outputs": [
        {
          "internalType": "bool",
          "name": "",
          "type": "bool"
        }
      ],
      "stateMutability": "view",
      "type": "function"
    },
    {
      "inputs": [],
      "name": "owner",
      "outputs": [
        {
          "internalType": "address",
          "name": "",
          "type": "address"
        }
      ],
      "stateMutability": "view",
      "type": "function"
    },
    {
      "inputs": [
        {
          "internalType": "uint256",
          "name": "tokenId",
          "type": "uint256"
        }
      ],
      "name": "ownerOf",
      "outputs": [
        {
          "internalType": "address",
          "name": "",
          "type": "address"
        }
      ],
      "stateMutability": "view",
      "type": "function"
    },
    {
      "inputs": [],
      "name": "pause",
      "outputs": [],
      "stateMutability": "nonpayable",
      "type": "function"
    },
    {
      "inputs": [],
      "name": "paused",
      "outputs": [
        {
          "internalType": "bool",
          "name": "",
          "type": "bool"
        }
      ],
      "stateMutability": "view",
      "type": "function"
    },
    {
      "inputs": [
        {
          "internalType": "address",
          "name": "",
          "type": "address"
        }
      ],
      "name": "queryFees",
      "outputs": [
        {
          "internalType": "uint256",
          "name": "",
          "type": "uint256"
        }
      ],
      "stateMutability": "view",
      "type": "function"
    },
    {
      "inputs": [],
      "name": "renounceOwnership",
      "outputs": [],
      "stateMutability": "nonpayable",
      "type": "function"
    },
    {
      "inputs": [
        {
          "internalType": "address",
          "name": "from",
          "type": "address"
        },
        {
          "internalType": "address",
          "name": "to",
          "type": "address"
        },
        {
          "internalType": "uint256",
          "name": "tokenId",
          "type": "uint256"
        }
      ],
      "name": "safeTransferFrom",
      "outputs": [],
      "stateMutability": "nonpayable",
      "type": "function"
    },
    {
      "inputs": [
        {
          "internalType": "address",
          "name": "from",
          "type": "address"
        },
        {
          "internalType": "address",
          "name": "to",
          "type": "address"
        },
        {
          "internalType": "uint256",
          "name": "tokenId",
          "type": "uint256"
        },
        {
          "internalType": "bytes",
          "name": "data",
          "type": "bytes"
        }
      ],
      "name": "safeTransferFrom",
      "outputs": [],
      "stateMutability": "nonpayable",
      "type": "function"
    },
    {
      "inputs": [
        {
          "internalType": "address",
          "name": "",
          "type": "address"
        }
      ],
      "name": "scoreUpdaters",
      "outputs": [
        {
          "internalType": "bool",
          "name": "",
          "type": "bool"
        }
      ],
      "stateMutability": "view",
      "type": "function"
    },
    {
      "inputs": [
        {
          "internalType": "address",
          "name": "operator",
          "type": "address"
        },
        {
          "internalType": "bool",
          "name": "approved",
          "type": "bool"
        }
      ],
      "name": "setApprovalForAll",
      "outputs": [],
      "stateMutability": "nonpayable",
      "type": "function"
    },
    {
      "inputs": [
        {
          "internalType": "string",
          "name": "newBaseURI",
          "type": "string"
        }
      ],
      "name": "setBaseURI",
      "outputs": [],
      "stateMutability": "nonpayable",
      "type": "function"
    },
    {
      "inputs": [
        {
          "internalType": "address",
          "name": "updater",
          "type": "address"
        },
        {
          "internalType": "bool",
          "name": "authorized",
          "type": "bool"
        }
      ],
      "name": "setScoreUpdater",
      "outputs": [],
      "stateMutability": "nonpayable",
      "type": "function"
    },
    {
      "inputs": [
        {
          "internalType": "bytes4",
          "name": "interfaceId",
          "type": "bytes4"
        }
      ],
      "name": "supportsInterface",
      "outputs": [
        {
          "internalType": "bool",
          "name": "",
          "type": "bool"
        }
      ],
      "stateMutability": "view",
      "type": "function"
    },
    {
      "inputs": [],
      "name": "symbol",
      "outputs": [
        {
          "internalType": "string",
          "name": "",
          "type": "string"
        }
      ],
      "stateMutability": "view",
      "type": "function"
    },
    {
      "inputs": [
        {
          "internalType": "uint256",
          "name": "index",
          "type": "uint256"
        }
      ],
      "name": "tokenByIndex",
      "outputs": [
        {
          "internalType": "uint256",
          "name": "",
          "type": "uint256"
        }
      ],
      "stateMutability": "view",
      "type": "function"
    },
    {
      "inputs": [
        {
          "internalType": "address",
          "name": "owner",
          "type": "address"
        },
        {
          "internalType": "uint256",
          "name": "index",
          "type": "uint256"
        }
      ],
      "name": "tokenOfOwnerByIndex",
      "outputs": [
        {
          "internalType": "uint256",
          "name": "",
          "type": "uint256"
        }
      ],
      "stateMutability": "view",
      "type": "function"
    },
    {
      "inputs": [
        {
          "internalType": "uint256",
          "name": "tokenId",
          "type": "uint256"
        }
      ],
      "name": "tokenURI",
      "outputs": [
        {
          "internalType": "string",
          "name": "",
          "type": "string"
        }
      ],
      "stateMutability": "view",
      "type": "function"
    },
    {
      "inputs": [],
      "name": "totalSupply",
      "outputs": [
        {
          "internalType": "uint256",
          "name": "",
          "type": "uint256"
        }
      ],
      "stateMutability": "view",
      "type": "function"
    },
    {
      "inputs": [
        {
          "internalType": "address",
          "name": "from",
          "type": "address"
        },
        {
          "internalType": "address",
          "name": "to",
          "type": "address"
        },
        {
          "internalType": "uint256",
          "name": "tokenId",
          "type": "uint256"
        }
      ],
      "name": "transferFrom",
      "outputs": [],
      "stateMutability": "nonpayable",
      "type": "function"
    },
    {
      "inputs": [
        {
          "internalType": "address",
          "name": "newOwner",
          "type": "address"
        }
      ],
      "name": "transferOwnership",
      "outputs": [],
      "stateMutability": "nonpayable",
      "type": "function"
    },
    {
      "inputs": [
        {
          "internalType": "uint256",
          "name": "",
          "type": "uint256"
        }
      ],
      "name": "trustScore",
      "outputs": [
        {
          "internalType": "uint256",
          "name": "",
          "type": "uint256"
        }
      ],
      "stateMutability": "view",
      "type": "function"
    },
    {
      "inputs": [],
      "name": "unpause",
      "outputs": [],
      "stateMutability": "nonpayable",
      "type": "function"
    },
    {
      "inputs": [
        {
          "internalType": "address",
          "name": "user",
          "type": "address"
        },
        {
          "internalType": "int256",
          "name": "delta",
          "type": "int256"
        }
      ],
      "name": "updateScore",
      "outputs": [],
      "stateMutability": "nonpayable",
      "type": "function"
    },
    {
      "inputs": [
        {
          "internalType": "address",
          "name": "user",
          "type": "address"
        }
      ],
      "name": "viewTrustScore",
      "outputs": [
        {
          "internalType": "uint256",
          "name": "score",
          "type": "uint256"
        }
      ],
      "stateMutability": "view",
      "type": "function"
    },
    {
      "inputs": [],
      "name": "withdrawFees",
      "outputs": [],
      "stateMutability": "nonpayable",
      "type": "function"
    },
    {
      "inputs": [],
      "name": "zkVerifier",
      "outputs": [
        {
          "internalType": "contract PoEPVerifier",
          "name": "",
          "type": "address"
        }
      ],
      "stateMutability": "view",
      "type": "function"
    }
  ],
  "bytecode": "0x60a0604052346200059d57620029ec803803806200001d81620005ed565b9283398101906040818303126200059d5780516001600160401b0391908281116200059d57810191601f908482850112156200059d57835192818411620005b757602093601f19956200007686888785011601620005ed565b978289528683830101116200059d579085929160005b828110620005a2575050600090880183015201516001600160a01b039485821693918490036200059d57620000c0620005cd565b95601887527f50726f6f664f664578697374656e636550617373706f7274000000000000000086880152620000f4620005cd565b90600491828152630506f45560e41b88820152885186811162000496576000549960019a8b81811c9116801562000592575b8b8210146200057d5790818884931162000527575b508a90888311600114620004b757600092620004ab575b5050600019600383901b1c1916908a1b176000555b805190868211620004965789548a81811c911680156200048b575b8a821014620004765790818784931162000420575b508990878311600114620003bc57600092620003b0575b5050600019600383901b1c191690891b1788555b33156200039857600a8054336001600160a01b0319821681179092559091167f8be0079c531659141344cd1fd0a4f28419497f9722a3daafe3b4186f6b6457e0600080a386600b5587519384116200038357601154908782811c9216801562000378575b8783101462000363575082811162000317575b5084918311600114620002ae57508190600f9596600092620002a2575b5050600019600383901b1c191690851b176011555b608052336000525260406000209060ff198254161790556040516123d890816200061482396080518181816102f6015261127b0152f35b01519050388062000256565b8216956011600052846000209660005b8181106200030157509186979184600f98959410620002e7575b505050811b016011556200026b565b015160001960f88460031b161c19169055388080620002d8565b83830151895597870197928601928601620002be565b6011600052856000208380860160051c82019288871062000359575b0160051c019087905b8281106200034c57505062000239565b600081550187906200033c565b9250819262000333565b602290634e487b7160e01b6000525260246000fd5b91607f169162000226565b604190634e487b7160e01b6000525260246000fd5b604051631e4fbdf760e01b8152600081840152602490fd5b015190503880620001ae565b90868c941691846000528b6000209260005b8d828210620004095750508411620003ef575b505050811b018855620001c2565b015160001960f88460031b161c19169055388080620003e1565b8385015186558f97909501949384019301620003ce565b9091508a600052896000208780850160051c8201928c86106200046c575b918d91869594930160051c01915b8281106200045c57505062000197565b600081558594508d91016200044c565b925081926200043e565b602285634e487b7160e01b6000525260246000fd5b90607f169062000182565b604184634e487b7160e01b6000525260246000fd5b01519050388062000152565b90878d941691600080528c600020928d6000905b828210620005065750508411620004ec575b505050811b0160005562000167565b015160001960f88460031b161c19169055388080620004dd565b91929395968291958786015181550195019301908e95949392918e620004cb565b909150600080528a6000208880850160051c8201928d861062000573575b918e91869594930160051c01915b828110620005635750506200013b565b600081558594508e910162000553565b9250819262000545565b602286634e487b7160e01b6000525260246000fd5b90607f169062000126565b600080fd5b8181018501518a82018601528794016200008c565b634e487b7160e01b600052604160045260246000fd5b60408051919082016001600160401b03811183821017620005b757604052565b6040519190601f01601f191682016001600160401b03811183821017620005b75760405256fe6080604081815260048036101561001557600080fd5b600092833560e01c90816301ffc9a7146119b15750806306fdde0314611909578063081812fc146118ce578063095ea7b3146117f257806318160ddd146117d357806323b872dd146117bb57806327ff62231461179e578063297f96d6146117665780632f745c59146116e257806330040da5146111ad5780633f4ba83a1461114457806342842e0e146110f557806342966c6814610df5578063476343ee14610d265780634f6ccce714610cd257806355f804b314610b465780635c975abb14610b225780635d51442314610ad25780635e09eea114610ab15780636352211e14610a8057806370a0823114610a53578063715018a6146109f65780637f3d7ffa1461081c5780638456cb59146107c1578063867951d81461078357806389a56aa4146107655780638da5cb5b1461073c57806395d89b4114610659578063a22cb465146105c6578063b88d4fde14610540578063bf4e21d214610519578063c87b56dd14610351578063d21e82ab14610325578063d6df096d146102e1578063e985e9c514610293578063ec0722571461024c5763f2fde38b146101ba57600080fd5b34610248576020366003190112610248576101d3611a7f565b906101dc611b68565b6001600160a01b03918216928315610232575050600a54826bffffffffffffffffffffffff60a01b821617600a55167f8be0079c531659141344cd1fd0a4f28419497f9722a3daafe3b4186f6b6457e08380a380f35b51631e4fbdf760e01b8152908101849052602490fd5b8280fd5b50503461028f5761028c9061026036611ae5565b919061026a611b68565b60018060a01b03168452600f60205283209060ff801983541691151516179055565b80f35b5080fd5b50503461028f578060031936011261028f5760ff816020936102b3611a7f565b6102bb611a9a565b6001600160a01b0391821683526005875283832091168252855220549151911615158152f35b50503461028f578160031936011261028f57517f00000000000000000000000000000000000000000000000000000000000000006001600160a01b03168152602090f35b5034610248576020366003190112610248578160209360ff92358152600d855220541690519015158152f35b5034610248576020928360031936011261051657813580825260028552838220549092906001600160a01b0316156104c55750825191816011549261039584611bcd565b808652878601946001908181169081156104a95750600114610456575b6103fe896104528a61044360278c8c8c6103ec6103e6878f8f876103d7910388611b14565b848152600e8c5220549261223a565b9161223a565b918651998a945180928b870190611a37565b8301610412825180938b8085019101611a37565b01663f73636f72653d60c81b88820152610434825180938a8785019101611a37565b01036007810187520185611b14565b51928284938452830190611a5a565b0390f35b601184528392507f31ecc21a745e3968a04e9570e4425bc18fa8019c68028196b546d1669c200c685b8284106104965750505084018601836104436103b2565b80548885018b015292890192810161047f565b60ff191687525050151560051b850187019050836104436103b2565b835162461bcd60e51b8152908101859052602560248201527f506f45503a2055524920717565727920666f72206e6f6e6578697374656e74206044820152643a37b5b2b760d91b6064820152608490fd5b80fd5b5034610248576020366003190112610248576020928291358152600e845220549051908152f35b5090346102485760803660031901126102485761055b611a7f565b610563611a9a565b846064359467ffffffffffffffff861161028f573660238701121561028f578501359461059b61059287611b4c565b95519586611b14565b858552366024878301011161028f578561028c96602460209301838801378501015260443591611f2c565b509034610248576105d636611ae5565b6001600160a01b0390911692909190831561064457503384526005602052808420838552602052610615828286209060ff801983541691151516179055565b5190151581527f17307eab39ab6107e8899845ad3d59bd9653f200f220920489ca2b5937696c3160203392a380f35b836024925191630b61174360e31b8352820152fd5b50503461028f578160031936011261028f5780519082600180549161067d83611bcd565b8086529282811690811561071457506001146106b8575b5050506106a682610452940383611b14565b51918291602083526020830190611a5a565b94508085527fb10e2d527612073b26eecdfd717e6a320cf44b4afac2b0732d9fcbe2b7fa0cf65b8286106106fc575050506106a68260206104529582010194610694565b805460208787018101919091529095019481016106df565b6104529750869350602092506106a694915060ff191682840152151560051b82010194610694565b50503461028f578160031936011261028f57600a5490516001600160a01b039091168152602090f35b50503461028f578160031936011261028f5760209051620186a08152f35b50503461028f57602036600319011261028f5760209160ff9082906001600160a01b036107ae611a7f565b168152600f855220541690519015158152f35b50503461028f578160031936011261028f5760207f62e78cea01bee320cd4e420270b5ea74000d11b0c9f74754ebdbfc544b05a258916107ff611b68565b610807612107565b600160ff19600c541617600c5551338152a180f35b5091903461028f578060031936011261028f57610837611a7f565b90602435933384526020600f815260ff8386205416156109a8576001600160a01b0393841680865260028252838620549094161561096857838552600e815282852054918587126108de57506108b07f91878448ef87c3db4aeb83e60e7deb1240ecae3fd04975ec93547398514cb4ed94959683612125565b906103e88083116108d6575b505b858752600e815281848820558351928352820152a280f35b9150386108bc565b95600160ff1b811461095557808603831161092157507f91878448ef87c3db4aeb83e60e7deb1240ecae3fd04975ec93547398514cb4ed939495506064906108be565b8201828111610955577f91878448ef87c3db4aeb83e60e7deb1240ecae3fd04975ec93547398514cb4ed94959650906108be565b634e487b7160e01b865260118752602486fd5b606492519162461bcd60e51b8352820152601d60248201527f506f45503a2050617373706f727420646f6573206e6f742065786973740000006044820152fd5b608492519162461bcd60e51b8352820152602560248201527f506f45503a204e6f7420617574686f72697a656420746f207570646174652073604482015264636f72657360d81b6064820152fd5b8334610516578060031936011261051657610a0f611b68565b600a80546001600160a01b0319811690915581906001600160a01b03167f8be0079c531659141344cd1fd0a4f28419497f9722a3daafe3b4186f6b6457e08280a380f35b50503461028f57602036600319011261028f57602090610a79610a74611a7f565b611b94565b9051908152f35b5091346105165760203660031901126105165750610aa06020923561204f565b90516001600160a01b039091168152f35b5050602036600319011261028f57602090610a79610acd611a7f565b612148565b50503461028f57602036600319011261028f5760209181906001600160a01b0380610afb611a7f565b16825260028552828220541615610b1a57600e84522054905b51908152f35b905090610b14565b50503461028f578160031936011261028f5760209060ff600c541690519015158152f35b508234610516576020918260031936011261028f57803567ffffffffffffffff91828211610cce5736602383011215610cce578101359182116102485760249036828483010111610cce57610b99611b68565b610ba4601154611bcd565b601f8111610c70575b508394601f8411600114610bed5750938394839493610be0575b5050508160011b916000199060031b1c19161760115580f35b0101359050838080610bc7565b601f198416957f31ecc21a745e3968a04e9570e4425bc18fa8019c68028196b546d1669c200c68939186905b888210610c56575050846001969710610c3a575b50505050811b0160115580f35b60001960f88660031b161c199201013516905583808080610c2d565b806001849786839596890101358155019601920190610c19565b7f31ecc21a745e3968a04e9570e4425bc18fa8019c68028196b546d1669c200c68601f850160051c810191878610610cc4575b601f0160051c01905b818110610cb95750610bad565b858155600101610cac565b9091508190610ca3565b8380fd5b503461024857602036600319011261024857803592600854841015610d0b57602083610cfd8661208a565b91905490519160031b1c8152f35b6044939192519263295f44f760e21b84528301526024820152fd5b509034610248578260031936011261024857610d40611b68565b478015610db257600a5484918291829182916001600160a01b03165af1610d656120d7565b5015610d6f578280f35b906020606492519162461bcd60e51b8352820152601b60248201527f506f45503a20466565207769746864726177616c206661696c656400000000006044820152fd5b815162461bcd60e51b8152602081850152601960248201527f506f45503a204e6f206665657320746f207769746864726177000000000000006044820152606490fd5b5090346102485760209081600319360112610cce57823591610e168361204f565b6001600160a01b039033908216036110b257838652600282528083872054161580156110aa575b15611051578386526002825282862054169081159182158061101e575b8588526002835284882080546001600160a01b03191690558588837fddf252ad1be2c89b69c2b068fc378daa952ba7f163c4a11628f55a4df523b3ef8280a48315610fae575050600854848752600982528084882055600160401b811015610f9b5784610ed0826001610ee9940160085561208a565b90919082549060031b91821b91600019901b1916179055565b60085460001991828201918211610f8857600990868952818152610f10868a20549361208a565b90549060031b1c610f2481610ed08661208a565b8952528387205583865285838120556008548015610f7557810190610f488261208a565b909182549160031b1b19169055600855610f60578380f35b51637e27328960e01b81529182015260249150fd5b634e487b7160e01b875260318652602487fd5b634e487b7160e01b885260118752602488fd5b634e487b7160e01b875260418652602487fd5b610fb9575b50610ee9565b610fc281611b94565b85885260078352848820549188526006835284882091818103610ffc575b5085885260078352878581205587528152858381205538610fb3565b81895282845285892054818a5280878b20558952600784528589205538610fe0565b600086815260046020526040902080546001600160a01b0319169055818852600383528488208054600019019055610e5a565b825162461bcd60e51b8152808601839052602d60248201527f506f45503a20536f756c2d626f756e6420746f6b656e732063616e6e6f74206260448201526c19481d1c985b9cd9995c9c9959609a1b6064820152608490fd5b506001610e3d565b825162461bcd60e51b8152808601839052601f60248201527f506f45503a204f6e6c7920746f6b656e206f776e65722063616e206275726e006044820152606490fd5b5091903461028f5761110636611ab0565b91835193602085019085821067ffffffffffffffff8311176111315761028c96975052858452611f2c565b634e487b7160e01b875260418852602487fd5b503461024857826003193601126102485761115d611b68565b600c549060ff82161561119f575060ff1916600c55513381527f5db9ee0a495bf2e6ff9c91a7834c1ba4fdd244a5e8aa4e537bd38aeae4b073aa90602090a180f35b8251638dfc202b60e01b8152fd5b50346102485761012036600319011261024857604491368311610cce573660c411610cce57610104913683116116de5782359260029081600b54146116ce5781600b556111f8612107565b848752602095600d875260ff858920541661168d57845187810181811067ffffffffffffffff82111761167a57865286815285516343753b4d60e01b815292868680860137828a8582015b89888310611666579250505060c480860137830189905b896001831061165257506001600160a01b03949250899150829050610124817f000000000000000000000000000000000000000000000000000000000000000087165afa90811561164857899161160e575b50156115d45733885282875281858920541661158557858852600d8752848820805460ff19166001179055331561156e57338852828752818589205416158015611567575b15611510575033875281865283872054168015801592836114d1575b33808a5260038952868a208054600101905590885285892080546001600160a01b0319168217905580837fddf252ad1be2c89b69c2b068fc378daa952ba7f163c4a11628f55a4df523b3ef8b80a41561146557600854338852600987528085892055600160401b8110156114525761138e8160016113a6930160085561208a565b339082549060031b91821b91600019901b1916179055565b3303611406575b6113f15750338452600e8352606481852055519081527f39c7a0be2574396927e6ea79689359d510f93baabccddecb840da959ef63896533923392a36001600b5580f35b8460249251916339e3563760e11b8352820152fd5b61140f33611b94565b600019810190811161143f57338752600686528387208188528652338488205533875260078652838720556113ad565b634e487b7160e01b875260118352602487fd5b634e487b7160e01b885260418452602488fd5b3381146113a65761147581611b94565b33885260078752848820549082895260068852858920918181036114af575b503389526007885288868120558852865286848120556113a6565b818a52828952868a2054818b5280888c20558a5260078952868a205538611494565b6114f933600052600460205260406000206bffffffffffffffffffffffff60a01b8154169055565b82895260038852858920805460001901905561130d565b837f506f45503a20536f756c2d626f756e6420746f6b656e732063616e6e6f7420626084928988519362461bcd60e51b8552840152602d60248401528201526c19481d1c985b9cd9995c9c9959609a1b6064820152fd5b50876112f1565b8451633250574960e11b8152808501899052602490fd5b837f506f45503a20416c7265616479206d696e74656420666f7220746869732061646084928988519362461bcd60e51b85528401526025602484015282015264647265737360d81b6064820152fd5b83752837a2a81d1024b73b30b634b2102d2590383937b7b360511b6064928988519362461bcd60e51b855284015260166024840152820152fd5b90508781813d8311611641575b6116258183611b14565b8101031261163d5751801515810361163d57386112ac565b8880fd5b503d61161b565b86513d8b823e3d90fd5b80600192855181520193019101909161125a565b808281866001953701930191019091611243565b634e487b7160e01b8a526041865260248afd5b837f506f45503a204e756c6c696669657220616c72656164792075736564000000006064928988519362461bcd60e51b8552840152601c6024840152820152fd5b8351633ee5aeb560e01b81528390fd5b8480fd5b5091346105165781600319360112610516576116fc611a7f565b926024359061170a85611b94565b82101561173a57506001600160a01b03909316815260066020908152828220938252928352819020549051908152f35b925163295f44f760e21b81526001600160a01b0390941692840192835260208301525081906040010390fd5b50503461028f57602036600319011261028f5760209181906001600160a01b0361178e611a7f565b1681526010845220549051908152f35b50503461028f578160031936011261028f57602090516103e88152f35b83346105165761028c6117cd36611ab0565b91611c07565b50503461028f578160031936011261028f576020906008549051908152f35b50903461024857806003193601126102485761180c611a7f565b916024356118198161204f565b331515806118bb575b80611892575b61187c576001600160a01b039485169482918691167f8c5be1e5ebec7d5bd14f71427d1e84f3dd0314c0f7b2291e5b200ac8c7c3b9258880a48452602052822080546001600160a01b031916909117905580f35b835163a9fbf51f60e01b81523381850152602490fd5b506001600160a01b03811686526005602090815284872033885290528386205460ff1615611828565b506001600160a01b038116331415611822565b5034610248576020366003190112610248579182602093356118ef8161204f565b50825283528190205490516001600160a01b039091168152f35b50503461028f578160031936011261028f5780519082805461192a81611bcd565b808552916001918083169081156107145750600114611955575050506106a682610452940383611b14565b80809650527f290decd9548b62a8d60345a988386fc84ba6bc95484008f6362f93160ef3e5635b828610611999575050506106a68260206104529582010194610694565b8054602087870181019190915290950194810161197c565b92505034610248576020366003190112610248573563ffffffff60e01b8116809103610248576020925063780e9d6360e01b81149081156119f4575b5015158152f35b6380ac58cd60e01b811491508115611a26575b8115611a15575b50386119ed565b6301ffc9a760e01b14905038611a0e565b635b5e139f60e01b81149150611a07565b60005b838110611a4a5750506000910152565b8181015183820152602001611a3a565b90602091611a7381518092818552858086019101611a37565b601f01601f1916010190565b600435906001600160a01b0382168203611a9557565b600080fd5b602435906001600160a01b0382168203611a9557565b6060906003190112611a95576001600160a01b03906004358281168103611a9557916024359081168103611a95579060443590565b6040906003190112611a95576004356001600160a01b0381168103611a9557906024358015158103611a955790565b90601f8019910116810190811067ffffffffffffffff821117611b3657604052565b634e487b7160e01b600052604160045260246000fd5b67ffffffffffffffff8111611b3657601f01601f191660200190565b600a546001600160a01b03163303611b7c57565b60405163118cdaa760e01b8152336004820152602490fd5b6001600160a01b03168015611bb457600052600360205260406000205490565b6040516322718ad960e21b815260006004820152602490fd5b90600182811c92168015611bfd575b6020831014611be757565b634e487b7160e01b600052602260045260246000fd5b91607f1691611bdc565b6001600160a01b0382811693918415611f135760009483865260209560028752604096848883205416158015611f0c575b15611eb357858252600281528488832054169633151580611e25575b5087158015611df2575b84845260038352898420805460010190558784526002835289842080546001600160a01b0319168617905587858a7fddf252ad1be2c89b69c2b068fc378daa952ba7f163c4a11628f55a4df523b3ef8780a415611d865760085487845260098352808a852055600160401b811015611d725787610ed0826001611ce4940160085561208a565b838803611d20575b505050501692838303611cff5750505050565b6064945051926364283d7b60e01b8452600484015260248301526044820152fd5b611d2990611b94565b600019810193908411611d5e5782916007918a9452600681528383208584528152878484205587835252205538808080611cec565b634e487b7160e01b83526011600452602483fd5b634e487b7160e01b84526041600452602484fd5b878414611ce457611d9688611b94565b878452600783528984205490898552600684528a852091818103611dd0575b5088855260078452848b812055845282528289812055611ce4565b8186528285528b862054818752808d8820558652600785528b86205538611db5565b600088815260046020526040902080546001600160a01b0319169055888452600383528984208054600019019055611c5e565b80611e72575b15611e365738611c54565b888789611e53576024915190637e27328960e01b82526004820152fd5b905163177e802f60e01b81523360048201526024810191909152604490fd5b503388148015611e97575b80611e2b57508683526004825233868a8520541614611e2b565b5087835260058252888320338452825260ff8984205416611e7d565b60849088519062461bcd60e51b82526004820152602d60248201527f506f45503a20536f756c2d626f756e6420746f6b656e732063616e6e6f74206260448201526c19481d1c985b9cd9995c9c9959609a1b6064820152fd5b5081611c38565b604051633250574960e11b815260006004820152602490fd5b9190611f39828285611c07565b803b611f46575b50505050565b611f8860018060a01b0380921694604051938493630a85bd0160e11b968786523360048701521660248501526044840152608060648401526084830190611a5a565b03906020816000938185885af190829082612007575b5050611fd65782611fad6120d7565b8051919082611fcf57604051633250574960e11b815260048101839052602490fd5b6020915001fd5b6001600160e01b03191603611fef575038808080611f40565b60249060405190633250574960e11b82526004820152fd5b909192506020813d8211612047575b8161202360209383611b14565b8101031261028f5751906001600160e01b0319821682036105165750903880611f9e565b3d9150612016565b6000818152600260205260409020546001600160a01b0316908115612072575090565b60249060405190637e27328960e01b82526004820152fd5b6008548110156120c15760086000527ff3f7a9fe364faab93b216da50a3214154f22a0a2b415b23a84c8169e8b636ee30190600090565b634e487b7160e01b600052603260045260246000fd5b3d15612102573d906120e882611b4c565b916120f66040519384611b14565b82523d6000602084013e565b606090565b60ff600c541661211357565b60405163d93c066560e01b8152600490fd5b9190820180921161213257565b634e487b7160e01b600052601160045260246000fd5b6001600160a01b039081166000818152600260205260408120549192909181161561223457600a54163314158061222b575b61218e575b6040918152600e602052205490565b620186a034106121e65760409133825260106020528282206121b1348254612125565b90558083513481527f66913a289ab32de864a985b54a04ff03bd11c4e31ac45610f1bb96581f50241a60203392a3915061217f565b60405162461bcd60e51b815260206004820152601c60248201527f506f45503a20496e73756666696369656e7420717565727920666565000000006044820152606490fd5b5034151561217a565b50905090565b806000917a184f03e93ff9f4daa797ed6e38ed64bf6a1f01000000000000000080821015612394575b506d04ee2d6d415b85acef810000000080831015612385575b50662386f26fc1000080831015612376575b506305f5e10080831015612367575b5061271080831015612358575b506064821015612348575b600a8092101561233e575b600190816021818601956122d387611b4c565b966122e16040519889611b14565b8088526122f0601f1991611b4c565b01366020890137860101905b612308575b5050505090565b600019019083906f181899199a1a9b1b9c1cb0b131b232b360811b8282061a835304918215612339579190826122fc565b612301565b91600101916122c0565b91906064600291049101916122b5565b600491939204910191386122aa565b6008919392049101913861229d565b6010919392049101913861228e565b6020919392049101913861227c565b60409350810491503861226356fea2646970667358221220c5c308126cc8603f772e3191ea0d24a5dd76fd5f2393ff8cd66c0459615362e764736f6c63430008140033",
  "linkReferences": {},
  "deployedLinkReferences": {}
}