{
  "_format": "hh-sol-artifact-1",
  "contractName": "PoEP",
  "sourceName": "contracts/PoEP.sol",
  "abi": [
    {
      "inputs": [
        {
          "internalType": "address",
          "name": "_verifier",
          "type": "address"
        },
        {
          "internalType": "string",
          "name": "_baseURI",
          "type": "string"
        }
      ],
      "stateMutability": "nonpayable",
      "type": "constructor"
    },
    {
      "inputs": [],
      "name": "AlreadyMinted",
      "type": "error"
    },
    {
      "inputs": [
        {
          "internalType": "address",
          "name": "sender",
          "type": "address"
        },
        {
          "internalType": "uint256",
          "name": "tokenId",
          "type": "uint256"
        },
        {
          "internalType": "address",
          "name": "owner",
          "type": "address"
        }
      ],
      "name": "ERC721IncorrectOwner",
      "type": "error"
    },
    {
      "inputs": [
        {
          "internalType": "address",
          "name": "operator",
          "type": "address"
        },
        {
          "internalType": "uint256",
          "name": "tokenId",
          "type": "uint256"
        }
      ],
      "name": "ERC721InsufficientApproval",
      "type": "error"
    },
    {
      "inputs": [
        {
          "internalType": "address",
          "name": "approver",
          "type": "address"
        }
      ],
      "name": "ERC721InvalidApprover",
      "type": "error"
    },
    {
      "inputs": [
        {
          "internalType": "address",
          "name": "operator",
          "type": "address"
        }
      ],
      "name": "ERC721InvalidOperator",
      "type": "error"
    },
    {
      "inputs": [
        {
          "internalType": "address",
          "name": "owner",
          "type": "address"
        }
      ],
      "name": "ERC721InvalidOwner",
      "type": "error"
    },
    {
      "inputs": [
        {
          "internalType": "address",
          "name": "receiver",
          "type": "address"
        }
      ],
      "name": "ERC721InvalidReceiver",
      "type": "error"
    },
    {
      "inputs": [
        {
          "internalType": "address",
          "name": "sender",
          "type": "address"
        }
      ],
      "name": "ERC721InvalidSender",
      "type": "error"
    },
    {
      "inputs": [
        {
          "internalType": "uint256",
          "name": "tokenId",
          "type": "uint256"
        }
      ],
      "name": "ERC721NonexistentToken",
      "type": "error"
    },
    {
      "inputs": [],
      "name": "InvalidProof",
      "type": "error"
    },
    {
      "inputs": [],
      "name": "NullifierAlreadyUsed",
      "type": "error"
    },
    {
      "inputs": [
        {
          "internalType": "address",
          "name": "owner",
          "type": "address"
        }
      ],
      "name": "OwnableInvalidOwner",
      "type": "error"
    },
    {
      "inputs": [
        {
          "internalType": "address",
          "name": "account",
          "type": "address"
        }
      ],
      "name": "OwnableUnauthorizedAccount",
      "type": "error"
    },
    {
      "inputs": [],
      "name": "ReentrancyGuardReentrantCall",
      "type": "error"
    },
    {
      "inputs": [],
      "name": "TokenNonTransferable",
      "type": "error"
    },
    {
      "anonymous": false,
      "inputs": [
        {
          "indexed": true,
          "internalType": "address",
          "name": "owner",
          "type": "address"
        },
        {
          "indexed": true,
          "internalType": "address",
          "name": "approved",
          "type": "address"
        },
        {
          "indexed": true,
          "internalType": "uint256",
          "name": "tokenId",
          "type": "uint256"
        }
      ],
      "name": "Approval",
      "type": "event"
    },
    {
      "anonymous": false,
      "inputs": [
        {
          "indexed": true,
          "internalType": "address",
          "name": "owner",
          "type": "address"
        },
        {
          "indexed": true,
          "internalType": "address",
          "name": "operator",
          "type": "address"
        },
        {
          "indexed": false,
          "internalType": "bool",
          "name": "approved",
          "type": "bool"
        }
      ],
      "name": "ApprovalForAll",
      "type": "event"
    },
    {
      "anonymous": false,
      "inputs": [
        {
          "indexed": true,
          "internalType": "address",
          "name": "previousOwner",
          "type": "address"
        },
        {
          "indexed": true,
          "internalType": "address",
          "name": "newOwner",
          "type": "address"
        }
      ],
      "name": "OwnershipTransferred",
      "type": "event"
    },
    {
      "anonymous": false,
      "inputs": [
        {
          "indexed": true,
          "internalType": "address",
          "name": "user",
          "type": "address"
        },
        {
          "indexed": true,
          "internalType": "uint256",
          "name": "tokenId",
          "type": "uint256"
        },
        {
          "indexed": false,
          "internalType": "uint256",
          "name": "nullifier",
          "type": "uint256"
        }
      ],
      "name": "PassportMinted",
      "type": "event"
    },
    {
      "anonymous": false,
      "inputs": [
        {
          "indexed": true,
          "internalType": "address",
          "name": "user",
          "type": "address"
        },
        {
          "indexed": false,
          "internalType": "uint256",
          "name": "oldScore",
          "type": "uint256"
        },
        {
          "indexed": false,
          "internalType": "uint256",
          "name": "newScore",
          "type": "uint256"
        }
      ],
      "name": "ScoreUpdated",
      "type": "event"
    },
    {
      "anonymous": false,
      "inputs": [
        {
          "indexed": true,
          "internalType": "address",
          "name": "from",
          "type": "address"
        },
        {
          "indexed": true,
          "internalType": "address",
          "name": "to",
          "type": "address"
        },
        {
          "indexed": true,
          "internalType": "uint256",
          "name": "tokenId",
          "type": "uint256"
        }
      ],
      "name": "Transfer",
      "type": "event"
    },
    {
      "inputs": [
        {
          "internalType": "address",
          "name": "user",
          "type": "address"
        },
        {
          "internalType": "uint256",
          "name": "increment",
          "type": "uint256"
        }
      ],
      "name": "addScore",
      "outputs": [],
      "stateMutability": "nonpayable",
      "type": "function"
    },
    {
      "inputs": [
        {
          "internalType": "address",
          "name": "",
          "type": "address"
        },
        {
          "internalType": "uint256",
          "name": "",
          "type": "uint256"
        }
      ],
      "name": "approve",
      "outputs": [],
      "stateMutability": "nonpayable",
      "type": "function"
    },
    {
      "inputs": [
        {
          "internalType": "address",
          "name": "owner",
          "type": "address"
        }
      ],
      "name": "balanceOf",
      "outputs": [
        {
          "internalType": "uint256",
          "name": "",
          "type": "uint256"
        }
      ],
      "stateMutability": "view",
      "type": "function"
    },
    {
      "inputs": [
        {
          "internalType": "uint256",
          "name": "tokenId",
          "type": "uint256"
        }
      ],
      "name": "getApproved",
      "outputs": [
        {
          "internalType": "address",
          "name": "",
          "type": "address"
        }
      ],
      "stateMutability": "view",
      "type": "function"
    },
    {
      "inputs": [
        {
          "internalType": "address",
          "name": "",
          "type": "address"
        }
      ],
      "name": "hasMinted",
      "outputs": [
        {
          "internalType": "bool",
          "name": "",
          "type": "bool"
        }
      ],
      "stateMutability": "view",
      "type": "function"
    },
    {
      "inputs": [
        {
          "internalType": "address",
          "name": "user",
          "type": "address"
        }
      ],
      "name": "hasPassport",
      "outputs": [
        {
          "internalType": "bool",
          "name": "",
          "type": "bool"
        }
      ],
      "stateMutability": "view",
      "type": "function"
    },
    {
      "inputs": [
        {
          "internalType": "address",
          "name": "owner",
          "type": "address"
        },
        {
          "internalType": "address",
          "name": "operator",
          "type": "address"
        }
      ],
      "name": "isApprovedForAll",
      "outputs": [
        {
          "internalType": "bool",
          "name": "",
          "type": "bool"
        }
      ],
      "stateMutability": "view",
      "type": "function"
    },
    {
      "inputs": [
        {
          "internalType": "uint256[2]",
          "name": "_pA",
          "type": "uint256[2]"
        },
        {
          "internalType": "uint256[2][2]",
          "name": "_pB",
          "type": "uint256[2][2]"
        },
        {
          "internalType": "uint256[2]",
          "name": "_pC",
          "type": "uint256[2]"
        },
        {
          "internalType": "uint256",
          "name": "nullifier",
          "type": "uint256"
        }
      ],
      "name": "mint",
      "outputs": [],
      "stateMutability": "nonpayable",
      "type": "function"
    },
    {
      "inputs": [],
      "name": "name",
      "outputs": [
        {
          "internalType": "string",
          "name": "",
          "type": "string"
        }
      ],
      "stateMutability": "view",
      "type": "function"
    },
    {
      "inputs": [
        {
          "internalType": "uint256",
          "name": "",
          "type": "uint256"
        }
      ],
      "name": "nullifiersUsed",
      "outputs": [
        {
          "internalType": "bool",
          "name": "",
          "type": "bool"
        }
      ],
      "stateMutability": "view",
      "type": "function"
    },
    {
      "inputs": [],
      "name": "owner",
      "outputs": [
        {
          "internalType": "address",
          "name": "",
          "type": "address"
        }
      ],
      "stateMutability": "view",
      "type": "function"
    },
    {
      "inputs": [
        {
          "internalType": "uint256",
          "name": "tokenId",
          "type": "uint256"
        }
      ],
      "name": "ownerOf",
      "outputs": [
        {
          "internalType": "address",
          "name": "",
          "type": "address"
        }
      ],
      "stateMutability": "view",
      "type": "function"
    },
    {
      "inputs": [],
      "name": "renounceOwnership",
      "outputs": [],
      "stateMutability": "nonpayable",
      "type": "function"
    },
    {
      "inputs": [
        {
          "internalType": "address",
          "name": "from",
          "type": "address"
        },
        {
          "internalType": "address",
          "name": "to",
          "type": "address"
        },
        {
          "internalType": "uint256",
          "name": "tokenId",
          "type": "uint256"
        }
      ],
      "name": "safeTransferFrom",
      "outputs": [],
      "stateMutability": "nonpayable",
      "type": "function"
    },
    {
      "inputs": [
        {
          "internalType": "address",
          "name": "from",
          "type": "address"
        },
        {
          "internalType": "address",
          "name": "to",
          "type": "address"
        },
        {
          "internalType": "uint256",
          "name": "tokenId",
          "type": "uint256"
        },
        {
          "internalType": "bytes",
          "name": "data",
          "type": "bytes"
        }
      ],
      "name": "safeTransferFrom",
      "outputs": [],
      "stateMutability": "nonpayable",
      "type": "function"
    },
    {
      "inputs": [
        {
          "internalType": "address",
          "name": "",
          "type": "address"
        },
        {
          "internalType": "bool",
          "name": "",
          "type": "bool"
        }
      ],
      "name": "setApprovalForAll",
      "outputs": [],
      "stateMutability": "nonpayable",
      "type": "function"
    },
    {
      "inputs": [
        {
          "internalType": "string",
          "name": "baseURI",
          "type": "string"
        }
      ],
      "name": "setBaseURI",
      "outputs": [],
      "stateMutability": "nonpayable",
      "type": "function"
    },
    {
      "inputs": [
        {
          "internalType": "bytes4",
          "name": "interfaceId",
          "type": "bytes4"
        }
      ],
      "name": "supportsInterface",
      "outputs": [
        {
          "internalType": "bool",
          "name": "",
          "type": "bool"
        }
      ],
      "stateMutability": "view",
      "type": "function"
    },
    {
      "inputs": [],
      "name": "symbol",
      "outputs": [
        {
          "internalType": "string",
          "name": "",
          "type": "string"
        }
      ],
      "stateMutability": "view",
      "type": "function"
    },
    {
      "inputs": [
        {
          "internalType": "uint256",
          "name": "tokenId",
          "type": "uint256"
        }
      ],
      "name": "tokenURI",
      "outputs": [
        {
          "internalType": "string",
          "name": "",
          "type": "string"
        }
      ],
      "stateMutability": "view",
      "type": "function"
    },
    {
      "inputs": [
        {
          "internalType": "address",
          "name": "from",
          "type": "address"
        },
        {
          "internalType": "address",
          "name": "to",
          "type": "address"
        },
        {
          "internalType": "uint256",
          "name": "tokenId",
          "type": "uint256"
        }
      ],
      "name": "transferFrom",
      "outputs": [],
      "stateMutability": "nonpayable",
      "type": "function"
    },
    {
      "inputs": [
        {
          "internalType": "address",
          "name": "newOwner",
          "type": "address"
        }
      ],
      "name": "transferOwnership",
      "outputs": [],
      "stateMutability": "nonpayable",
      "type": "function"
    },
    {
      "inputs": [
        {
          "internalType": "address",
          "name": "",
          "type": "address"
        }
      ],
      "name": "trustScores",
      "outputs": [
        {
          "internalType": "uint256",
          "name": "",
          "type": "uint256"
        }
      ],
      "stateMutability": "view",
      "type": "function"
    },
    {
      "inputs": [],
      "name": "verifier",
      "outputs": [
        {
          "internalType": "contract PoEPVerifier",
          "name": "",
          "type": "address"
        }
      ],
      "stateMutability": "view",
      "type": "function"
    },
    {
      "inputs": [
        {
          "internalType": "address",
          "name": "user",
          "type": "address"
        }
      ],
      "name": "viewTrustScore",
      "outputs": [
        {
          "internalType": "uint256",
          "name": "score",
          "type": "uint256"
        }
      ],
      "stateMutability": "view",
      "type": "function"
    }
  ],
  "bytecode": "0x60a0604052346200058d5762001c0a803803806200001d81620005c8565b9283398101906040818303126200058d5780516001600160a01b03808216918290036200058d576020938484015160018060401b03948582116200058d570194601f928284880112156200058d5786518681116200059257601f19976200008a8287018a168501620005c8565b948286528483830101116200058d57839060005b8381106200057857505060009185010152620000b9620005a8565b94601b86527f50726f6f662d6f662d4578697374656e63652050617373706f7274000000000083870152620000ed620005a8565b91600492838152630504f45560e41b8582015287518981116200047c57600054986001998a81811c911680156200056d575b88821014620005585790818a84931162000502575b5087908a83116001146200049d5760009262000491575b5050600019600383901b1c191690891b176000555b8051908982116200047c5788548981811c9116801562000471575b878210146200045c5790818984931162000406575b508690898311600114620003a25760009262000396575b5050600019600383901b1c191690881b1787555b33156200037e5760068054336001600160a01b0319821681179092559091167f8be0079c531659141344cd1fd0a4f28419497f9722a3daafe3b4186f6b6457e0600080a38560075560805282519586116200036957600c54908582811c921680156200035e575b83831014620003495750838111620002fd575b50809285116001146200029257508394509083929160009462000286575b50501b916000199060031b1c191617600c555b60405161161b9081620005ef82396080518181816109990152610d9e0152f35b01519250388062000253565b929484908116600c60005284600020946000905b88838310620002e25750505010620002c8575b505050811b01600c5562000266565b015160001960f88460031b161c19169055388080620002b9565b858701518855909601959485019487935090810190620002a6565b600c600052816000208480880160051c8201928489106200033f575b0160051c019085905b8281106200033257505062000235565b6000815501859062000322565b9250819262000319565b602290634e487b7160e01b6000525260246000fd5b91607f169162000222565b604190634e487b7160e01b6000525260246000fd5b604051631e4fbdf760e01b8152600081850152602490fd5b015190503880620001a7565b908c8b94169184600052886000209260005b8a828210620003ef5750508411620003d5575b505050811b018755620001bb565b015160001960f88460031b161c19169055388080620003c7565b8385015186558e97909501949384019301620003b4565b90915089600052866000208980850160051c82019289861062000452575b918c91869594930160051c01915b8281106200044257505062000190565b600081558594508c910162000432565b9250819262000424565b602286634e487b7160e01b6000525260246000fd5b90607f16906200017b565b604185634e487b7160e01b6000525260246000fd5b0151905038806200014b565b908d8c94169160008052896000209260005b8b828210620004eb5750508411620004d1575b505050811b0160005562000160565b015160001960f88460031b161c19169055388080620004c2565b8385015186558f97909501949384019301620004af565b90915060008052876000208a80850160051c8201928a86106200054e575b918d91869594930160051c01915b8281106200053e57505062000134565b600081558594508d91016200052e565b9250819262000520565b602287634e487b7160e01b6000525260246000fd5b90607f16906200011f565b8181018301518782018401528592016200009e565b600080fd5b634e487b7160e01b600052604160045260246000fd5b60408051919082016001600160401b038111838210176200059257604052565b6040519190601f01601f191682016001600160401b03811183821017620005925760405256fe6080604081815260048036101561001557600080fd5b600092833560e01c90816301ffc9a714610ef15750806306fdde0314610e49578063081812fc14610e0e578063095ea7b314610de557806312df0fc41461067d57806323b872dd14610dcd5780632b7ac3f314610d8957806330040da5146108aa57806338e21cce1461083d57806342842e0e1461087b5780634dc30e871461083d57806355f804b3146106b55780635d5144231461067d5780636352211e1461064c57806370a08231146105f7578063715018a61461059a5780638da5cb5b1461057157806395d89b411461048e578063a22cb4651461045a578063b88d4fde146103c8578063c87b56dd14610279578063d119db4c14610246578063e985e9c5146101f4578063f2393bcf146101c85763f2fde38b1461013657600080fd5b346101c45760203660031901126101c45761014f610fa5565b90610158611097565b6001600160a01b039182169283156101ae575050600654826bffffffffffffffffffffffff60a01b821617600655167f8be0079c531659141344cd1fd0a4f28419497f9722a3daafe3b4186f6b6457e08380a380f35b51631e4fbdf760e01b8152908101849052602490fd5b8280fd5b50346101c45760203660031901126101c4578160209360ff923581526009855220541690519015158152f35b50503461024257806003193601126102425760ff81602093610214610fa5565b61021c610fc0565b6001600160a01b0391821683526005875283832091168252855220549151911615158152f35b5080fd5b5050346102425736600319011261027657610273610262610fa5565b61026a611097565b6024359061147a565b80f35b80fd5b5090346101c457602091826003193601126103c45735610298816112cc565b506001600160a01b03906102ab906112cc565b168352600a82526102be8184205461150a565b8151600c549094859291816102d2826110c3565b916001908882821691826000146103a057505060011461033e575b50505061033a939261032b9282663f73636f72653d60c81b6007945261031b825180938a8785019101610f5d565b0103601819810187520185611059565b51928284938452830190610f80565b0390f35b87929695949350600c82527fdf6966c971051c3d54ec59162606531493a51404a002842f56009d7e5cf4a8c75b8783106103885750949593945091928401019050828260076102ed565b8054838b01850152899550889390920191810161036b565b60ff19168882015284151590940287019093019350859250849150600790506102ed565b8380fd5b5090346101c45760803660031901126101c4576103e3610fa5565b6103eb610fc0565b60443591856064359567ffffffffffffffff87116102425736602388011215610242578601359561042761041e8861107b565b96519687611059565b868652366024888301011161024257866102739760246020930183890137860101526104548383836110fd565b33611307565b509134610276578160031936011261027657610474610fa5565b506024358015150361027657505163fcd0178f60e01b8152fd5b5050346102425781600319360112610242578051908260018054916104b2836110c3565b8086529282811690811561054957506001146104ed575b5050506104db8261033a940383611059565b51918291602083526020830190610f80565b94508085527fb10e2d527612073b26eecdfd717e6a320cf44b4afac2b0732d9fcbe2b7fa0cf65b828610610531575050506104db82602061033a95820101946104c9565b80546020878701810191909152909501948101610514565b61033a9750869350602092506104db94915060ff191682840152151560051b820101946104c9565b50503461024257816003193601126102425760065490516001600160a01b039091168152602090f35b83346102765780600319360112610276576105b3611097565b600680546001600160a01b0319811690915581906001600160a01b03167f8be0079c531659141344cd1fd0a4f28419497f9722a3daafe3b4186f6b6457e08280a380f35b509134610276576020366003190112610276576001600160a01b0361061a610fa5565b169283156106375750806020938392526003845220549051908152f35b91516322718ad960e21b815291820152602490fd5b509134610276576020366003190112610276575061066c602092356112cc565b90516001600160a01b039091168152f35b5050346102425760203660031901126102425760209181906001600160a01b036106a5610fa5565b168152600a845220549051908152f35b508234610276576020918260031936011261024257803567ffffffffffffffff918282116103c457366023830112156103c4578101359182116101c457602490368284830101116103c457610708611097565b610713600c546110c3565b601f81116107df575b508394601f841160011461075c575093839483949361074f575b5050508160011b916000199060031b1c191617600c5580f35b0101359050838080610736565b601f198416957fdf6966c971051c3d54ec59162606531493a51404a002842f56009d7e5cf4a8c7939186905b8882106107c55750508460019697106107a9575b50505050811b01600c5580f35b60001960f88660031b161c19920101351690558380808061079c565b806001849786839596890101358155019601920190610788565b7fdf6966c971051c3d54ec59162606531493a51404a002842f56009d7e5cf4a8c7601f850160051c810191878610610833575b601f0160051c01905b818110610828575061071c565b85815560010161081b565b9091508190610812565b5050346102425760203660031901126102425760209160ff9082906001600160a01b03610868610fa5565b168152600b855220541690519015158152f35b505034610242576102739061088f36610fd6565b9192519261089c8461103d565b8584526104548383836110fd565b5090346101c457610120806003193601126103c457366044116103c4573660c4116103c45761010491368311610d855782356002908160075414610d755781600755338752602093600b855260ff8489205416610d65578188526009855260ff8489205416610d555783519061091f8261100b565b6001968783528683019287368537805115610d425784845286516361971b8760e11b815292610124840192888c8087013760448d8c8b8884015b8c8410610d2d57509250505060c48087013784015251809152610144820192908a5b8989838310610d1b579350505050818060018060a01b039403818c867f0000000000000000000000000000000000000000000000000000000000000000165af1908115610d11578991610cd7575b5015610cc7578188526009855283882060ff19908782825416179055338952600b865286858a2091825416179055610a02600854611455565b9283600855845191610a138361103d565b8983523315610cb057848a5281875280868b205416151580610ca9575b610c99578490818b52828852868b2054168015159283610c6e575b33808d5260038a52888d2080548c019055838d52908952878c2080546001600160a01b03191682179055907fddf252ad1be2c89b69c2b068fc378daa952ba7f163c4a11628f55a4df523b3ef8c80a4610c5757333b610b14575b507f91878448ef87c3db4aeb83e60e7deb1240ecae3fd04975ec93547398514cb4ed93949550338752600a8552858388205582519081527f39c7a0be2574396927e6ea79689359d510f93baabccddecb840da959ef638965853392a3838151938685528401523392a260075580f35b83959351858180610b4c630a85bd0160e11b95868352338d8401528d6024840152886044840152608060648401526084830190610f80565b03818c335af1899181610c13575b50610bba5750505050503d600014610bb1573d610b768161107b565b90610b8384519283611059565b81528094823d92013e5b83519384610bab578251633250574960e11b81523381860152602490fd5b84925001fd5b60609350610b8d565b63ffffffff60e098939495989796971b1603610bfc575084939291907f91878448ef87c3db4aeb83e60e7deb1240ecae3fd04975ec93547398514cb4ed610aa5565b602490845190633250574960e11b82523390820152fd5b9091508681813d8311610c50575b610c2b8183611059565b81010312610c4c57516001600160e01b031981168103610c4c579038610b5a565b8980fd5b503d610c21565b83516339e3563760e11b8152808801899052602490fd5b8a8952878c2080546001600160a01b0319169055818c5260038952878c208054600019019055610a4b565b855163fcd0178f60e01b81528990fd5b5087610a30565b8551633250574960e11b8152808a018b9052602490fd5b83516309bde33960e01b81528790fd5b90508581813d8311610d0a575b610cee8183611059565b81010312610d0657518015158103610d0657386109c9565b8880fd5b503d610ce4565b85513d8b823e3d90fd5b8451875295860195909301920161097b565b808286819337019301910190918b8e91610959565b634e487b7160e01b8b5260328a5260248bfd5b8351636569570160e11b81528790fd5b8351631bbdf5c560e31b81528790fd5b8251633ee5aeb560e01b81528690fd5b8480fd5b505034610242578160031936011261024257517f00000000000000000000000000000000000000000000000000000000000000006001600160a01b03168152602090f35b833461027657610273610ddf36610fd6565b916110fd565b50913461027657816003193601126102765750610e00610fa5565b505163fcd0178f60e01b8152fd5b50346101c45760203660031901126101c457918260209335610e2f816112cc565b50825283528190205490516001600160a01b039091168152f35b505034610242578160031936011261024257805190828054610e6a816110c3565b808552916001918083169081156105495750600114610e95575050506104db8261033a940383611059565b80809650527f290decd9548b62a8d60345a988386fc84ba6bc95484008f6362f93160ef3e5635b828610610ed9575050506104db82602061033a95820101946104c9565b80546020878701810191909152909501948101610ebc565b925050346101c45760203660031901126101c4573563ffffffff60e01b81168091036101c457602092506380ac58cd60e01b8114908115610f4c575b8115610f3b575b5015158152f35b6301ffc9a760e01b14905038610f34565b635b5e139f60e01b81149150610f2d565b60005b838110610f705750506000910152565b8181015183820152602001610f60565b90602091610f9981518092818552858086019101610f5d565b601f01601f1916010190565b600435906001600160a01b0382168203610fbb57565b600080fd5b602435906001600160a01b0382168203610fbb57565b6060906003190112610fbb576001600160a01b03906004358281168103610fbb57916024359081168103610fbb579060443590565b6040810190811067ffffffffffffffff82111761102757604052565b634e487b7160e01b600052604160045260246000fd5b6020810190811067ffffffffffffffff82111761102757604052565b90601f8019910116810190811067ffffffffffffffff82111761102757604052565b67ffffffffffffffff811161102757601f01601f191660200190565b6006546001600160a01b031633036110ab57565b60405163118cdaa760e01b8152336004820152602490fd5b90600182811c921680156110f3575b60208310146110dd57565b634e487b7160e01b600052602260045260246000fd5b91607f16916110d2565b6001600160a01b0391821692909183156112b357600092828452602094600286526040958387872054161515806112ab575b61129a579084918287526002815284888820541696879133151580611204575b509060027fddf252ad1be2c89b69c2b068fc378daa952ba7f163c4a11628f55a4df523b3ef92846111d5575b858352600381528b8320805460010190558683525289812080546001600160a01b0319168517905580a416928383036111b45750505050565b6064945051926364283d7b60e01b8452600484015260248301526044820152fd5b868352600481528b832080546001600160a01b0319169055848352600381528b8320805460001901905561117b565b91939450915080611259575b156112205785929187913861114f565b87868861123d576024915190637e27328960e01b82526004820152fd5b604491519063177e802f60e01b82523360048301526024820152fd5b50338714801561127e575b806112105750858252600481523385898420541614611210565b5086825260058152878220338352815260ff8883205416611264565b865163fcd0178f60e01b8152600490fd5b50600161112f565b604051633250574960e11b815260006004820152602490fd5b6000818152600260205260409020546001600160a01b03169081156112ef575090565b60249060405190637e27328960e01b82526004820152fd5b90939192833b611319575b5050505050565b604051630a85bd0160e11b8082526001600160a01b039384166004830152958316602482015260448101919091526080606482015294921692602092918590611366906084830190610f80565b039483816000978189895af1869181611411575b506113db575050503d6000146113d2573d6113948161107b565b906113a26040519283611059565b81528093823d92013e5b825192836113cd57604051633250574960e11b815260048101849052602490fd5b019050fd5b606092506113ac565b919450915063ffffffff60e01b16036113f957503880808080611312565b60249060405190633250574960e11b82526004820152fd5b9091508481813d831161144e575b6114298183611059565b8101031261144a57516001600160e01b03198116810361144a57903861137a565b8680fd5b503d61141f565b60001981146114645760010190565b634e487b7160e01b600052601160045260246000fd5b6001600160a01b03166000818152600b602052604081205491929160ff161561150557600a6020526040812054918201908183116114f15791816040928385877f91878448ef87c3db4aeb83e60e7deb1240ecae3fd04975ec93547398514cb4ed9752600a602052205582519182526020820152a2565b634e487b7160e01b81526011600452602490fd5b505050565b80156115c757600081805b6115b357506115238161107b565b906115316040519283611059565b808252601f196115408261107b565b013660208401375b809280156115ac576000198201918211611464578193600a92603090848406820180921161146457855111156115965760f81b6001600160f81b03191660001a908401601f01530491611548565b634e487b7160e01b600052603260045260246000fd5b5050905090565b906115bf600a91611455565b910480611515565b506040516115d48161100b565b60018152600360fc1b60208201529056fea2646970667358221220688d78747d4c82263f56505c0066f565145d292dfab2327cda4b321c3452a4e564736f6c63430008140033",
  "linkReferences": {},
  "deployedLinkReferences": {}
}