{"contracts/PoEP.sol":{"PoEP":{"abi":[{"inputs":[{"internalType":"string","name":"baseURI","type":"string"},{"internalType":"address","name":"verifierAddress","type":"address"}],"stateMutability":"nonpayable","type":"constructor"},{"inputs":[],"name":"ERC721EnumerableForbiddenBatchMint","type":"error"},{"inputs":[{"internalType":"address","name":"sender","type":"address"},{"internalType":"uint256","name":"tokenId","type":"uint256"},{"internalType":"address","name":"owner","type":"address"}],"name":"ERC721IncorrectOwner","type":"error"},{"inputs":[{"internalType":"address","name":"operator","type":"address"},{"internalType":"uint256","name":"tokenId","type":"uint256"}],"name":"ERC721InsufficientApproval","type":"error"},{"inputs":[{"internalType":"address","name":"approver","type":"address"}],"name":"ERC721InvalidApprover","type":"error"},{"inputs":[{"internalType":"address","name":"operator","type":"address"}],"name":"ERC721InvalidOperator","type":"error"},{"inputs":[{"internalType":"address","name":"owner","type":"address"}],"name":"ERC721InvalidOwner","type":"error"},{"inputs":[{"internalType":"address","name":"receiver","type":"address"}],"name":"ERC721InvalidReceiver","type":"error"},{"inputs":[{"internalType":"address","name":"sender","type":"address"}],"name":"ERC721InvalidSender","type":"error"},{"inputs":[{"internalType":"uint256","name":"tokenId","type":"uint256"}],"name":"ERC721NonexistentToken","type":"error"},{"inputs":[{"internalType":"address","name":"owner","type":"address"},{"internalType":"uint256","name":"index","type":"uint256"}],"name":"ERC721OutOfBoundsIndex","type":"error"},{"inputs":[],"name":"EnforcedPause","type":"error"},{"inputs":[],"name":"ExpectedPause","type":"error"},{"inputs":[{"internalType":"address","name":"owner","type":"address"}],"name":"OwnableInvalidOwner","type":"error"},{"inputs":[{"internalType":"address","name":"account","type":"address"}],"name":"OwnableUnauthorizedAccount","type":"error"},{"inputs":[],"name":"ReentrancyGuardReentrantCall","type":"error"},{"anonymous":false,"inputs":[{"indexed":true,"internalType":"address","name":"owner","type":"address"},{"indexed":true,"internalType":"address","name":"approved","type":"address"},{"indexed":true,"internalType":"uint256","name":"tokenId","type":"uint256"}],"name":"Approval","type":"event"},{"anonymous":false,"inputs":[{"indexed":true,"internalType":"address","name":"owner","type":"address"},{"indexed":true,"internalType":"address","name":"operator","type":"address"},{"indexed":false,"internalType":"bool","name":"approved","type":"bool"}],"name":"ApprovalForAll","type":"event"},{"anonymous":false,"inputs":[{"indexed":true,"internalType":"address","name":"previousOwner","type":"address"},{"indexed":true,"internalType":"address","name":"newOwner","type":"address"}],"name":"OwnershipTransferred","type":"event"},{"anonymous":false,"inputs":[{"indexed":true,"internalType":"address","name":"user","type":"address"},{"indexed":true,"internalType":"uint256","name":"tokenId","type":"uint256"},{"indexed":false,"internalType":"uint256","name":"nullifier","type":"uint256"}],"name":"PassportMinted","type":"event"},{"anonymous":false,"inputs":[{"indexed":false,"internalType":"address","name":"account","type":"address"}],"name":"Paused","type":"event"},{"anonymous":false,"inputs":[{"indexed":true,"internalType":"address","name":"app","type":"address"},{"indexed":true,"internalType":"address","name":"user","type":"address"},{"indexed":false,"internalType":"uint256","name":"fee","type":"uint256"}],"name":"QueryFeePaid","type":"event"},{"anonymous":false,"inputs":[{"indexed":true,"internalType":"address","name":"user","type":"address"},{"indexed":false,"internalType":"uint256","name":"oldScore","type":"uint256"},{"indexed":false,"internalType":"uint256","name":"newScore","type":"uint256"}],"name":"ScoreUpdated","type":"event"},{"anonymous":false,"inputs":[{"indexed":true,"internalType":"address","name":"from","type":"address"},{"indexed":true,"internalType":"address","name":"to","type":"address"},{"indexed":true,"internalType":"uint256","name":"tokenId","type":"uint256"}],"name":"Transfer","type":"event"},{"anonymous":false,"inputs":[{"indexed":false,"internalType":"address","name":"account","type":"address"}],"name":"Unpaused","type":"event"},{"inputs":[],"name":"MAX_SCORE","outputs":[{"internalType":"uint256","name":"","type":"uint256"}],"stateMutability":"view","type":"function"},{"inputs":[],"name":"QUERY_FEE","outputs":[{"internalType":"uint256","name":"","type":"uint256"}],"stateMutability":"view","type":"function"},{"inputs":[{"internalType":"address","name":"to","type":"address"},{"internalType":"uint256","name":"tokenId","type":"uint256"}],"name":"approve","outputs":[],"stateMutability":"nonpayable","type":"function"},{"inputs":[{"internalType":"address","name":"owner","type":"address"}],"name":"balanceOf","outputs":[{"internalType":"uint256","name":"","type":"uint256"}],"stateMutability":"view","type":"function"},{"inputs":[{"internalType":"uint256","name":"tokenId","type":"uint256"}],"name":"burn","outputs":[],"stateMutability":"nonpayable","type":"function"},{"inputs":[{"internalType":"uint256","name":"tokenId","type":"uint256"}],"name":"getApproved","outputs":[{"internalType":"address","name":"","type":"address"}],"stateMutability":"view","type":"function"},{"inputs":[{"internalType":"address","name":"user","type":"address"}],"name":"getTrustScore","outputs":[{"internalType":"uint256","name":"score","type":"uint256"}],"stateMutability":"payable","type":"function"},{"inputs":[{"internalType":"address","name":"owner","type":"address"},{"internalType":"address","name":"operator","type":"address"}],"name":"isApprovedForAll","outputs":[{"internalType":"bool","name":"","type":"bool"}],"stateMutability":"view","type":"function"},{"inputs":[{"internalType":"uint256[2]","name":"_pA","type":"uint256[2]"},{"internalType":"uint256[2][2]","name":"_pB","type":"uint256[2][2]"},{"internalType":"uint256[2]","name":"_pC","type":"uint256[2]"},{"internalType":"uint256","name":"_nullifier","type":"uint256"}],"name":"mint","outputs":[],"stateMutability":"nonpayable","type":"function"},{"inputs":[],"name":"name","outputs":[{"internalType":"string","name":"","type":"string"}],"stateMutability":"view","type":"function"},{"inputs":[{"internalType":"uint256","name":"","type":"uint256"}],"name":"nullifiers","outputs":[{"internalType":"bool","name":"","type":"bool"}],"stateMutability":"view","type":"function"},{"inputs":[],"name":"owner","outputs":[{"internalType":"address","name":"","type":"address"}],"stateMutability":"view","type":"function"},{"inputs":[{"internalType":"uint256","name":"tokenId","type":"uint256"}],"name":"ownerOf","outputs":[{"internalType":"address","name":"","type":"address"}],"stateMutability":"view","type":"function"},{"inputs":[],"name":"pause","outputs":[],"stateMutability":"nonpayable","type":"function"},{"inputs":[],"name":"paused","outputs":[{"internalType":"bool","name":"","type":"bool"}],"stateMutability":"view","type":"function"},{"inputs":[{"internalType":"address","name":"","type":"address"}],"name":"queryFees","outputs":[{"internalType":"uint256","name":"","type":"uint256"}],"stateMutability":"view","type":"function"},{"inputs":[],"name":"renounceOwnership","outputs":[],"stateMutability":"nonpayable","type":"function"},{"inputs":[{"internalType":"address","name":"from","type":"address"},{"internalType":"address","name":"to","type":"address"},{"internalType":"uint256","name":"tokenId","type":"uint256"}],"name":"safeTransferFrom","outputs":[],"stateMutability":"nonpayable","type":"function"},{"inputs":[{"internalType":"address","name":"from","type":"address"},{"internalType":"address","name":"to","type":"address"},{"internalType":"uint256","name":"tokenId","type":"uint256"},{"internalType":"bytes","name":"data","type":"bytes"}],"name":"safeTransferFrom","outputs":[],"stateMutability":"nonpayable","type":"function"},{"inputs":[{"internalType":"address","name":"","type":"address"}],"name":"scoreUpdaters","outputs":[{"internalType":"bool","name":"","type":"bool"}],"stateMutability":"view","type":"function"},{"inputs":[{"internalType":"address","name":"operator","type":"address"},{"internalType":"bool","name":"approved","type":"bool"}],"name":"setApprovalForAll","outputs":[],"stateMutability":"nonpayable","type":"function"},{"inputs":[{"internalType":"string","name":"newBaseURI","type":"string"}],"name":"setBaseURI","outputs":[],"stateMutability":"nonpayable","type":"function"},{"inputs":[{"internalType":"address","name":"updater","type":"address"},{"internalType":"bool","name":"authorized","type":"bool"}],"name":"setScoreUpdater","outputs":[],"stateMutability":"nonpayable","type":"function"},{"inputs":[{"internalType":"bytes4","name":"interfaceId","type":"bytes4"}],"name":"supportsInterface","outputs":[{"internalType":"bool","name":"","type":"bool"}],"stateMutability":"view","type":"function"},{"inputs":[],"name":"symbol","outputs":[{"internalType":"string","name":"","type":"string"}],"stateMutability":"view","type":"function"},{"inputs":[{"internalType":"uint256","name":"index","type":"uint256"}],"name":"tokenByIndex","outputs":[{"internalType":"uint256","name":"","type":"uint256"}],"stateMutability":"view","type":"function"},{"inputs":[{"internalType":"address","name":"owner","type":"address"},{"internalType":"uint256","name":"index","type":"uint256"}],"name":"tokenOfOwnerByIndex","outputs":[{"internalType":"uint256","name":"","type":"uint256"}],"stateMutability":"view","type":"function"},{"inputs":[{"internalType":"uint256","name":"tokenId","type":"uint256"}],"name":"tokenURI","outputs":[{"internalType":"string","name":"","type":"string"}],"stateMutability":"view","type":"function"},{"inputs":[],"name":"totalSupply","outputs":[{"internalType":"uint256","name":"","type":"uint256"}],"stateMutability":"view","type":"function"},{"inputs":[{"internalType":"address","name":"from","type":"address"},{"internalType":"address","name":"to","type":"address"},{"internalType":"uint256","name":"tokenId","type":"uint256"}],"name":"transferFrom","outputs":[],"stateMutability":"nonpayable","type":"function"},{"inputs":[{"internalType":"address","name":"newOwner","type":"address"}],"name":"transferOwnership","outputs":[],"stateMutability":"nonpayable","type":"function"},{"inputs":[{"internalType":"uint256","name":"","type":"uint256"}],"name":"trustScore","outputs":[{"internalType":"uint256","name":"","type":"uint256"}],"stateMutability":"view","type":"function"},{"inputs":[],"name":"unpause","outputs":[],"stateMutability":"nonpayable","type":"function"},{"inputs":[{"internalType":"address","name":"user","type":"address"},{"internalType":"int256","name":"delta","type":"int256"}],"name":"updateScore","outputs":[],"stateMutability":"nonpayable","type":"function"},{"inputs":[{"internalType":"address","name":"user","type":"address"}],"name":"viewTrustScore","outputs":[{"internalType":"uint256","name":"score","type":"uint256"}],"stateMutability":"view","type":"function"},{"inputs":[],"name":"withdrawFees","outputs":[],"stateMutability":"nonpayable","type":"function"},{"inputs":[],"name":"zkVerifier","outputs":[{"internalType":"contract PoEPVerifier","name":"","type":"address"}],"stateMutability":"view","type":"function"}],"evm":{"bytecode":{"linkReferences":{},"object":"60a0604052346200059d57620029ec803803806200001d81620005ed565b9283398101906040818303126200059d5780516001600160401b0391908281116200059d57810191601f908482850112156200059d57835192818411620005b757602093601f19956200007686888785011601620005ed565b978289528683830101116200059d579085929160005b828110620005a2575050600090880183015201516001600160a01b039485821693918490036200059d57620000c0620005cd565b95601887527f50726f6f664f664578697374656e636550617373706f7274000000000000000086880152620000f4620005cd565b90600491828152630506f45560e41b88820152885186811162000496576000549960019a8b81811c9116801562000592575b8b8210146200057d5790818884931162000527575b508a90888311600114620004b757600092620004ab575b5050600019600383901b1c1916908a1b176000555b805190868211620004965789548a81811c911680156200048b575b8a821014620004765790818784931162000420575b508990878311600114620003bc57600092620003b0575b5050600019600383901b1c191690891b1788555b33156200039857600a8054336001600160a01b0319821681179092559091167f8be0079c531659141344cd1fd0a4f28419497f9722a3daafe3b4186f6b6457e0600080a386600b5587519384116200038357601154908782811c9216801562000378575b8783101462000363575082811162000317575b5084918311600114620002ae57508190600f9596600092620002a2575b5050600019600383901b1c191690851b176011555b608052336000525260406000209060ff198254161790556040516123d890816200061482396080518181816102f6015261127b0152f35b01519050388062000256565b8216956011600052846000209660005b8181106200030157509186979184600f98959410620002e7575b505050811b016011556200026b565b015160001960f88460031b161c19169055388080620002d8565b83830151895597870197928601928601620002be565b6011600052856000208380860160051c82019288871062000359575b0160051c019087905b8281106200034c57505062000239565b600081550187906200033c565b9250819262000333565b602290634e487b7160e01b6000525260246000fd5b91607f169162000226565b604190634e487b7160e01b6000525260246000fd5b604051631e4fbdf760e01b8152600081840152602490fd5b015190503880620001ae565b90868c941691846000528b6000209260005b8d828210620004095750508411620003ef575b505050811b018855620001c2565b015160001960f88460031b161c19169055388080620003e1565b8385015186558f97909501949384019301620003ce565b9091508a600052896000208780850160051c8201928c86106200046c575b918d91869594930160051c01915b8281106200045c57505062000197565b600081558594508d91016200044c565b925081926200043e565b602285634e487b7160e01b6000525260246000fd5b90607f169062000182565b604184634e487b7160e01b6000525260246000fd5b01519050388062000152565b90878d941691600080528c600020928d6000905b828210620005065750508411620004ec575b505050811b0160005562000167565b015160001960f88460031b161c19169055388080620004dd565b91929395968291958786015181550195019301908e95949392918e620004cb565b909150600080528a6000208880850160051c8201928d861062000573575b918e91869594930160051c01915b828110620005635750506200013b565b600081558594508e910162000553565b9250819262000545565b602286634e487b7160e01b6000525260246000fd5b90607f169062000126565b600080fd5b8181018501518a82018601528794016200008c565b634e487b7160e01b600052604160045260246000fd5b60408051919082016001600160401b03811183821017620005b757604052565b6040519190601f01601f191682016001600160401b03811183821017620005b75760405256fe6080604081815260048036101561001557600080fd5b600092833560e01c90816301ffc9a7146119b15750806306fdde0314611909578063081812fc146118ce578063095ea7b3146117f257806318160ddd146117d357806323b872dd146117bb57806327ff62231461179e578063297f96d6146117665780632f745c59146116e257806330040da5146111ad5780633f4ba83a1461114457806342842e0e146110f557806342966c6814610df5578063476343ee14610d265780634f6ccce714610cd257806355f804b314610b465780635c975abb14610b225780635d51442314610ad25780635e09eea114610ab15780636352211e14610a8057806370a0823114610a53578063715018a6146109f65780637f3d7ffa1461081c5780638456cb59146107c1578063867951d81461078357806389a56aa4146107655780638da5cb5b1461073c57806395d89b4114610659578063a22cb465146105c6578063b88d4fde14610540578063bf4e21d214610519578063c87b56dd14610351578063d21e82ab14610325578063d6df096d146102e1578063e985e9c514610293578063ec0722571461024c5763f2fde38b146101ba57600080fd5b34610248576020366003190112610248576101d3611a7f565b906101dc611b68565b6001600160a01b03918216928315610232575050600a54826bffffffffffffffffffffffff60a01b821617600a55167f8be0079c531659141344cd1fd0a4f28419497f9722a3daafe3b4186f6b6457e08380a380f35b51631e4fbdf760e01b8152908101849052602490fd5b8280fd5b50503461028f5761028c9061026036611ae5565b919061026a611b68565b60018060a01b03168452600f60205283209060ff801983541691151516179055565b80f35b5080fd5b50503461028f578060031936011261028f5760ff816020936102b3611a7f565b6102bb611a9a565b6001600160a01b0391821683526005875283832091168252855220549151911615158152f35b50503461028f578160031936011261028f57517f00000000000000000000000000000000000000000000000000000000000000006001600160a01b03168152602090f35b5034610248576020366003190112610248578160209360ff92358152600d855220541690519015158152f35b5034610248576020928360031936011261051657813580825260028552838220549092906001600160a01b0316156104c55750825191816011549261039584611bcd565b808652878601946001908181169081156104a95750600114610456575b6103fe896104528a61044360278c8c8c6103ec6103e6878f8f876103d7910388611b14565b848152600e8c5220549261223a565b9161223a565b918651998a945180928b870190611a37565b8301610412825180938b8085019101611a37565b01663f73636f72653d60c81b88820152610434825180938a8785019101611a37565b01036007810187520185611b14565b51928284938452830190611a5a565b0390f35b601184528392507f31ecc21a745e3968a04e9570e4425bc18fa8019c68028196b546d1669c200c685b8284106104965750505084018601836104436103b2565b80548885018b015292890192810161047f565b60ff191687525050151560051b850187019050836104436103b2565b835162461bcd60e51b8152908101859052602560248201527f506f45503a2055524920717565727920666f72206e6f6e6578697374656e74206044820152643a37b5b2b760d91b6064820152608490fd5b80fd5b5034610248576020366003190112610248576020928291358152600e845220549051908152f35b5090346102485760803660031901126102485761055b611a7f565b610563611a9a565b846064359467ffffffffffffffff861161028f573660238701121561028f578501359461059b61059287611b4c565b95519586611b14565b858552366024878301011161028f578561028c96602460209301838801378501015260443591611f2c565b509034610248576105d636611ae5565b6001600160a01b0390911692909190831561064457503384526005602052808420838552602052610615828286209060ff801983541691151516179055565b5190151581527f17307eab39ab6107e8899845ad3d59bd9653f200f220920489ca2b5937696c3160203392a380f35b836024925191630b61174360e31b8352820152fd5b50503461028f578160031936011261028f5780519082600180549161067d83611bcd565b8086529282811690811561071457506001146106b8575b5050506106a682610452940383611b14565b51918291602083526020830190611a5a565b94508085527fb10e2d527612073b26eecdfd717e6a320cf44b4afac2b0732d9fcbe2b7fa0cf65b8286106106fc575050506106a68260206104529582010194610694565b805460208787018101919091529095019481016106df565b6104529750869350602092506106a694915060ff191682840152151560051b82010194610694565b50503461028f578160031936011261028f57600a5490516001600160a01b039091168152602090f35b50503461028f578160031936011261028f5760209051620186a08152f35b50503461028f57602036600319011261028f5760209160ff9082906001600160a01b036107ae611a7f565b168152600f855220541690519015158152f35b50503461028f578160031936011261028f5760207f62e78cea01bee320cd4e420270b5ea74000d11b0c9f74754ebdbfc544b05a258916107ff611b68565b610807612107565b600160ff19600c541617600c5551338152a180f35b5091903461028f578060031936011261028f57610837611a7f565b90602435933384526020600f815260ff8386205416156109a8576001600160a01b0393841680865260028252838620549094161561096857838552600e815282852054918587126108de57506108b07f91878448ef87c3db4aeb83e60e7deb1240ecae3fd04975ec93547398514cb4ed94959683612125565b906103e88083116108d6575b505b858752600e815281848820558351928352820152a280f35b9150386108bc565b95600160ff1b811461095557808603831161092157507f91878448ef87c3db4aeb83e60e7deb1240ecae3fd04975ec93547398514cb4ed939495506064906108be565b8201828111610955577f91878448ef87c3db4aeb83e60e7deb1240ecae3fd04975ec93547398514cb4ed94959650906108be565b634e487b7160e01b865260118752602486fd5b606492519162461bcd60e51b8352820152601d60248201527f506f45503a2050617373706f727420646f6573206e6f742065786973740000006044820152fd5b608492519162461bcd60e51b8352820152602560248201527f506f45503a204e6f7420617574686f72697a656420746f207570646174652073604482015264636f72657360d81b6064820152fd5b8334610516578060031936011261051657610a0f611b68565b600a80546001600160a01b0319811690915581906001600160a01b03167f8be0079c531659141344cd1fd0a4f28419497f9722a3daafe3b4186f6b6457e08280a380f35b50503461028f57602036600319011261028f57602090610a79610a74611a7f565b611b94565b9051908152f35b5091346105165760203660031901126105165750610aa06020923561204f565b90516001600160a01b039091168152f35b5050602036600319011261028f57602090610a79610acd611a7f565b612148565b50503461028f57602036600319011261028f5760209181906001600160a01b0380610afb611a7f565b16825260028552828220541615610b1a57600e84522054905b51908152f35b905090610b14565b50503461028f578160031936011261028f5760209060ff600c541690519015158152f35b508234610516576020918260031936011261028f57803567ffffffffffffffff91828211610cce5736602383011215610cce578101359182116102485760249036828483010111610cce57610b99611b68565b610ba4601154611bcd565b601f8111610c70575b508394601f8411600114610bed5750938394839493610be0575b5050508160011b916000199060031b1c19161760115580f35b0101359050838080610bc7565b601f198416957f31ecc21a745e3968a04e9570e4425bc18fa8019c68028196b546d1669c200c68939186905b888210610c56575050846001969710610c3a575b50505050811b0160115580f35b60001960f88660031b161c199201013516905583808080610c2d565b806001849786839596890101358155019601920190610c19565b7f31ecc21a745e3968a04e9570e4425bc18fa8019c68028196b546d1669c200c68601f850160051c810191878610610cc4575b601f0160051c01905b818110610cb95750610bad565b858155600101610cac565b9091508190610ca3565b8380fd5b503461024857602036600319011261024857803592600854841015610d0b57602083610cfd8661208a565b91905490519160031b1c8152f35b6044939192519263295f44f760e21b84528301526024820152fd5b509034610248578260031936011261024857610d40611b68565b478015610db257600a5484918291829182916001600160a01b03165af1610d656120d7565b5015610d6f578280f35b906020606492519162461bcd60e51b8352820152601b60248201527f506f45503a20466565207769746864726177616c206661696c656400000000006044820152fd5b815162461bcd60e51b8152602081850152601960248201527f506f45503a204e6f206665657320746f207769746864726177000000000000006044820152606490fd5b5090346102485760209081600319360112610cce57823591610e168361204f565b6001600160a01b039033908216036110b257838652600282528083872054161580156110aa575b15611051578386526002825282862054169081159182158061101e575b8588526002835284882080546001600160a01b03191690558588837fddf252ad1be2c89b69c2b068fc378daa952ba7f163c4a11628f55a4df523b3ef8280a48315610fae575050600854848752600982528084882055600160401b811015610f9b5784610ed0826001610ee9940160085561208a565b90919082549060031b91821b91600019901b1916179055565b60085460001991828201918211610f8857600990868952818152610f10868a20549361208a565b90549060031b1c610f2481610ed08661208a565b8952528387205583865285838120556008548015610f7557810190610f488261208a565b909182549160031b1b19169055600855610f60578380f35b51637e27328960e01b81529182015260249150fd5b634e487b7160e01b875260318652602487fd5b634e487b7160e01b885260118752602488fd5b634e487b7160e01b875260418652602487fd5b610fb9575b50610ee9565b610fc281611b94565b85885260078352848820549188526006835284882091818103610ffc575b5085885260078352878581205587528152858381205538610fb3565b81895282845285892054818a5280878b20558952600784528589205538610fe0565b600086815260046020526040902080546001600160a01b0319169055818852600383528488208054600019019055610e5a565b825162461bcd60e51b8152808601839052602d60248201527f506f45503a20536f756c2d626f756e6420746f6b656e732063616e6e6f74206260448201526c19481d1c985b9cd9995c9c9959609a1b6064820152608490fd5b506001610e3d565b825162461bcd60e51b8152808601839052601f60248201527f506f45503a204f6e6c7920746f6b656e206f776e65722063616e206275726e006044820152606490fd5b5091903461028f5761110636611ab0565b91835193602085019085821067ffffffffffffffff8311176111315761028c96975052858452611f2c565b634e487b7160e01b875260418852602487fd5b503461024857826003193601126102485761115d611b68565b600c549060ff82161561119f575060ff1916600c55513381527f5db9ee0a495bf2e6ff9c91a7834c1ba4fdd244a5e8aa4e537bd38aeae4b073aa90602090a180f35b8251638dfc202b60e01b8152fd5b50346102485761012036600319011261024857604491368311610cce573660c411610cce57610104913683116116de5782359260029081600b54146116ce5781600b556111f8612107565b848752602095600d875260ff858920541661168d57845187810181811067ffffffffffffffff82111761167a57865286815285516343753b4d60e01b815292868680860137828a8582015b89888310611666579250505060c480860137830189905b896001831061165257506001600160a01b03949250899150829050610124817f000000000000000000000000000000000000000000000000000000000000000087165afa90811561164857899161160e575b50156115d45733885282875281858920541661158557858852600d8752848820805460ff19166001179055331561156e57338852828752818589205416158015611567575b15611510575033875281865283872054168015801592836114d1575b33808a5260038952868a208054600101905590885285892080546001600160a01b0319168217905580837fddf252ad1be2c89b69c2b068fc378daa952ba7f163c4a11628f55a4df523b3ef8b80a41561146557600854338852600987528085892055600160401b8110156114525761138e8160016113a6930160085561208a565b339082549060031b91821b91600019901b1916179055565b3303611406575b6113f15750338452600e8352606481852055519081527f39c7a0be2574396927e6ea79689359d510f93baabccddecb840da959ef63896533923392a36001600b5580f35b8460249251916339e3563760e11b8352820152fd5b61140f33611b94565b600019810190811161143f57338752600686528387208188528652338488205533875260078652838720556113ad565b634e487b7160e01b875260118352602487fd5b634e487b7160e01b885260418452602488fd5b3381146113a65761147581611b94565b33885260078752848820549082895260068852858920918181036114af575b503389526007885288868120558852865286848120556113a6565b818a52828952868a2054818b5280888c20558a5260078952868a205538611494565b6114f933600052600460205260406000206bffffffffffffffffffffffff60a01b8154169055565b82895260038852858920805460001901905561130d565b837f506f45503a20536f756c2d626f756e6420746f6b656e732063616e6e6f7420626084928988519362461bcd60e51b8552840152602d60248401528201526c19481d1c985b9cd9995c9c9959609a1b6064820152fd5b50876112f1565b8451633250574960e11b8152808501899052602490fd5b837f506f45503a20416c7265616479206d696e74656420666f7220746869732061646084928988519362461bcd60e51b85528401526025602484015282015264647265737360d81b6064820152fd5b83752837a2a81d1024b73b30b634b2102d2590383937b7b360511b6064928988519362461bcd60e51b855284015260166024840152820152fd5b90508781813d8311611641575b6116258183611b14565b8101031261163d5751801515810361163d57386112ac565b8880fd5b503d61161b565b86513d8b823e3d90fd5b80600192855181520193019101909161125a565b808281866001953701930191019091611243565b634e487b7160e01b8a526041865260248afd5b837f506f45503a204e756c6c696669657220616c72656164792075736564000000006064928988519362461bcd60e51b8552840152601c6024840152820152fd5b8351633ee5aeb560e01b81528390fd5b8480fd5b5091346105165781600319360112610516576116fc611a7f565b926024359061170a85611b94565b82101561173a57506001600160a01b03909316815260066020908152828220938252928352819020549051908152f35b925163295f44f760e21b81526001600160a01b0390941692840192835260208301525081906040010390fd5b50503461028f57602036600319011261028f5760209181906001600160a01b0361178e611a7f565b1681526010845220549051908152f35b50503461028f578160031936011261028f57602090516103e88152f35b83346105165761028c6117cd36611ab0565b91611c07565b50503461028f578160031936011261028f576020906008549051908152f35b50903461024857806003193601126102485761180c611a7f565b916024356118198161204f565b331515806118bb575b80611892575b61187c576001600160a01b039485169482918691167f8c5be1e5ebec7d5bd14f71427d1e84f3dd0314c0f7b2291e5b200ac8c7c3b9258880a48452602052822080546001600160a01b031916909117905580f35b835163a9fbf51f60e01b81523381850152602490fd5b506001600160a01b03811686526005602090815284872033885290528386205460ff1615611828565b506001600160a01b038116331415611822565b5034610248576020366003190112610248579182602093356118ef8161204f565b50825283528190205490516001600160a01b039091168152f35b50503461028f578160031936011261028f5780519082805461192a81611bcd565b808552916001918083169081156107145750600114611955575050506106a682610452940383611b14565b80809650527f290decd9548b62a8d60345a988386fc84ba6bc95484008f6362f93160ef3e5635b828610611999575050506106a68260206104529582010194610694565b8054602087870181019190915290950194810161197c565b92505034610248576020366003190112610248573563ffffffff60e01b8116809103610248576020925063780e9d6360e01b81149081156119f4575b5015158152f35b6380ac58cd60e01b811491508115611a26575b8115611a15575b50386119ed565b6301ffc9a760e01b14905038611a0e565b635b5e139f60e01b81149150611a07565b60005b838110611a4a5750506000910152565b8181015183820152602001611a3a565b90602091611a7381518092818552858086019101611a37565b601f01601f1916010190565b600435906001600160a01b0382168203611a9557565b600080fd5b602435906001600160a01b0382168203611a9557565b6060906003190112611a95576001600160a01b03906004358281168103611a9557916024359081168103611a95579060443590565b6040906003190112611a95576004356001600160a01b0381168103611a9557906024358015158103611a955790565b90601f8019910116810190811067ffffffffffffffff821117611b3657604052565b634e487b7160e01b600052604160045260246000fd5b67ffffffffffffffff8111611b3657601f01601f191660200190565b600a546001600160a01b03163303611b7c57565b60405163118cdaa760e01b8152336004820152602490fd5b6001600160a01b03168015611bb457600052600360205260406000205490565b6040516322718ad960e21b815260006004820152602490fd5b90600182811c92168015611bfd575b6020831014611be757565b634e487b7160e01b600052602260045260246000fd5b91607f1691611bdc565b6001600160a01b0382811693918415611f135760009483865260209560028752604096848883205416158015611f0c575b15611eb357858252600281528488832054169633151580611e25575b5087158015611df2575b84845260038352898420805460010190558784526002835289842080546001600160a01b0319168617905587858a7fddf252ad1be2c89b69c2b068fc378daa952ba7f163c4a11628f55a4df523b3ef8780a415611d865760085487845260098352808a852055600160401b811015611d725787610ed0826001611ce4940160085561208a565b838803611d20575b505050501692838303611cff5750505050565b6064945051926364283d7b60e01b8452600484015260248301526044820152fd5b611d2990611b94565b600019810193908411611d5e5782916007918a9452600681528383208584528152878484205587835252205538808080611cec565b634e487b7160e01b83526011600452602483fd5b634e487b7160e01b84526041600452602484fd5b878414611ce457611d9688611b94565b878452600783528984205490898552600684528a852091818103611dd0575b5088855260078452848b812055845282528289812055611ce4565b8186528285528b862054818752808d8820558652600785528b86205538611db5565b600088815260046020526040902080546001600160a01b0319169055888452600383528984208054600019019055611c5e565b80611e72575b15611e365738611c54565b888789611e53576024915190637e27328960e01b82526004820152fd5b905163177e802f60e01b81523360048201526024810191909152604490fd5b503388148015611e97575b80611e2b57508683526004825233868a8520541614611e2b565b5087835260058252888320338452825260ff8984205416611e7d565b60849088519062461bcd60e51b82526004820152602d60248201527f506f45503a20536f756c2d626f756e6420746f6b656e732063616e6e6f74206260448201526c19481d1c985b9cd9995c9c9959609a1b6064820152fd5b5081611c38565b604051633250574960e11b815260006004820152602490fd5b9190611f39828285611c07565b803b611f46575b50505050565b611f8860018060a01b0380921694604051938493630a85bd0160e11b968786523360048701521660248501526044840152608060648401526084830190611a5a565b03906020816000938185885af190829082612007575b5050611fd65782611fad6120d7565b8051919082611fcf57604051633250574960e11b815260048101839052602490fd5b6020915001fd5b6001600160e01b03191603611fef575038808080611f40565b60249060405190633250574960e11b82526004820152fd5b909192506020813d8211612047575b8161202360209383611b14565b8101031261028f5751906001600160e01b0319821682036105165750903880611f9e565b3d9150612016565b6000818152600260205260409020546001600160a01b0316908115612072575090565b60249060405190637e27328960e01b82526004820152fd5b6008548110156120c15760086000527ff3f7a9fe364faab93b216da50a3214154f22a0a2b415b23a84c8169e8b636ee30190600090565b634e487b7160e01b600052603260045260246000fd5b3d15612102573d906120e882611b4c565b916120f66040519384611b14565b82523d6000602084013e565b606090565b60ff600c541661211357565b60405163d93c066560e01b8152600490fd5b9190820180921161213257565b634e487b7160e01b600052601160045260246000fd5b6001600160a01b039081166000818152600260205260408120549192909181161561223457600a54163314158061222b575b61218e575b6040918152600e602052205490565b620186a034106121e65760409133825260106020528282206121b1348254612125565b90558083513481527f66913a289ab32de864a985b54a04ff03bd11c4e31ac45610f1bb96581f50241a60203392a3915061217f565b60405162461bcd60e51b815260206004820152601c60248201527f506f45503a20496e73756666696369656e7420717565727920666565000000006044820152606490fd5b5034151561217a565b50905090565b806000917a184f03e93ff9f4daa797ed6e38ed64bf6a1f01000000000000000080821015612394575b506d04ee2d6d415b85acef810000000080831015612385575b50662386f26fc1000080831015612376575b506305f5e10080831015612367575b5061271080831015612358575b506064821015612348575b600a8092101561233e575b600190816021818601956122d387611b4c565b966122e16040519889611b14565b8088526122f0601f1991611b4c565b01366020890137860101905b612308575b5050505090565b600019019083906f181899199a1a9b1b9c1cb0b131b232b360811b8282061a835304918215612339579190826122fc565b612301565b91600101916122c0565b91906064600291049101916122b5565b600491939204910191386122aa565b6008919392049101913861229d565b6010919392049101913861228e565b6020919392049101913861227c565b60409350810491503861226356fea2646970667358221220c5c308126cc8603f772e3191ea0d24a5dd76fd5f2393ff8cd66c0459615362e764736f6c63430008140033","opcodes":"PUSH1 0xA0 PUSH1 0x40 MSTORE CALLVALUE PUSH3 0x59D JUMPI PUSH3 0x29EC DUP1 CODESIZE SUB DUP1 PUSH3 0x1D DUP2 PUSH3 0x5ED JUMP JUMPDEST SWAP3 DUP4 CODECOPY DUP2 ADD SWAP1 PUSH1 0x40 DUP2 DUP4 SUB SLT PUSH3 0x59D JUMPI DUP1 MLOAD PUSH1 0x1 PUSH1 0x1 PUSH1 0x40 SHL SUB SWAP2 SWAP1 DUP3 DUP2 GT PUSH3 0x59D JUMPI DUP2 ADD SWAP2 PUSH1 0x1F SWAP1 DUP5 DUP3 DUP6 ADD SLT ISZERO PUSH3 0x59D JUMPI DUP4 MLOAD SWAP3 DUP2 DUP5 GT PUSH3 0x5B7 JUMPI PUSH1 0x20 SWAP4 PUSH1 0x1F NOT SWAP6 PUSH3 0x76 DUP7 DUP9 DUP8 DUP6 ADD AND ADD PUSH3 0x5ED JUMP JUMPDEST SWAP8 DUP3 DUP10 MSTORE DUP7 DUP4 DUP4 ADD ADD GT PUSH3 0x59D JUMPI SWAP1 DUP6 SWAP3 SWAP2 PUSH1 0x0 JUMPDEST DUP3 DUP2 LT PUSH3 0x5A2 JUMPI POP POP PUSH1 0x0 SWAP1 DUP9 ADD DUP4 ADD MSTORE ADD MLOAD PUSH1 0x1 PUSH1 0x1 PUSH1 0xA0 SHL SUB SWAP5 DUP6 DUP3 AND SWAP4 SWAP2 DUP5 SWAP1 SUB PUSH3 0x59D JUMPI PUSH3 0xC0 PUSH3 0x5CD JUMP JUMPDEST SWAP6 PUSH1 0x18 DUP8 MSTORE PUSH32 0x50726F6F664F664578697374656E636550617373706F72740000000000000000 DUP7 DUP9 ADD MSTORE PUSH3 0xF4 PUSH3 0x5CD JUMP JUMPDEST SWAP1 PUSH1 0x4 SWAP2 DUP3 DUP2 MSTORE PUSH4 0x506F455 PUSH1 0xE4 SHL DUP9 DUP3 ADD MSTORE DUP9 MLOAD DUP7 DUP2 GT PUSH3 0x496 JUMPI PUSH1 0x0 SLOAD SWAP10 PUSH1 0x1 SWAP11 DUP12 DUP2 DUP2 SHR SWAP2 AND DUP1 ISZERO PUSH3 0x592 JUMPI JUMPDEST DUP12 DUP3 LT EQ PUSH3 0x57D JUMPI SWAP1 DUP2 DUP9 DUP5 SWAP4 GT PUSH3 0x527 JUMPI JUMPDEST POP DUP11 SWAP1 DUP9 DUP4 GT PUSH1 0x1 EQ PUSH3 0x4B7 JUMPI PUSH1 0x0 SWAP3 PUSH3 0x4AB JUMPI JUMPDEST POP POP PUSH1 0x0 NOT PUSH1 0x3 DUP4 SWAP1 SHL SHR NOT AND SWAP1 DUP11 SHL OR PUSH1 0x0 SSTORE JUMPDEST DUP1 MLOAD SWAP1 DUP7 DUP3 GT PUSH3 0x496 JUMPI DUP10 SLOAD DUP11 DUP2 DUP2 SHR SWAP2 AND DUP1 ISZERO PUSH3 0x48B JUMPI JUMPDEST DUP11 DUP3 LT EQ PUSH3 0x476 JUMPI SWAP1 DUP2 DUP8 DUP5 SWAP4 GT PUSH3 0x420 JUMPI JUMPDEST POP DUP10 SWAP1 DUP8 DUP4 GT PUSH1 0x1 EQ PUSH3 0x3BC JUMPI PUSH1 0x0 SWAP3 PUSH3 0x3B0 JUMPI JUMPDEST POP POP PUSH1 0x0 NOT PUSH1 0x3 DUP4 SWAP1 SHL SHR NOT AND SWAP1 DUP10 SHL OR DUP9 SSTORE JUMPDEST CALLER ISZERO PUSH3 0x398 JUMPI PUSH1 0xA DUP1 SLOAD CALLER PUSH1 0x1 PUSH1 0x1 PUSH1 0xA0 SHL SUB NOT DUP3 AND DUP2 OR SWAP1 SWAP3 SSTORE SWAP1 SWAP2 AND PUSH32 0x8BE0079C531659141344CD1FD0A4F28419497F9722A3DAAFE3B4186F6B6457E0 PUSH1 0x0 DUP1 LOG3 DUP7 PUSH1 0xB SSTORE DUP8 MLOAD SWAP4 DUP5 GT PUSH3 0x383 JUMPI PUSH1 0x11 SLOAD SWAP1 DUP8 DUP3 DUP2 SHR SWAP3 AND DUP1 ISZERO PUSH3 0x378 JUMPI JUMPDEST DUP8 DUP4 LT EQ PUSH3 0x363 JUMPI POP DUP3 DUP2 GT PUSH3 0x317 JUMPI JUMPDEST POP DUP5 SWAP2 DUP4 GT PUSH1 0x1 EQ PUSH3 0x2AE JUMPI POP DUP2 SWAP1 PUSH1 0xF SWAP6 SWAP7 PUSH1 0x0 SWAP3 PUSH3 0x2A2 JUMPI JUMPDEST POP POP PUSH1 0x0 NOT PUSH1 0x3 DUP4 SWAP1 SHL SHR NOT AND SWAP1 DUP6 SHL OR PUSH1 0x11 SSTORE JUMPDEST PUSH1 0x80 MSTORE CALLER PUSH1 0x0 MSTORE MSTORE PUSH1 0x40 PUSH1 0x0 KECCAK256 SWAP1 PUSH1 0xFF NOT DUP3 SLOAD AND OR SWAP1 SSTORE PUSH1 0x40 MLOAD PUSH2 0x23D8 SWAP1 DUP2 PUSH3 0x614 DUP3 CODECOPY PUSH1 0x80 MLOAD DUP2 DUP2 DUP2 PUSH2 0x2F6 ADD MSTORE PUSH2 0x127B ADD MSTORE RETURN JUMPDEST ADD MLOAD SWAP1 POP CODESIZE DUP1 PUSH3 0x256 JUMP JUMPDEST DUP3 AND SWAP6 PUSH1 0x11 PUSH1 0x0 MSTORE DUP5 PUSH1 0x0 KECCAK256 SWAP7 PUSH1 0x0 JUMPDEST DUP2 DUP2 LT PUSH3 0x301 JUMPI POP SWAP2 DUP7 SWAP8 SWAP2 DUP5 PUSH1 0xF SWAP9 SWAP6 SWAP5 LT PUSH3 0x2E7 JUMPI JUMPDEST POP POP POP DUP2 SHL ADD PUSH1 0x11 SSTORE PUSH3 0x26B JUMP JUMPDEST ADD MLOAD PUSH1 0x0 NOT PUSH1 0xF8 DUP5 PUSH1 0x3 SHL AND SHR NOT AND SWAP1 SSTORE CODESIZE DUP1 DUP1 PUSH3 0x2D8 JUMP JUMPDEST DUP4 DUP4 ADD MLOAD DUP10 SSTORE SWAP8 DUP8 ADD SWAP8 SWAP3 DUP7 ADD SWAP3 DUP7 ADD PUSH3 0x2BE JUMP JUMPDEST PUSH1 0x11 PUSH1 0x0 MSTORE DUP6 PUSH1 0x0 KECCAK256 DUP4 DUP1 DUP7 ADD PUSH1 0x5 SHR DUP3 ADD SWAP3 DUP9 DUP8 LT PUSH3 0x359 JUMPI JUMPDEST ADD PUSH1 0x5 SHR ADD SWAP1 DUP8 SWAP1 JUMPDEST DUP3 DUP2 LT PUSH3 0x34C JUMPI POP POP PUSH3 0x239 JUMP JUMPDEST PUSH1 0x0 DUP2 SSTORE ADD DUP8 SWAP1 PUSH3 0x33C JUMP JUMPDEST SWAP3 POP DUP2 SWAP3 PUSH3 0x333 JUMP JUMPDEST PUSH1 0x22 SWAP1 PUSH4 0x4E487B71 PUSH1 0xE0 SHL PUSH1 0x0 MSTORE MSTORE PUSH1 0x24 PUSH1 0x0 REVERT JUMPDEST SWAP2 PUSH1 0x7F AND SWAP2 PUSH3 0x226 JUMP JUMPDEST PUSH1 0x41 SWAP1 PUSH4 0x4E487B71 PUSH1 0xE0 SHL PUSH1 0x0 MSTORE MSTORE PUSH1 0x24 PUSH1 0x0 REVERT JUMPDEST PUSH1 0x40 MLOAD PUSH4 0x1E4FBDF7 PUSH1 0xE0 SHL DUP2 MSTORE PUSH1 0x0 DUP2 DUP5 ADD MSTORE PUSH1 0x24 SWAP1 REVERT JUMPDEST ADD MLOAD SWAP1 POP CODESIZE DUP1 PUSH3 0x1AE JUMP JUMPDEST SWAP1 DUP7 DUP13 SWAP5 AND SWAP2 DUP5 PUSH1 0x0 MSTORE DUP12 PUSH1 0x0 KECCAK256 SWAP3 PUSH1 0x0 JUMPDEST DUP14 DUP3 DUP3 LT PUSH3 0x409 JUMPI POP POP DUP5 GT PUSH3 0x3EF JUMPI JUMPDEST POP POP POP DUP2 SHL ADD DUP9 SSTORE PUSH3 0x1C2 JUMP JUMPDEST ADD MLOAD PUSH1 0x0 NOT PUSH1 0xF8 DUP5 PUSH1 0x3 SHL AND SHR NOT AND SWAP1 SSTORE CODESIZE DUP1 DUP1 PUSH3 0x3E1 JUMP JUMPDEST DUP4 DUP6 ADD MLOAD DUP7 SSTORE DUP16 SWAP8 SWAP1 SWAP6 ADD SWAP5 SWAP4 DUP5 ADD SWAP4 ADD PUSH3 0x3CE JUMP JUMPDEST SWAP1 SWAP2 POP DUP11 PUSH1 0x0 MSTORE DUP10 PUSH1 0x0 KECCAK256 DUP8 DUP1 DUP6 ADD PUSH1 0x5 SHR DUP3 ADD SWAP3 DUP13 DUP7 LT PUSH3 0x46C JUMPI JUMPDEST SWAP2 DUP14 SWAP2 DUP7 SWAP6 SWAP5 SWAP4 ADD PUSH1 0x5 SHR ADD SWAP2 JUMPDEST DUP3 DUP2 LT PUSH3 0x45C JUMPI POP POP PUSH3 0x197 JUMP JUMPDEST PUSH1 0x0 DUP2 SSTORE DUP6 SWAP5 POP DUP14 SWAP2 ADD PUSH3 0x44C JUMP JUMPDEST SWAP3 POP DUP2 SWAP3 PUSH3 0x43E JUMP JUMPDEST PUSH1 0x22 DUP6 PUSH4 0x4E487B71 PUSH1 0xE0 SHL PUSH1 0x0 MSTORE MSTORE PUSH1 0x24 PUSH1 0x0 REVERT JUMPDEST SWAP1 PUSH1 0x7F AND SWAP1 PUSH3 0x182 JUMP JUMPDEST PUSH1 0x41 DUP5 PUSH4 0x4E487B71 PUSH1 0xE0 SHL PUSH1 0x0 MSTORE MSTORE PUSH1 0x24 PUSH1 0x0 REVERT JUMPDEST ADD MLOAD SWAP1 POP CODESIZE DUP1 PUSH3 0x152 JUMP JUMPDEST SWAP1 DUP8 DUP14 SWAP5 AND SWAP2 PUSH1 0x0 DUP1 MSTORE DUP13 PUSH1 0x0 KECCAK256 SWAP3 DUP14 PUSH1 0x0 SWAP1 JUMPDEST DUP3 DUP3 LT PUSH3 0x506 JUMPI POP POP DUP5 GT PUSH3 0x4EC JUMPI JUMPDEST POP POP POP DUP2 SHL ADD PUSH1 0x0 SSTORE PUSH3 0x167 JUMP JUMPDEST ADD MLOAD PUSH1 0x0 NOT PUSH1 0xF8 DUP5 PUSH1 0x3 SHL AND SHR NOT AND SWAP1 SSTORE CODESIZE DUP1 DUP1 PUSH3 0x4DD JUMP JUMPDEST SWAP2 SWAP3 SWAP4 SWAP6 SWAP7 DUP3 SWAP2 SWAP6 DUP8 DUP7 ADD MLOAD DUP2 SSTORE ADD SWAP6 ADD SWAP4 ADD SWAP1 DUP15 SWAP6 SWAP5 SWAP4 SWAP3 SWAP2 DUP15 PUSH3 0x4CB JUMP JUMPDEST SWAP1 SWAP2 POP PUSH1 0x0 DUP1 MSTORE DUP11 PUSH1 0x0 KECCAK256 DUP9 DUP1 DUP6 ADD PUSH1 0x5 SHR DUP3 ADD SWAP3 DUP14 DUP7 LT PUSH3 0x573 JUMPI JUMPDEST SWAP2 DUP15 SWAP2 DUP7 SWAP6 SWAP5 SWAP4 ADD PUSH1 0x5 SHR ADD SWAP2 JUMPDEST DUP3 DUP2 LT PUSH3 0x563 JUMPI POP POP PUSH3 0x13B JUMP JUMPDEST PUSH1 0x0 DUP2 SSTORE DUP6 SWAP5 POP DUP15 SWAP2 ADD PUSH3 0x553 JUMP JUMPDEST SWAP3 POP DUP2 SWAP3 PUSH3 0x545 JUMP JUMPDEST PUSH1 0x22 DUP7 PUSH4 0x4E487B71 PUSH1 0xE0 SHL PUSH1 0x0 MSTORE MSTORE PUSH1 0x24 PUSH1 0x0 REVERT JUMPDEST SWAP1 PUSH1 0x7F AND SWAP1 PUSH3 0x126 JUMP JUMPDEST PUSH1 0x0 DUP1 REVERT JUMPDEST DUP2 DUP2 ADD DUP6 ADD MLOAD DUP11 DUP3 ADD DUP7 ADD MSTORE DUP8 SWAP5 ADD PUSH3 0x8C JUMP JUMPDEST PUSH4 0x4E487B71 PUSH1 0xE0 SHL PUSH1 0x0 MSTORE PUSH1 0x41 PUSH1 0x4 MSTORE PUSH1 0x24 PUSH1 0x0 REVERT JUMPDEST PUSH1 0x40 DUP1 MLOAD SWAP2 SWAP1 DUP3 ADD PUSH1 0x1 PUSH1 0x1 PUSH1 0x40 SHL SUB DUP2 GT DUP4 DUP3 LT OR PUSH3 0x5B7 JUMPI PUSH1 0x40 MSTORE JUMP JUMPDEST PUSH1 0x40 MLOAD SWAP2 SWAP1 PUSH1 0x1F ADD PUSH1 0x1F NOT AND DUP3 ADD PUSH1 0x1 PUSH1 0x1 PUSH1 0x40 SHL SUB DUP2 GT DUP4 DUP3 LT OR PUSH3 0x5B7 JUMPI PUSH1 0x40 MSTORE JUMP INVALID PUSH1 0x80 PUSH1 0x40 DUP2 DUP2 MSTORE PUSH1 0x4 DUP1 CALLDATASIZE LT ISZERO PUSH2 0x15 JUMPI PUSH1 0x0 DUP1 REVERT JUMPDEST PUSH1 0x0 SWAP3 DUP4 CALLDATALOAD PUSH1 0xE0 SHR SWAP1 DUP2 PUSH4 0x1FFC9A7 EQ PUSH2 0x19B1 JUMPI POP DUP1 PUSH4 0x6FDDE03 EQ PUSH2 0x1909 JUMPI DUP1 PUSH4 0x81812FC EQ PUSH2 0x18CE JUMPI DUP1 PUSH4 0x95EA7B3 EQ PUSH2 0x17F2 JUMPI DUP1 PUSH4 0x18160DDD EQ PUSH2 0x17D3 JUMPI DUP1 PUSH4 0x23B872DD EQ PUSH2 0x17BB JUMPI DUP1 PUSH4 0x27FF6223 EQ PUSH2 0x179E JUMPI DUP1 PUSH4 0x297F96D6 EQ PUSH2 0x1766 JUMPI DUP1 PUSH4 0x2F745C59 EQ PUSH2 0x16E2 JUMPI DUP1 PUSH4 0x30040DA5 EQ PUSH2 0x11AD JUMPI DUP1 PUSH4 0x3F4BA83A EQ PUSH2 0x1144 JUMPI DUP1 PUSH4 0x42842E0E EQ PUSH2 0x10F5 JUMPI DUP1 PUSH4 0x42966C68 EQ PUSH2 0xDF5 JUMPI DUP1 PUSH4 0x476343EE EQ PUSH2 0xD26 JUMPI DUP1 PUSH4 0x4F6CCCE7 EQ PUSH2 0xCD2 JUMPI DUP1 PUSH4 0x55F804B3 EQ PUSH2 0xB46 JUMPI DUP1 PUSH4 0x5C975ABB EQ PUSH2 0xB22 JUMPI DUP1 PUSH4 0x5D514423 EQ PUSH2 0xAD2 JUMPI DUP1 PUSH4 0x5E09EEA1 EQ PUSH2 0xAB1 JUMPI DUP1 PUSH4 0x6352211E EQ PUSH2 0xA80 JUMPI DUP1 PUSH4 0x70A08231 EQ PUSH2 0xA53 JUMPI DUP1 PUSH4 0x715018A6 EQ PUSH2 0x9F6 JUMPI DUP1 PUSH4 0x7F3D7FFA EQ PUSH2 0x81C JUMPI DUP1 PUSH4 0x8456CB59 EQ PUSH2 0x7C1 JUMPI DUP1 PUSH4 0x867951D8 EQ PUSH2 0x783 JUMPI DUP1 PUSH4 0x89A56AA4 EQ PUSH2 0x765 JUMPI DUP1 PUSH4 0x8DA5CB5B EQ PUSH2 0x73C JUMPI DUP1 PUSH4 0x95D89B41 EQ PUSH2 0x659 JUMPI DUP1 PUSH4 0xA22CB465 EQ PUSH2 0x5C6 JUMPI DUP1 PUSH4 0xB88D4FDE EQ PUSH2 0x540 JUMPI DUP1 PUSH4 0xBF4E21D2 EQ PUSH2 0x519 JUMPI DUP1 PUSH4 0xC87B56DD EQ PUSH2 0x351 JUMPI DUP1 PUSH4 0xD21E82AB EQ PUSH2 0x325 JUMPI DUP1 PUSH4 0xD6DF096D EQ PUSH2 0x2E1 JUMPI DUP1 PUSH4 0xE985E9C5 EQ PUSH2 0x293 JUMPI DUP1 PUSH4 0xEC072257 EQ PUSH2 0x24C JUMPI PUSH4 0xF2FDE38B EQ PUSH2 0x1BA JUMPI PUSH1 0x0 DUP1 REVERT JUMPDEST CALLVALUE PUSH2 0x248 JUMPI PUSH1 0x20 CALLDATASIZE PUSH1 0x3 NOT ADD SLT PUSH2 0x248 JUMPI PUSH2 0x1D3 PUSH2 0x1A7F JUMP JUMPDEST SWAP1 PUSH2 0x1DC PUSH2 0x1B68 JUMP JUMPDEST PUSH1 0x1 PUSH1 0x1 PUSH1 0xA0 SHL SUB SWAP2 DUP3 AND SWAP3 DUP4 ISZERO PUSH2 0x232 JUMPI POP POP PUSH1 0xA SLOAD DUP3 PUSH12 0xFFFFFFFFFFFFFFFFFFFFFFFF PUSH1 0xA0 SHL DUP3 AND OR PUSH1 0xA SSTORE AND PUSH32 0x8BE0079C531659141344CD1FD0A4F28419497F9722A3DAAFE3B4186F6B6457E0 DUP4 DUP1 LOG3 DUP1 RETURN JUMPDEST MLOAD PUSH4 0x1E4FBDF7 PUSH1 0xE0 SHL DUP2 MSTORE SWAP1 DUP2 ADD DUP5 SWAP1 MSTORE PUSH1 0x24 SWAP1 REVERT JUMPDEST DUP3 DUP1 REVERT JUMPDEST POP POP CALLVALUE PUSH2 0x28F JUMPI PUSH2 0x28C SWAP1 PUSH2 0x260 CALLDATASIZE PUSH2 0x1AE5 JUMP JUMPDEST SWAP2 SWAP1 PUSH2 0x26A PUSH2 0x1B68 JUMP JUMPDEST PUSH1 0x1 DUP1 PUSH1 0xA0 SHL SUB AND DUP5 MSTORE PUSH1 0xF PUSH1 0x20 MSTORE DUP4 KECCAK256 SWAP1 PUSH1 0xFF DUP1 NOT DUP4 SLOAD AND SWAP2 ISZERO ISZERO AND OR SWAP1 SSTORE JUMP JUMPDEST DUP1 RETURN JUMPDEST POP DUP1 REVERT JUMPDEST POP POP CALLVALUE PUSH2 0x28F JUMPI DUP1 PUSH1 0x3 NOT CALLDATASIZE ADD SLT PUSH2 0x28F JUMPI PUSH1 0xFF DUP2 PUSH1 0x20 SWAP4 PUSH2 0x2B3 PUSH2 0x1A7F JUMP JUMPDEST PUSH2 0x2BB PUSH2 0x1A9A JUMP JUMPDEST PUSH1 0x1 PUSH1 0x1 PUSH1 0xA0 SHL SUB SWAP2 DUP3 AND DUP4 MSTORE PUSH1 0x5 DUP8 MSTORE DUP4 DUP4 KECCAK256 SWAP2 AND DUP3 MSTORE DUP6 MSTORE KECCAK256 SLOAD SWAP2 MLOAD SWAP2 AND ISZERO ISZERO DUP2 MSTORE RETURN JUMPDEST POP POP CALLVALUE PUSH2 0x28F JUMPI DUP2 PUSH1 0x3 NOT CALLDATASIZE ADD SLT PUSH2 0x28F JUMPI MLOAD PUSH32 0x0 PUSH1 0x1 PUSH1 0x1 PUSH1 0xA0 SHL SUB AND DUP2 MSTORE PUSH1 0x20 SWAP1 RETURN JUMPDEST POP CALLVALUE PUSH2 0x248 JUMPI PUSH1 0x20 CALLDATASIZE PUSH1 0x3 NOT ADD SLT PUSH2 0x248 JUMPI DUP2 PUSH1 0x20 SWAP4 PUSH1 0xFF SWAP3 CALLDATALOAD DUP2 MSTORE PUSH1 0xD DUP6 MSTORE KECCAK256 SLOAD AND SWAP1 MLOAD SWAP1 ISZERO ISZERO DUP2 MSTORE RETURN JUMPDEST POP CALLVALUE PUSH2 0x248 JUMPI PUSH1 0x20 SWAP3 DUP4 PUSH1 0x3 NOT CALLDATASIZE ADD SLT PUSH2 0x516 JUMPI DUP2 CALLDATALOAD DUP1 DUP3 MSTORE PUSH1 0x2 DUP6 MSTORE DUP4 DUP3 KECCAK256 SLOAD SWAP1 SWAP3 SWAP1 PUSH1 0x1 PUSH1 0x1 PUSH1 0xA0 SHL SUB AND ISZERO PUSH2 0x4C5 JUMPI POP DUP3 MLOAD SWAP2 DUP2 PUSH1 0x11 SLOAD SWAP3 PUSH2 0x395 DUP5 PUSH2 0x1BCD JUMP JUMPDEST DUP1 DUP7 MSTORE DUP8 DUP7 ADD SWAP5 PUSH1 0x1 SWAP1 DUP2 DUP2 AND SWAP1 DUP2 ISZERO PUSH2 0x4A9 JUMPI POP PUSH1 0x1 EQ PUSH2 0x456 JUMPI JUMPDEST PUSH2 0x3FE DUP10 PUSH2 0x452 DUP11 PUSH2 0x443 PUSH1 0x27 DUP13 DUP13 DUP13 PUSH2 0x3EC PUSH2 0x3E6 DUP8 DUP16 DUP16 DUP8 PUSH2 0x3D7 SWAP2 SUB DUP9 PUSH2 0x1B14 JUMP JUMPDEST DUP5 DUP2 MSTORE PUSH1 0xE DUP13 MSTORE KECCAK256 SLOAD SWAP3 PUSH2 0x223A JUMP JUMPDEST SWAP2 PUSH2 0x223A JUMP JUMPDEST SWAP2 DUP7 MLOAD SWAP10 DUP11 SWAP5 MLOAD DUP1 SWAP3 DUP12 DUP8 ADD SWAP1 PUSH2 0x1A37 JUMP JUMPDEST DUP4 ADD PUSH2 0x412 DUP3 MLOAD DUP1 SWAP4 DUP12 DUP1 DUP6 ADD SWAP2 ADD PUSH2 0x1A37 JUMP JUMPDEST ADD PUSH7 0x3F73636F72653D PUSH1 0xC8 SHL DUP9 DUP3 ADD MSTORE PUSH2 0x434 DUP3 MLOAD DUP1 SWAP4 DUP11 DUP8 DUP6 ADD SWAP2 ADD PUSH2 0x1A37 JUMP JUMPDEST ADD SUB PUSH1 0x7 DUP2 ADD DUP8 MSTORE ADD DUP6 PUSH2 0x1B14 JUMP JUMPDEST MLOAD SWAP3 DUP3 DUP5 SWAP4 DUP5 MSTORE DUP4 ADD SWAP1 PUSH2 0x1A5A JUMP JUMPDEST SUB SWAP1 RETURN JUMPDEST PUSH1 0x11 DUP5 MSTORE DUP4 SWAP3 POP PUSH32 0x31ECC21A745E3968A04E9570E4425BC18FA8019C68028196B546D1669C200C68 JUMPDEST DUP3 DUP5 LT PUSH2 0x496 JUMPI POP POP POP DUP5 ADD DUP7 ADD DUP4 PUSH2 0x443 PUSH2 0x3B2 JUMP JUMPDEST DUP1 SLOAD DUP9 DUP6 ADD DUP12 ADD MSTORE SWAP3 DUP10 ADD SWAP3 DUP2 ADD PUSH2 0x47F JUMP JUMPDEST PUSH1 0xFF NOT AND DUP8 MSTORE POP POP ISZERO ISZERO PUSH1 0x5 SHL DUP6 ADD DUP8 ADD SWAP1 POP DUP4 PUSH2 0x443 PUSH2 0x3B2 JUMP JUMPDEST DUP4 MLOAD PUSH3 0x461BCD PUSH1 0xE5 SHL DUP2 MSTORE SWAP1 DUP2 ADD DUP6 SWAP1 MSTORE PUSH1 0x25 PUSH1 0x24 DUP3 ADD MSTORE PUSH32 0x506F45503A2055524920717565727920666F72206E6F6E6578697374656E7420 PUSH1 0x44 DUP3 ADD MSTORE PUSH5 0x3A37B5B2B7 PUSH1 0xD9 SHL PUSH1 0x64 DUP3 ADD MSTORE PUSH1 0x84 SWAP1 REVERT JUMPDEST DUP1 REVERT JUMPDEST POP CALLVALUE PUSH2 0x248 JUMPI PUSH1 0x20 CALLDATASIZE PUSH1 0x3 NOT ADD SLT PUSH2 0x248 JUMPI PUSH1 0x20 SWAP3 DUP3 SWAP2 CALLDATALOAD DUP2 MSTORE PUSH1 0xE DUP5 MSTORE KECCAK256 SLOAD SWAP1 MLOAD SWAP1 DUP2 MSTORE RETURN JUMPDEST POP SWAP1 CALLVALUE PUSH2 0x248 JUMPI PUSH1 0x80 CALLDATASIZE PUSH1 0x3 NOT ADD SLT PUSH2 0x248 JUMPI PUSH2 0x55B PUSH2 0x1A7F JUMP JUMPDEST PUSH2 0x563 PUSH2 0x1A9A JUMP JUMPDEST DUP5 PUSH1 0x64 CALLDATALOAD SWAP5 PUSH8 0xFFFFFFFFFFFFFFFF DUP7 GT PUSH2 0x28F JUMPI CALLDATASIZE PUSH1 0x23 DUP8 ADD SLT ISZERO PUSH2 0x28F JUMPI DUP6 ADD CALLDATALOAD SWAP5 PUSH2 0x59B PUSH2 0x592 DUP8 PUSH2 0x1B4C JUMP JUMPDEST SWAP6 MLOAD SWAP6 DUP7 PUSH2 0x1B14 JUMP JUMPDEST DUP6 DUP6 MSTORE CALLDATASIZE PUSH1 0x24 DUP8 DUP4 ADD ADD GT PUSH2 0x28F JUMPI DUP6 PUSH2 0x28C SWAP7 PUSH1 0x24 PUSH1 0x20 SWAP4 ADD DUP4 DUP9 ADD CALLDATACOPY DUP6 ADD ADD MSTORE PUSH1 0x44 CALLDATALOAD SWAP2 PUSH2 0x1F2C JUMP JUMPDEST POP SWAP1 CALLVALUE PUSH2 0x248 JUMPI PUSH2 0x5D6 CALLDATASIZE PUSH2 0x1AE5 JUMP JUMPDEST PUSH1 0x1 PUSH1 0x1 PUSH1 0xA0 SHL SUB SWAP1 SWAP2 AND SWAP3 SWAP1 SWAP2 SWAP1 DUP4 ISZERO PUSH2 0x644 JUMPI POP CALLER DUP5 MSTORE PUSH1 0x5 PUSH1 0x20 MSTORE DUP1 DUP5 KECCAK256 DUP4 DUP6 MSTORE PUSH1 0x20 MSTORE PUSH2 0x615 DUP3 DUP3 DUP7 KECCAK256 SWAP1 PUSH1 0xFF DUP1 NOT DUP4 SLOAD AND SWAP2 ISZERO ISZERO AND OR SWAP1 SSTORE JUMP JUMPDEST MLOAD SWAP1 ISZERO ISZERO DUP2 MSTORE PUSH32 0x17307EAB39AB6107E8899845AD3D59BD9653F200F220920489CA2B5937696C31 PUSH1 0x20 CALLER SWAP3 LOG3 DUP1 RETURN JUMPDEST DUP4 PUSH1 0x24 SWAP3 MLOAD SWAP2 PUSH4 0xB611743 PUSH1 0xE3 SHL DUP4 MSTORE DUP3 ADD MSTORE REVERT JUMPDEST POP POP CALLVALUE PUSH2 0x28F JUMPI DUP2 PUSH1 0x3 NOT CALLDATASIZE ADD SLT PUSH2 0x28F JUMPI DUP1 MLOAD SWAP1 DUP3 PUSH1 0x1 DUP1 SLOAD SWAP2 PUSH2 0x67D DUP4 PUSH2 0x1BCD JUMP JUMPDEST DUP1 DUP7 MSTORE SWAP3 DUP3 DUP2 AND SWAP1 DUP2 ISZERO PUSH2 0x714 JUMPI POP PUSH1 0x1 EQ PUSH2 0x6B8 JUMPI JUMPDEST POP POP POP PUSH2 0x6A6 DUP3 PUSH2 0x452 SWAP5 SUB DUP4 PUSH2 0x1B14 JUMP JUMPDEST MLOAD SWAP2 DUP3 SWAP2 PUSH1 0x20 DUP4 MSTORE PUSH1 0x20 DUP4 ADD SWAP1 PUSH2 0x1A5A JUMP JUMPDEST SWAP5 POP DUP1 DUP6 MSTORE PUSH32 0xB10E2D527612073B26EECDFD717E6A320CF44B4AFAC2B0732D9FCBE2B7FA0CF6 JUMPDEST DUP3 DUP7 LT PUSH2 0x6FC JUMPI POP POP POP PUSH2 0x6A6 DUP3 PUSH1 0x20 PUSH2 0x452 SWAP6 DUP3 ADD ADD SWAP5 PUSH2 0x694 JUMP JUMPDEST DUP1 SLOAD PUSH1 0x20 DUP8 DUP8 ADD DUP2 ADD SWAP2 SWAP1 SWAP2 MSTORE SWAP1 SWAP6 ADD SWAP5 DUP2 ADD PUSH2 0x6DF JUMP JUMPDEST PUSH2 0x452 SWAP8 POP DUP7 SWAP4 POP PUSH1 0x20 SWAP3 POP PUSH2 0x6A6 SWAP5 SWAP2 POP PUSH1 0xFF NOT AND DUP3 DUP5 ADD MSTORE ISZERO ISZERO PUSH1 0x5 SHL DUP3 ADD ADD SWAP5 PUSH2 0x694 JUMP JUMPDEST POP POP CALLVALUE PUSH2 0x28F JUMPI DUP2 PUSH1 0x3 NOT CALLDATASIZE ADD SLT PUSH2 0x28F JUMPI PUSH1 0xA SLOAD SWAP1 MLOAD PUSH1 0x1 PUSH1 0x1 PUSH1 0xA0 SHL SUB SWAP1 SWAP2 AND DUP2 MSTORE PUSH1 0x20 SWAP1 RETURN JUMPDEST POP POP CALLVALUE PUSH2 0x28F JUMPI DUP2 PUSH1 0x3 NOT CALLDATASIZE ADD SLT PUSH2 0x28F JUMPI PUSH1 0x20 SWAP1 MLOAD PUSH3 0x186A0 DUP2 MSTORE RETURN JUMPDEST POP POP CALLVALUE PUSH2 0x28F JUMPI PUSH1 0x20 CALLDATASIZE PUSH1 0x3 NOT ADD SLT PUSH2 0x28F JUMPI PUSH1 0x20 SWAP2 PUSH1 0xFF SWAP1 DUP3 SWAP1 PUSH1 0x1 PUSH1 0x1 PUSH1 0xA0 SHL SUB PUSH2 0x7AE PUSH2 0x1A7F JUMP JUMPDEST AND DUP2 MSTORE PUSH1 0xF DUP6 MSTORE KECCAK256 SLOAD AND SWAP1 MLOAD SWAP1 ISZERO ISZERO DUP2 MSTORE RETURN JUMPDEST POP POP CALLVALUE PUSH2 0x28F JUMPI DUP2 PUSH1 0x3 NOT CALLDATASIZE ADD SLT PUSH2 0x28F JUMPI PUSH1 0x20 PUSH32 0x62E78CEA01BEE320CD4E420270B5EA74000D11B0C9F74754EBDBFC544B05A258 SWAP2 PUSH2 0x7FF PUSH2 0x1B68 JUMP JUMPDEST PUSH2 0x807 PUSH2 0x2107 JUMP JUMPDEST PUSH1 0x1 PUSH1 0xFF NOT PUSH1 0xC SLOAD AND OR PUSH1 0xC SSTORE MLOAD CALLER DUP2 MSTORE LOG1 DUP1 RETURN JUMPDEST POP SWAP2 SWAP1 CALLVALUE PUSH2 0x28F JUMPI DUP1 PUSH1 0x3 NOT CALLDATASIZE ADD SLT PUSH2 0x28F JUMPI PUSH2 0x837 PUSH2 0x1A7F JUMP JUMPDEST SWAP1 PUSH1 0x24 CALLDATALOAD SWAP4 CALLER DUP5 MSTORE PUSH1 0x20 PUSH1 0xF DUP2 MSTORE PUSH1 0xFF DUP4 DUP7 KECCAK256 SLOAD AND ISZERO PUSH2 0x9A8 JUMPI PUSH1 0x1 PUSH1 0x1 PUSH1 0xA0 SHL SUB SWAP4 DUP5 AND DUP1 DUP7 MSTORE PUSH1 0x2 DUP3 MSTORE DUP4 DUP7 KECCAK256 SLOAD SWAP1 SWAP5 AND ISZERO PUSH2 0x968 JUMPI DUP4 DUP6 MSTORE PUSH1 0xE DUP2 MSTORE DUP3 DUP6 KECCAK256 SLOAD SWAP2 DUP6 DUP8 SLT PUSH2 0x8DE JUMPI POP PUSH2 0x8B0 PUSH32 0x91878448EF87C3DB4AEB83E60E7DEB1240ECAE3FD04975EC93547398514CB4ED SWAP5 SWAP6 SWAP7 DUP4 PUSH2 0x2125 JUMP JUMPDEST SWAP1 PUSH2 0x3E8 DUP1 DUP4 GT PUSH2 0x8D6 JUMPI JUMPDEST POP JUMPDEST DUP6 DUP8 MSTORE PUSH1 0xE DUP2 MSTORE DUP2 DUP5 DUP9 KECCAK256 SSTORE DUP4 MLOAD SWAP3 DUP4 MSTORE DUP3 ADD MSTORE LOG2 DUP1 RETURN JUMPDEST SWAP2 POP CODESIZE PUSH2 0x8BC JUMP JUMPDEST SWAP6 PUSH1 0x1 PUSH1 0xFF SHL DUP2 EQ PUSH2 0x955 JUMPI DUP1 DUP7 SUB DUP4 GT PUSH2 0x921 JUMPI POP PUSH32 0x91878448EF87C3DB4AEB83E60E7DEB1240ECAE3FD04975EC93547398514CB4ED SWAP4 SWAP5 SWAP6 POP PUSH1 0x64 SWAP1 PUSH2 0x8BE JUMP JUMPDEST DUP3 ADD DUP3 DUP2 GT PUSH2 0x955 JUMPI PUSH32 0x91878448EF87C3DB4AEB83E60E7DEB1240ECAE3FD04975EC93547398514CB4ED SWAP5 SWAP6 SWAP7 POP SWAP1 PUSH2 0x8BE JUMP JUMPDEST PUSH4 0x4E487B71 PUSH1 0xE0 SHL DUP7 MSTORE PUSH1 0x11 DUP8 MSTORE PUSH1 0x24 DUP7 REVERT JUMPDEST PUSH1 0x64 SWAP3 MLOAD SWAP2 PUSH3 0x461BCD PUSH1 0xE5 SHL DUP4 MSTORE DUP3 ADD MSTORE PUSH1 0x1D PUSH1 0x24 DUP3 ADD MSTORE PUSH32 0x506F45503A2050617373706F727420646F6573206E6F74206578697374000000 PUSH1 0x44 DUP3 ADD MSTORE REVERT JUMPDEST PUSH1 0x84 SWAP3 MLOAD SWAP2 PUSH3 0x461BCD PUSH1 0xE5 SHL DUP4 MSTORE DUP3 ADD MSTORE PUSH1 0x25 PUSH1 0x24 DUP3 ADD MSTORE PUSH32 0x506F45503A204E6F7420617574686F72697A656420746F207570646174652073 PUSH1 0x44 DUP3 ADD MSTORE PUSH5 0x636F726573 PUSH1 0xD8 SHL PUSH1 0x64 DUP3 ADD MSTORE REVERT JUMPDEST DUP4 CALLVALUE PUSH2 0x516 JUMPI DUP1 PUSH1 0x3 NOT CALLDATASIZE ADD SLT PUSH2 0x516 JUMPI PUSH2 0xA0F PUSH2 0x1B68 JUMP JUMPDEST PUSH1 0xA DUP1 SLOAD PUSH1 0x1 PUSH1 0x1 PUSH1 0xA0 SHL SUB NOT DUP2 AND SWAP1 SWAP2 SSTORE DUP2 SWAP1 PUSH1 0x1 PUSH1 0x1 PUSH1 0xA0 SHL SUB AND PUSH32 0x8BE0079C531659141344CD1FD0A4F28419497F9722A3DAAFE3B4186F6B6457E0 DUP3 DUP1 LOG3 DUP1 RETURN JUMPDEST POP POP CALLVALUE PUSH2 0x28F JUMPI PUSH1 0x20 CALLDATASIZE PUSH1 0x3 NOT ADD SLT PUSH2 0x28F JUMPI PUSH1 0x20 SWAP1 PUSH2 0xA79 PUSH2 0xA74 PUSH2 0x1A7F JUMP JUMPDEST PUSH2 0x1B94 JUMP JUMPDEST SWAP1 MLOAD SWAP1 DUP2 MSTORE RETURN JUMPDEST POP SWAP2 CALLVALUE PUSH2 0x516 JUMPI PUSH1 0x20 CALLDATASIZE PUSH1 0x3 NOT ADD SLT PUSH2 0x516 JUMPI POP PUSH2 0xAA0 PUSH1 0x20 SWAP3 CALLDATALOAD PUSH2 0x204F JUMP JUMPDEST SWAP1 MLOAD PUSH1 0x1 PUSH1 0x1 PUSH1 0xA0 SHL SUB SWAP1 SWAP2 AND DUP2 MSTORE RETURN JUMPDEST POP POP PUSH1 0x20 CALLDATASIZE PUSH1 0x3 NOT ADD SLT PUSH2 0x28F JUMPI PUSH1 0x20 SWAP1 PUSH2 0xA79 PUSH2 0xACD PUSH2 0x1A7F JUMP JUMPDEST PUSH2 0x2148 JUMP JUMPDEST POP POP CALLVALUE PUSH2 0x28F JUMPI PUSH1 0x20 CALLDATASIZE PUSH1 0x3 NOT ADD SLT PUSH2 0x28F JUMPI PUSH1 0x20 SWAP2 DUP2 SWAP1 PUSH1 0x1 PUSH1 0x1 PUSH1 0xA0 SHL SUB DUP1 PUSH2 0xAFB PUSH2 0x1A7F JUMP JUMPDEST AND DUP3 MSTORE PUSH1 0x2 DUP6 MSTORE DUP3 DUP3 KECCAK256 SLOAD AND ISZERO PUSH2 0xB1A JUMPI PUSH1 0xE DUP5 MSTORE KECCAK256 SLOAD SWAP1 JUMPDEST MLOAD SWAP1 DUP2 MSTORE RETURN JUMPDEST SWAP1 POP SWAP1 PUSH2 0xB14 JUMP JUMPDEST POP POP CALLVALUE PUSH2 0x28F JUMPI DUP2 PUSH1 0x3 NOT CALLDATASIZE ADD SLT PUSH2 0x28F JUMPI PUSH1 0x20 SWAP1 PUSH1 0xFF PUSH1 0xC SLOAD AND SWAP1 MLOAD SWAP1 ISZERO ISZERO DUP2 MSTORE RETURN JUMPDEST POP DUP3 CALLVALUE PUSH2 0x516 JUMPI PUSH1 0x20 SWAP2 DUP3 PUSH1 0x3 NOT CALLDATASIZE ADD SLT PUSH2 0x28F JUMPI DUP1 CALLDATALOAD PUSH8 0xFFFFFFFFFFFFFFFF SWAP2 DUP3 DUP3 GT PUSH2 0xCCE JUMPI CALLDATASIZE PUSH1 0x23 DUP4 ADD SLT ISZERO PUSH2 0xCCE JUMPI DUP2 ADD CALLDATALOAD SWAP2 DUP3 GT PUSH2 0x248 JUMPI PUSH1 0x24 SWAP1 CALLDATASIZE DUP3 DUP5 DUP4 ADD ADD GT PUSH2 0xCCE JUMPI PUSH2 0xB99 PUSH2 0x1B68 JUMP JUMPDEST PUSH2 0xBA4 PUSH1 0x11 SLOAD PUSH2 0x1BCD JUMP JUMPDEST PUSH1 0x1F DUP2 GT PUSH2 0xC70 JUMPI JUMPDEST POP DUP4 SWAP5 PUSH1 0x1F DUP5 GT PUSH1 0x1 EQ PUSH2 0xBED JUMPI POP SWAP4 DUP4 SWAP5 DUP4 SWAP5 SWAP4 PUSH2 0xBE0 JUMPI JUMPDEST POP POP POP DUP2 PUSH1 0x1 SHL SWAP2 PUSH1 0x0 NOT SWAP1 PUSH1 0x3 SHL SHR NOT AND OR PUSH1 0x11 SSTORE DUP1 RETURN JUMPDEST ADD ADD CALLDATALOAD SWAP1 POP DUP4 DUP1 DUP1 PUSH2 0xBC7 JUMP JUMPDEST PUSH1 0x1F NOT DUP5 AND SWAP6 PUSH32 0x31ECC21A745E3968A04E9570E4425BC18FA8019C68028196B546D1669C200C68 SWAP4 SWAP2 DUP7 SWAP1 JUMPDEST DUP9 DUP3 LT PUSH2 0xC56 JUMPI POP POP DUP5 PUSH1 0x1 SWAP7 SWAP8 LT PUSH2 0xC3A JUMPI JUMPDEST POP POP POP POP DUP2 SHL ADD PUSH1 0x11 SSTORE DUP1 RETURN JUMPDEST PUSH1 0x0 NOT PUSH1 0xF8 DUP7 PUSH1 0x3 SHL AND SHR NOT SWAP3 ADD ADD CALLDATALOAD AND SWAP1 SSTORE DUP4 DUP1 DUP1 DUP1 PUSH2 0xC2D JUMP JUMPDEST DUP1 PUSH1 0x1 DUP5 SWAP8 DUP7 DUP4 SWAP6 SWAP7 DUP10 ADD ADD CALLDATALOAD DUP2 SSTORE ADD SWAP7 ADD SWAP3 ADD SWAP1 PUSH2 0xC19 JUMP JUMPDEST PUSH32 0x31ECC21A745E3968A04E9570E4425BC18FA8019C68028196B546D1669C200C68 PUSH1 0x1F DUP6 ADD PUSH1 0x5 SHR DUP2 ADD SWAP2 DUP8 DUP7 LT PUSH2 0xCC4 JUMPI JUMPDEST PUSH1 0x1F ADD PUSH1 0x5 SHR ADD SWAP1 JUMPDEST DUP2 DUP2 LT PUSH2 0xCB9 JUMPI POP PUSH2 0xBAD JUMP JUMPDEST DUP6 DUP2 SSTORE PUSH1 0x1 ADD PUSH2 0xCAC JUMP JUMPDEST SWAP1 SWAP2 POP DUP2 SWAP1 PUSH2 0xCA3 JUMP JUMPDEST DUP4 DUP1 REVERT JUMPDEST POP CALLVALUE PUSH2 0x248 JUMPI PUSH1 0x20 CALLDATASIZE PUSH1 0x3 NOT ADD SLT PUSH2 0x248 JUMPI DUP1 CALLDATALOAD SWAP3 PUSH1 0x8 SLOAD DUP5 LT ISZERO PUSH2 0xD0B JUMPI PUSH1 0x20 DUP4 PUSH2 0xCFD DUP7 PUSH2 0x208A JUMP JUMPDEST SWAP2 SWAP1 SLOAD SWAP1 MLOAD SWAP2 PUSH1 0x3 SHL SHR DUP2 MSTORE RETURN JUMPDEST PUSH1 0x44 SWAP4 SWAP2 SWAP3 MLOAD SWAP3 PUSH4 0x295F44F7 PUSH1 0xE2 SHL DUP5 MSTORE DUP4 ADD MSTORE PUSH1 0x24 DUP3 ADD MSTORE REVERT JUMPDEST POP SWAP1 CALLVALUE PUSH2 0x248 JUMPI DUP3 PUSH1 0x3 NOT CALLDATASIZE ADD SLT PUSH2 0x248 JUMPI PUSH2 0xD40 PUSH2 0x1B68 JUMP JUMPDEST SELFBALANCE DUP1 ISZERO PUSH2 0xDB2 JUMPI PUSH1 0xA SLOAD DUP5 SWAP2 DUP3 SWAP2 DUP3 SWAP2 DUP3 SWAP2 PUSH1 0x1 PUSH1 0x1 PUSH1 0xA0 SHL SUB AND GAS CALL PUSH2 0xD65 PUSH2 0x20D7 JUMP JUMPDEST POP ISZERO PUSH2 0xD6F JUMPI DUP3 DUP1 RETURN JUMPDEST SWAP1 PUSH1 0x20 PUSH1 0x64 SWAP3 MLOAD SWAP2 PUSH3 0x461BCD PUSH1 0xE5 SHL DUP4 MSTORE DUP3 ADD MSTORE PUSH1 0x1B PUSH1 0x24 DUP3 ADD MSTORE PUSH32 0x506F45503A20466565207769746864726177616C206661696C65640000000000 PUSH1 0x44 DUP3 ADD MSTORE REVERT JUMPDEST DUP2 MLOAD PUSH3 0x461BCD PUSH1 0xE5 SHL DUP2 MSTORE PUSH1 0x20 DUP2 DUP6 ADD MSTORE PUSH1 0x19 PUSH1 0x24 DUP3 ADD MSTORE PUSH32 0x506F45503A204E6F206665657320746F20776974686472617700000000000000 PUSH1 0x44 DUP3 ADD MSTORE PUSH1 0x64 SWAP1 REVERT JUMPDEST POP SWAP1 CALLVALUE PUSH2 0x248 JUMPI PUSH1 0x20 SWAP1 DUP2 PUSH1 0x3 NOT CALLDATASIZE ADD SLT PUSH2 0xCCE JUMPI DUP3 CALLDATALOAD SWAP2 PUSH2 0xE16 DUP4 PUSH2 0x204F JUMP JUMPDEST PUSH1 0x1 PUSH1 0x1 PUSH1 0xA0 SHL SUB SWAP1 CALLER SWAP1 DUP3 AND SUB PUSH2 0x10B2 JUMPI DUP4 DUP7 MSTORE PUSH1 0x2 DUP3 MSTORE DUP1 DUP4 DUP8 KECCAK256 SLOAD AND ISZERO DUP1 ISZERO PUSH2 0x10AA JUMPI JUMPDEST ISZERO PUSH2 0x1051 JUMPI DUP4 DUP7 MSTORE PUSH1 0x2 DUP3 MSTORE DUP3 DUP7 KECCAK256 SLOAD AND SWAP1 DUP2 ISZERO SWAP2 DUP3 ISZERO DUP1 PUSH2 0x101E JUMPI JUMPDEST DUP6 DUP9 MSTORE PUSH1 0x2 DUP4 MSTORE DUP5 DUP9 KECCAK256 DUP1 SLOAD PUSH1 0x1 PUSH1 0x1 PUSH1 0xA0 SHL SUB NOT AND SWAP1 SSTORE DUP6 DUP9 DUP4 PUSH32 0xDDF252AD1BE2C89B69C2B068FC378DAA952BA7F163C4A11628F55A4DF523B3EF DUP3 DUP1 LOG4 DUP4 ISZERO PUSH2 0xFAE JUMPI POP POP PUSH1 0x8 SLOAD DUP5 DUP8 MSTORE PUSH1 0x9 DUP3 MSTORE DUP1 DUP5 DUP9 KECCAK256 SSTORE PUSH1 0x1 PUSH1 0x40 SHL DUP2 LT ISZERO PUSH2 0xF9B JUMPI DUP5 PUSH2 0xED0 DUP3 PUSH1 0x1 PUSH2 0xEE9 SWAP5 ADD PUSH1 0x8 SSTORE PUSH2 0x208A JUMP JUMPDEST SWAP1 SWAP2 SWAP1 DUP3 SLOAD SWAP1 PUSH1 0x3 SHL SWAP2 DUP3 SHL SWAP2 PUSH1 0x0 NOT SWAP1 SHL NOT AND OR SWAP1 SSTORE JUMP JUMPDEST PUSH1 0x8 SLOAD PUSH1 0x0 NOT SWAP2 DUP3 DUP3 ADD SWAP2 DUP3 GT PUSH2 0xF88 JUMPI PUSH1 0x9 SWAP1 DUP7 DUP10 MSTORE DUP2 DUP2 MSTORE PUSH2 0xF10 DUP7 DUP11 KECCAK256 SLOAD SWAP4 PUSH2 0x208A JUMP JUMPDEST SWAP1 SLOAD SWAP1 PUSH1 0x3 SHL SHR PUSH2 0xF24 DUP2 PUSH2 0xED0 DUP7 PUSH2 0x208A JUMP JUMPDEST DUP10 MSTORE MSTORE DUP4 DUP8 KECCAK256 SSTORE DUP4 DUP7 MSTORE DUP6 DUP4 DUP2 KECCAK256 SSTORE PUSH1 0x8 SLOAD DUP1 ISZERO PUSH2 0xF75 JUMPI DUP2 ADD SWAP1 PUSH2 0xF48 DUP3 PUSH2 0x208A JUMP JUMPDEST SWAP1 SWAP2 DUP3 SLOAD SWAP2 PUSH1 0x3 SHL SHL NOT AND SWAP1 SSTORE PUSH1 0x8 SSTORE PUSH2 0xF60 JUMPI DUP4 DUP1 RETURN JUMPDEST MLOAD PUSH4 0x7E273289 PUSH1 0xE0 SHL DUP2 MSTORE SWAP2 DUP3 ADD MSTORE PUSH1 0x24 SWAP2 POP REVERT JUMPDEST PUSH4 0x4E487B71 PUSH1 0xE0 SHL DUP8 MSTORE PUSH1 0x31 DUP7 MSTORE PUSH1 0x24 DUP8 REVERT JUMPDEST PUSH4 0x4E487B71 PUSH1 0xE0 SHL DUP9 MSTORE PUSH1 0x11 DUP8 MSTORE PUSH1 0x24 DUP9 REVERT JUMPDEST PUSH4 0x4E487B71 PUSH1 0xE0 SHL DUP8 MSTORE PUSH1 0x41 DUP7 MSTORE PUSH1 0x24 DUP8 REVERT JUMPDEST PUSH2 0xFB9 JUMPI JUMPDEST POP PUSH2 0xEE9 JUMP JUMPDEST PUSH2 0xFC2 DUP2 PUSH2 0x1B94 JUMP JUMPDEST DUP6 DUP9 MSTORE PUSH1 0x7 DUP4 MSTORE DUP5 DUP9 KECCAK256 SLOAD SWAP2 DUP9 MSTORE PUSH1 0x6 DUP4 MSTORE DUP5 DUP9 KECCAK256 SWAP2 DUP2 DUP2 SUB PUSH2 0xFFC JUMPI JUMPDEST POP DUP6 DUP9 MSTORE PUSH1 0x7 DUP4 MSTORE DUP8 DUP6 DUP2 KECCAK256 SSTORE DUP8 MSTORE DUP2 MSTORE DUP6 DUP4 DUP2 KECCAK256 SSTORE CODESIZE PUSH2 0xFB3 JUMP JUMPDEST DUP2 DUP10 MSTORE DUP3 DUP5 MSTORE DUP6 DUP10 KECCAK256 SLOAD DUP2 DUP11 MSTORE DUP1 DUP8 DUP12 KECCAK256 SSTORE DUP10 MSTORE PUSH1 0x7 DUP5 MSTORE DUP6 DUP10 KECCAK256 SSTORE CODESIZE PUSH2 0xFE0 JUMP JUMPDEST PUSH1 0x0 DUP7 DUP2 MSTORE PUSH1 0x4 PUSH1 0x20 MSTORE PUSH1 0x40 SWAP1 KECCAK256 DUP1 SLOAD PUSH1 0x1 PUSH1 0x1 PUSH1 0xA0 SHL SUB NOT AND SWAP1 SSTORE DUP2 DUP9 MSTORE PUSH1 0x3 DUP4 MSTORE DUP5 DUP9 KECCAK256 DUP1 SLOAD PUSH1 0x0 NOT ADD SWAP1 SSTORE PUSH2 0xE5A JUMP JUMPDEST DUP3 MLOAD PUSH3 0x461BCD PUSH1 0xE5 SHL DUP2 MSTORE DUP1 DUP7 ADD DUP4 SWAP1 MSTORE PUSH1 0x2D PUSH1 0x24 DUP3 ADD MSTORE PUSH32 0x506F45503A20536F756C2D626F756E6420746F6B656E732063616E6E6F742062 PUSH1 0x44 DUP3 ADD MSTORE PUSH13 0x19481D1C985B9CD9995C9C9959 PUSH1 0x9A SHL PUSH1 0x64 DUP3 ADD MSTORE PUSH1 0x84 SWAP1 REVERT JUMPDEST POP PUSH1 0x1 PUSH2 0xE3D JUMP JUMPDEST DUP3 MLOAD PUSH3 0x461BCD PUSH1 0xE5 SHL DUP2 MSTORE DUP1 DUP7 ADD DUP4 SWAP1 MSTORE PUSH1 0x1F PUSH1 0x24 DUP3 ADD MSTORE PUSH32 0x506F45503A204F6E6C7920746F6B656E206F776E65722063616E206275726E00 PUSH1 0x44 DUP3 ADD MSTORE PUSH1 0x64 SWAP1 REVERT JUMPDEST POP SWAP2 SWAP1 CALLVALUE PUSH2 0x28F JUMPI PUSH2 0x1106 CALLDATASIZE PUSH2 0x1AB0 JUMP JUMPDEST SWAP2 DUP4 MLOAD SWAP4 PUSH1 0x20 DUP6 ADD SWAP1 DUP6 DUP3 LT PUSH8 0xFFFFFFFFFFFFFFFF DUP4 GT OR PUSH2 0x1131 JUMPI PUSH2 0x28C SWAP7 SWAP8 POP MSTORE DUP6 DUP5 MSTORE PUSH2 0x1F2C JUMP JUMPDEST PUSH4 0x4E487B71 PUSH1 0xE0 SHL DUP8 MSTORE PUSH1 0x41 DUP9 MSTORE PUSH1 0x24 DUP8 REVERT JUMPDEST POP CALLVALUE PUSH2 0x248 JUMPI DUP3 PUSH1 0x3 NOT CALLDATASIZE ADD SLT PUSH2 0x248 JUMPI PUSH2 0x115D PUSH2 0x1B68 JUMP JUMPDEST PUSH1 0xC SLOAD SWAP1 PUSH1 0xFF DUP3 AND ISZERO PUSH2 0x119F JUMPI POP PUSH1 0xFF NOT AND PUSH1 0xC SSTORE MLOAD CALLER DUP2 MSTORE PUSH32 0x5DB9EE0A495BF2E6FF9C91A7834C1BA4FDD244A5E8AA4E537BD38AEAE4B073AA SWAP1 PUSH1 0x20 SWAP1 LOG1 DUP1 RETURN JUMPDEST DUP3 MLOAD PUSH4 0x8DFC202B PUSH1 0xE0 SHL DUP2 MSTORE REVERT JUMPDEST POP CALLVALUE PUSH2 0x248 JUMPI PUSH2 0x120 CALLDATASIZE PUSH1 0x3 NOT ADD SLT PUSH2 0x248 JUMPI PUSH1 0x44 SWAP2 CALLDATASIZE DUP4 GT PUSH2 0xCCE JUMPI CALLDATASIZE PUSH1 0xC4 GT PUSH2 0xCCE JUMPI PUSH2 0x104 SWAP2 CALLDATASIZE DUP4 GT PUSH2 0x16DE JUMPI DUP3 CALLDATALOAD SWAP3 PUSH1 0x2 SWAP1 DUP2 PUSH1 0xB SLOAD EQ PUSH2 0x16CE JUMPI DUP2 PUSH1 0xB SSTORE PUSH2 0x11F8 PUSH2 0x2107 JUMP JUMPDEST DUP5 DUP8 MSTORE PUSH1 0x20 SWAP6 PUSH1 0xD DUP8 MSTORE PUSH1 0xFF DUP6 DUP10 KECCAK256 SLOAD AND PUSH2 0x168D JUMPI DUP5 MLOAD DUP8 DUP2 ADD DUP2 DUP2 LT PUSH8 0xFFFFFFFFFFFFFFFF DUP3 GT OR PUSH2 0x167A JUMPI DUP7 MSTORE DUP7 DUP2 MSTORE DUP6 MLOAD PUSH4 0x43753B4D PUSH1 0xE0 SHL DUP2 MSTORE SWAP3 DUP7 DUP7 DUP1 DUP7 ADD CALLDATACOPY DUP3 DUP11 DUP6 DUP3 ADD JUMPDEST DUP10 DUP9 DUP4 LT PUSH2 0x1666 JUMPI SWAP3 POP POP POP PUSH1 0xC4 DUP1 DUP7 ADD CALLDATACOPY DUP4 ADD DUP10 SWAP1 JUMPDEST DUP10 PUSH1 0x1 DUP4 LT PUSH2 0x1652 JUMPI POP PUSH1 0x1 PUSH1 0x1 PUSH1 0xA0 SHL SUB SWAP5 SWAP3 POP DUP10 SWAP2 POP DUP3 SWAP1 POP PUSH2 0x124 DUP2 PUSH32 0x0 DUP8 AND GAS STATICCALL SWAP1 DUP2 ISZERO PUSH2 0x1648 JUMPI DUP10 SWAP2 PUSH2 0x160E JUMPI JUMPDEST POP ISZERO PUSH2 0x15D4 JUMPI CALLER DUP9 MSTORE DUP3 DUP8 MSTORE DUP2 DUP6 DUP10 KECCAK256 SLOAD AND PUSH2 0x1585 JUMPI DUP6 DUP9 MSTORE PUSH1 0xD DUP8 MSTORE DUP5 DUP9 KECCAK256 DUP1 SLOAD PUSH1 0xFF NOT AND PUSH1 0x1 OR SWAP1 SSTORE CALLER ISZERO PUSH2 0x156E JUMPI CALLER DUP9 MSTORE DUP3 DUP8 MSTORE DUP2 DUP6 DUP10 KECCAK256 SLOAD AND ISZERO DUP1 ISZERO PUSH2 0x1567 JUMPI JUMPDEST ISZERO PUSH2 0x1510 JUMPI POP CALLER DUP8 MSTORE DUP2 DUP7 MSTORE DUP4 DUP8 KECCAK256 SLOAD AND DUP1 ISZERO DUP1 ISZERO SWAP3 DUP4 PUSH2 0x14D1 JUMPI JUMPDEST CALLER DUP1 DUP11 MSTORE PUSH1 0x3 DUP10 MSTORE DUP7 DUP11 KECCAK256 DUP1 SLOAD PUSH1 0x1 ADD SWAP1 SSTORE SWAP1 DUP9 MSTORE DUP6 DUP10 KECCAK256 DUP1 SLOAD PUSH1 0x1 PUSH1 0x1 PUSH1 0xA0 SHL SUB NOT AND DUP3 OR SWAP1 SSTORE DUP1 DUP4 PUSH32 0xDDF252AD1BE2C89B69C2B068FC378DAA952BA7F163C4A11628F55A4DF523B3EF DUP12 DUP1 LOG4 ISZERO PUSH2 0x1465 JUMPI PUSH1 0x8 SLOAD CALLER DUP9 MSTORE PUSH1 0x9 DUP8 MSTORE DUP1 DUP6 DUP10 KECCAK256 SSTORE PUSH1 0x1 PUSH1 0x40 SHL DUP2 LT ISZERO PUSH2 0x1452 JUMPI PUSH2 0x138E DUP2 PUSH1 0x1 PUSH2 0x13A6 SWAP4 ADD PUSH1 0x8 SSTORE PUSH2 0x208A JUMP JUMPDEST CALLER SWAP1 DUP3 SLOAD SWAP1 PUSH1 0x3 SHL SWAP2 DUP3 SHL SWAP2 PUSH1 0x0 NOT SWAP1 SHL NOT AND OR SWAP1 SSTORE JUMP JUMPDEST CALLER SUB PUSH2 0x1406 JUMPI JUMPDEST PUSH2 0x13F1 JUMPI POP CALLER DUP5 MSTORE PUSH1 0xE DUP4 MSTORE PUSH1 0x64 DUP2 DUP6 KECCAK256 SSTORE MLOAD SWAP1 DUP2 MSTORE PUSH32 0x39C7A0BE2574396927E6EA79689359D510F93BAABCCDDECB840DA959EF638965 CALLER SWAP3 CALLER SWAP3 LOG3 PUSH1 0x1 PUSH1 0xB SSTORE DUP1 RETURN JUMPDEST DUP5 PUSH1 0x24 SWAP3 MLOAD SWAP2 PUSH4 0x39E35637 PUSH1 0xE1 SHL DUP4 MSTORE DUP3 ADD MSTORE REVERT JUMPDEST PUSH2 0x140F CALLER PUSH2 0x1B94 JUMP JUMPDEST PUSH1 0x0 NOT DUP2 ADD SWAP1 DUP2 GT PUSH2 0x143F JUMPI CALLER DUP8 MSTORE PUSH1 0x6 DUP7 MSTORE DUP4 DUP8 KECCAK256 DUP2 DUP9 MSTORE DUP7 MSTORE CALLER DUP5 DUP9 KECCAK256 SSTORE CALLER DUP8 MSTORE PUSH1 0x7 DUP7 MSTORE DUP4 DUP8 KECCAK256 SSTORE PUSH2 0x13AD JUMP JUMPDEST PUSH4 0x4E487B71 PUSH1 0xE0 SHL DUP8 MSTORE PUSH1 0x11 DUP4 MSTORE PUSH1 0x24 DUP8 REVERT JUMPDEST PUSH4 0x4E487B71 PUSH1 0xE0 SHL DUP9 MSTORE PUSH1 0x41 DUP5 MSTORE PUSH1 0x24 DUP9 REVERT JUMPDEST CALLER DUP2 EQ PUSH2 0x13A6 JUMPI PUSH2 0x1475 DUP2 PUSH2 0x1B94 JUMP JUMPDEST CALLER DUP9 MSTORE PUSH1 0x7 DUP8 MSTORE DUP5 DUP9 KECCAK256 SLOAD SWAP1 DUP3 DUP10 MSTORE PUSH1 0x6 DUP9 MSTORE DUP6 DUP10 KECCAK256 SWAP2 DUP2 DUP2 SUB PUSH2 0x14AF JUMPI JUMPDEST POP CALLER DUP10 MSTORE PUSH1 0x7 DUP9 MSTORE DUP9 DUP7 DUP2 KECCAK256 SSTORE DUP9 MSTORE DUP7 MSTORE DUP7 DUP5 DUP2 KECCAK256 SSTORE PUSH2 0x13A6 JUMP JUMPDEST DUP2 DUP11 MSTORE DUP3 DUP10 MSTORE DUP7 DUP11 KECCAK256 SLOAD DUP2 DUP12 MSTORE DUP1 DUP9 DUP13 KECCAK256 SSTORE DUP11 MSTORE PUSH1 0x7 DUP10 MSTORE DUP7 DUP11 KECCAK256 SSTORE CODESIZE PUSH2 0x1494 JUMP JUMPDEST PUSH2 0x14F9 CALLER PUSH1 0x0 MSTORE PUSH1 0x4 PUSH1 0x20 MSTORE PUSH1 0x40 PUSH1 0x0 KECCAK256 PUSH12 0xFFFFFFFFFFFFFFFFFFFFFFFF PUSH1 0xA0 SHL DUP2 SLOAD AND SWAP1 SSTORE JUMP JUMPDEST DUP3 DUP10 MSTORE PUSH1 0x3 DUP9 MSTORE DUP6 DUP10 KECCAK256 DUP1 SLOAD PUSH1 0x0 NOT ADD SWAP1 SSTORE PUSH2 0x130D JUMP JUMPDEST DUP4 PUSH32 0x506F45503A20536F756C2D626F756E6420746F6B656E732063616E6E6F742062 PUSH1 0x84 SWAP3 DUP10 DUP9 MLOAD SWAP4 PUSH3 0x461BCD PUSH1 0xE5 SHL DUP6 MSTORE DUP5 ADD MSTORE PUSH1 0x2D PUSH1 0x24 DUP5 ADD MSTORE DUP3 ADD MSTORE PUSH13 0x19481D1C985B9CD9995C9C9959 PUSH1 0x9A SHL PUSH1 0x64 DUP3 ADD MSTORE REVERT JUMPDEST POP DUP8 PUSH2 0x12F1 JUMP JUMPDEST DUP5 MLOAD PUSH4 0x32505749 PUSH1 0xE1 SHL DUP2 MSTORE DUP1 DUP6 ADD DUP10 SWAP1 MSTORE PUSH1 0x24 SWAP1 REVERT JUMPDEST DUP4 PUSH32 0x506F45503A20416C7265616479206D696E74656420666F722074686973206164 PUSH1 0x84 SWAP3 DUP10 DUP9 MLOAD SWAP4 PUSH3 0x461BCD PUSH1 0xE5 SHL DUP6 MSTORE DUP5 ADD MSTORE PUSH1 0x25 PUSH1 0x24 DUP5 ADD MSTORE DUP3 ADD MSTORE PUSH5 0x6472657373 PUSH1 0xD8 SHL PUSH1 0x64 DUP3 ADD MSTORE REVERT JUMPDEST DUP4 PUSH22 0x2837A2A81D1024B73B30B634B2102D2590383937B7B3 PUSH1 0x51 SHL PUSH1 0x64 SWAP3 DUP10 DUP9 MLOAD SWAP4 PUSH3 0x461BCD PUSH1 0xE5 SHL DUP6 MSTORE DUP5 ADD MSTORE PUSH1 0x16 PUSH1 0x24 DUP5 ADD MSTORE DUP3 ADD MSTORE REVERT JUMPDEST SWAP1 POP DUP8 DUP2 DUP2 RETURNDATASIZE DUP4 GT PUSH2 0x1641 JUMPI JUMPDEST PUSH2 0x1625 DUP2 DUP4 PUSH2 0x1B14 JUMP JUMPDEST DUP2 ADD SUB SLT PUSH2 0x163D JUMPI MLOAD DUP1 ISZERO ISZERO DUP2 SUB PUSH2 0x163D JUMPI CODESIZE PUSH2 0x12AC JUMP JUMPDEST DUP9 DUP1 REVERT JUMPDEST POP RETURNDATASIZE PUSH2 0x161B JUMP JUMPDEST DUP7 MLOAD RETURNDATASIZE DUP12 DUP3 RETURNDATACOPY RETURNDATASIZE SWAP1 REVERT JUMPDEST DUP1 PUSH1 0x1 SWAP3 DUP6 MLOAD DUP2 MSTORE ADD SWAP4 ADD SWAP2 ADD SWAP1 SWAP2 PUSH2 0x125A JUMP JUMPDEST DUP1 DUP3 DUP2 DUP7 PUSH1 0x1 SWAP6 CALLDATACOPY ADD SWAP4 ADD SWAP2 ADD SWAP1 SWAP2 PUSH2 0x1243 JUMP JUMPDEST PUSH4 0x4E487B71 PUSH1 0xE0 SHL DUP11 MSTORE PUSH1 0x41 DUP7 MSTORE PUSH1 0x24 DUP11 REVERT JUMPDEST DUP4 PUSH32 0x506F45503A204E756C6C696669657220616C7265616479207573656400000000 PUSH1 0x64 SWAP3 DUP10 DUP9 MLOAD SWAP4 PUSH3 0x461BCD PUSH1 0xE5 SHL DUP6 MSTORE DUP5 ADD MSTORE PUSH1 0x1C PUSH1 0x24 DUP5 ADD MSTORE DUP3 ADD MSTORE REVERT JUMPDEST DUP4 MLOAD PUSH4 0x3EE5AEB5 PUSH1 0xE0 SHL DUP2 MSTORE DUP4 SWAP1 REVERT JUMPDEST DUP5 DUP1 REVERT JUMPDEST POP SWAP2 CALLVALUE PUSH2 0x516 JUMPI DUP2 PUSH1 0x3 NOT CALLDATASIZE ADD SLT PUSH2 0x516 JUMPI PUSH2 0x16FC PUSH2 0x1A7F JUMP JUMPDEST SWAP3 PUSH1 0x24 CALLDATALOAD SWAP1 PUSH2 0x170A DUP6 PUSH2 0x1B94 JUMP JUMPDEST DUP3 LT ISZERO PUSH2 0x173A JUMPI POP PUSH1 0x1 PUSH1 0x1 PUSH1 0xA0 SHL SUB SWAP1 SWAP4 AND DUP2 MSTORE PUSH1 0x6 PUSH1 0x20 SWAP1 DUP2 MSTORE DUP3 DUP3 KECCAK256 SWAP4 DUP3 MSTORE SWAP3 DUP4 MSTORE DUP2 SWAP1 KECCAK256 SLOAD SWAP1 MLOAD SWAP1 DUP2 MSTORE RETURN JUMPDEST SWAP3 MLOAD PUSH4 0x295F44F7 PUSH1 0xE2 SHL DUP2 MSTORE PUSH1 0x1 PUSH1 0x1 PUSH1 0xA0 SHL SUB SWAP1 SWAP5 AND SWAP3 DUP5 ADD SWAP3 DUP4 MSTORE PUSH1 0x20 DUP4 ADD MSTORE POP DUP2 SWAP1 PUSH1 0x40 ADD SUB SWAP1 REVERT JUMPDEST POP POP CALLVALUE PUSH2 0x28F JUMPI PUSH1 0x20 CALLDATASIZE PUSH1 0x3 NOT ADD SLT PUSH2 0x28F JUMPI PUSH1 0x20 SWAP2 DUP2 SWAP1 PUSH1 0x1 PUSH1 0x1 PUSH1 0xA0 SHL SUB PUSH2 0x178E PUSH2 0x1A7F JUMP JUMPDEST AND DUP2 MSTORE PUSH1 0x10 DUP5 MSTORE KECCAK256 SLOAD SWAP1 MLOAD SWAP1 DUP2 MSTORE RETURN JUMPDEST POP POP CALLVALUE PUSH2 0x28F JUMPI DUP2 PUSH1 0x3 NOT CALLDATASIZE ADD SLT PUSH2 0x28F JUMPI PUSH1 0x20 SWAP1 MLOAD PUSH2 0x3E8 DUP2 MSTORE RETURN JUMPDEST DUP4 CALLVALUE PUSH2 0x516 JUMPI PUSH2 0x28C PUSH2 0x17CD CALLDATASIZE PUSH2 0x1AB0 JUMP JUMPDEST SWAP2 PUSH2 0x1C07 JUMP JUMPDEST POP POP CALLVALUE PUSH2 0x28F JUMPI DUP2 PUSH1 0x3 NOT CALLDATASIZE ADD SLT PUSH2 0x28F JUMPI PUSH1 0x20 SWAP1 PUSH1 0x8 SLOAD SWAP1 MLOAD SWAP1 DUP2 MSTORE RETURN JUMPDEST POP SWAP1 CALLVALUE PUSH2 0x248 JUMPI DUP1 PUSH1 0x3 NOT CALLDATASIZE ADD SLT PUSH2 0x248 JUMPI PUSH2 0x180C PUSH2 0x1A7F JUMP JUMPDEST SWAP2 PUSH1 0x24 CALLDATALOAD PUSH2 0x1819 DUP2 PUSH2 0x204F JUMP JUMPDEST CALLER ISZERO ISZERO DUP1 PUSH2 0x18BB JUMPI JUMPDEST DUP1 PUSH2 0x1892 JUMPI JUMPDEST PUSH2 0x187C JUMPI PUSH1 0x1 PUSH1 0x1 PUSH1 0xA0 SHL SUB SWAP5 DUP6 AND SWAP5 DUP3 SWAP2 DUP7 SWAP2 AND PUSH32 0x8C5BE1E5EBEC7D5BD14F71427D1E84F3DD0314C0F7B2291E5B200AC8C7C3B925 DUP9 DUP1 LOG4 DUP5 MSTORE PUSH1 0x20 MSTORE DUP3 KECCAK256 DUP1 SLOAD PUSH1 0x1 PUSH1 0x1 PUSH1 0xA0 SHL SUB NOT AND SWAP1 SWAP2 OR SWAP1 SSTORE DUP1 RETURN JUMPDEST DUP4 MLOAD PUSH4 0xA9FBF51F PUSH1 0xE0 SHL DUP2 MSTORE CALLER DUP2 DUP6 ADD MSTORE PUSH1 0x24 SWAP1 REVERT JUMPDEST POP PUSH1 0x1 PUSH1 0x1 PUSH1 0xA0 SHL SUB DUP2 AND DUP7 MSTORE PUSH1 0x5 PUSH1 0x20 SWAP1 DUP2 MSTORE DUP5 DUP8 KECCAK256 CALLER DUP9 MSTORE SWAP1 MSTORE DUP4 DUP7 KECCAK256 SLOAD PUSH1 0xFF AND ISZERO PUSH2 0x1828 JUMP JUMPDEST POP PUSH1 0x1 PUSH1 0x1 PUSH1 0xA0 SHL SUB DUP2 AND CALLER EQ ISZERO PUSH2 0x1822 JUMP JUMPDEST POP CALLVALUE PUSH2 0x248 JUMPI PUSH1 0x20 CALLDATASIZE PUSH1 0x3 NOT ADD SLT PUSH2 0x248 JUMPI SWAP2 DUP3 PUSH1 0x20 SWAP4 CALLDATALOAD PUSH2 0x18EF DUP2 PUSH2 0x204F JUMP JUMPDEST POP DUP3 MSTORE DUP4 MSTORE DUP2 SWAP1 KECCAK256 SLOAD SWAP1 MLOAD PUSH1 0x1 PUSH1 0x1 PUSH1 0xA0 SHL SUB SWAP1 SWAP2 AND DUP2 MSTORE RETURN JUMPDEST POP POP CALLVALUE PUSH2 0x28F JUMPI DUP2 PUSH1 0x3 NOT CALLDATASIZE ADD SLT PUSH2 0x28F JUMPI DUP1 MLOAD SWAP1 DUP3 DUP1 SLOAD PUSH2 0x192A DUP2 PUSH2 0x1BCD JUMP JUMPDEST DUP1 DUP6 MSTORE SWAP2 PUSH1 0x1 SWAP2 DUP1 DUP4 AND SWAP1 DUP2 ISZERO PUSH2 0x714 JUMPI POP PUSH1 0x1 EQ PUSH2 0x1955 JUMPI POP POP POP PUSH2 0x6A6 DUP3 PUSH2 0x452 SWAP5 SUB DUP4 PUSH2 0x1B14 JUMP JUMPDEST DUP1 DUP1 SWAP7 POP MSTORE PUSH32 0x290DECD9548B62A8D60345A988386FC84BA6BC95484008F6362F93160EF3E563 JUMPDEST DUP3 DUP7 LT PUSH2 0x1999 JUMPI POP POP POP PUSH2 0x6A6 DUP3 PUSH1 0x20 PUSH2 0x452 SWAP6 DUP3 ADD ADD SWAP5 PUSH2 0x694 JUMP JUMPDEST DUP1 SLOAD PUSH1 0x20 DUP8 DUP8 ADD DUP2 ADD SWAP2 SWAP1 SWAP2 MSTORE SWAP1 SWAP6 ADD SWAP5 DUP2 ADD PUSH2 0x197C JUMP JUMPDEST SWAP3 POP POP CALLVALUE PUSH2 0x248 JUMPI PUSH1 0x20 CALLDATASIZE PUSH1 0x3 NOT ADD SLT PUSH2 0x248 JUMPI CALLDATALOAD PUSH4 0xFFFFFFFF PUSH1 0xE0 SHL DUP2 AND DUP1 SWAP2 SUB PUSH2 0x248 JUMPI PUSH1 0x20 SWAP3 POP PUSH4 0x780E9D63 PUSH1 0xE0 SHL DUP2 EQ SWAP1 DUP2 ISZERO PUSH2 0x19F4 JUMPI JUMPDEST POP ISZERO ISZERO DUP2 MSTORE RETURN JUMPDEST PUSH4 0x80AC58CD PUSH1 0xE0 SHL DUP2 EQ SWAP2 POP DUP2 ISZERO PUSH2 0x1A26 JUMPI JUMPDEST DUP2 ISZERO PUSH2 0x1A15 JUMPI JUMPDEST POP CODESIZE PUSH2 0x19ED JUMP JUMPDEST PUSH4 0x1FFC9A7 PUSH1 0xE0 SHL EQ SWAP1 POP CODESIZE PUSH2 0x1A0E JUMP JUMPDEST PUSH4 0x5B5E139F PUSH1 0xE0 SHL DUP2 EQ SWAP2 POP PUSH2 0x1A07 JUMP JUMPDEST PUSH1 0x0 JUMPDEST DUP4 DUP2 LT PUSH2 0x1A4A JUMPI POP POP PUSH1 0x0 SWAP2 ADD MSTORE JUMP JUMPDEST DUP2 DUP2 ADD MLOAD DUP4 DUP3 ADD MSTORE PUSH1 0x20 ADD PUSH2 0x1A3A JUMP JUMPDEST SWAP1 PUSH1 0x20 SWAP2 PUSH2 0x1A73 DUP2 MLOAD DUP1 SWAP3 DUP2 DUP6 MSTORE DUP6 DUP1 DUP7 ADD SWAP2 ADD PUSH2 0x1A37 JUMP JUMPDEST PUSH1 0x1F ADD PUSH1 0x1F NOT AND ADD ADD SWAP1 JUMP JUMPDEST PUSH1 0x4 CALLDATALOAD SWAP1 PUSH1 0x1 PUSH1 0x1 PUSH1 0xA0 SHL SUB DUP3 AND DUP3 SUB PUSH2 0x1A95 JUMPI JUMP JUMPDEST PUSH1 0x0 DUP1 REVERT JUMPDEST PUSH1 0x24 CALLDATALOAD SWAP1 PUSH1 0x1 PUSH1 0x1 PUSH1 0xA0 SHL SUB DUP3 AND DUP3 SUB PUSH2 0x1A95 JUMPI JUMP JUMPDEST PUSH1 0x60 SWAP1 PUSH1 0x3 NOT ADD SLT PUSH2 0x1A95 JUMPI PUSH1 0x1 PUSH1 0x1 PUSH1 0xA0 SHL SUB SWAP1 PUSH1 0x4 CALLDATALOAD DUP3 DUP2 AND DUP2 SUB PUSH2 0x1A95 JUMPI SWAP2 PUSH1 0x24 CALLDATALOAD SWAP1 DUP2 AND DUP2 SUB PUSH2 0x1A95 JUMPI SWAP1 PUSH1 0x44 CALLDATALOAD SWAP1 JUMP JUMPDEST PUSH1 0x40 SWAP1 PUSH1 0x3 NOT ADD SLT PUSH2 0x1A95 JUMPI PUSH1 0x4 CALLDATALOAD PUSH1 0x1 PUSH1 0x1 PUSH1 0xA0 SHL SUB DUP2 AND DUP2 SUB PUSH2 0x1A95 JUMPI SWAP1 PUSH1 0x24 CALLDATALOAD DUP1 ISZERO ISZERO DUP2 SUB PUSH2 0x1A95 JUMPI SWAP1 JUMP JUMPDEST SWAP1 PUSH1 0x1F DUP1 NOT SWAP2 ADD AND DUP2 ADD SWAP1 DUP2 LT PUSH8 0xFFFFFFFFFFFFFFFF DUP3 GT OR PUSH2 0x1B36 JUMPI PUSH1 0x40 MSTORE JUMP JUMPDEST PUSH4 0x4E487B71 PUSH1 0xE0 SHL PUSH1 0x0 MSTORE PUSH1 0x41 PUSH1 0x4 MSTORE PUSH1 0x24 PUSH1 0x0 REVERT JUMPDEST PUSH8 0xFFFFFFFFFFFFFFFF DUP2 GT PUSH2 0x1B36 JUMPI PUSH1 0x1F ADD PUSH1 0x1F NOT AND PUSH1 0x20 ADD SWAP1 JUMP JUMPDEST PUSH1 0xA SLOAD PUSH1 0x1 PUSH1 0x1 PUSH1 0xA0 SHL SUB AND CALLER SUB PUSH2 0x1B7C JUMPI JUMP JUMPDEST PUSH1 0x40 MLOAD PUSH4 0x118CDAA7 PUSH1 0xE0 SHL DUP2 MSTORE CALLER PUSH1 0x4 DUP3 ADD MSTORE PUSH1 0x24 SWAP1 REVERT JUMPDEST PUSH1 0x1 PUSH1 0x1 PUSH1 0xA0 SHL SUB AND DUP1 ISZERO PUSH2 0x1BB4 JUMPI PUSH1 0x0 MSTORE PUSH1 0x3 PUSH1 0x20 MSTORE PUSH1 0x40 PUSH1 0x0 KECCAK256 SLOAD SWAP1 JUMP JUMPDEST PUSH1 0x40 MLOAD PUSH4 0x22718AD9 PUSH1 0xE2 SHL DUP2 MSTORE PUSH1 0x0 PUSH1 0x4 DUP3 ADD MSTORE PUSH1 0x24 SWAP1 REVERT JUMPDEST SWAP1 PUSH1 0x1 DUP3 DUP2 SHR SWAP3 AND DUP1 ISZERO PUSH2 0x1BFD JUMPI JUMPDEST PUSH1 0x20 DUP4 LT EQ PUSH2 0x1BE7 JUMPI JUMP JUMPDEST PUSH4 0x4E487B71 PUSH1 0xE0 SHL PUSH1 0x0 MSTORE PUSH1 0x22 PUSH1 0x4 MSTORE PUSH1 0x24 PUSH1 0x0 REVERT JUMPDEST SWAP2 PUSH1 0x7F AND SWAP2 PUSH2 0x1BDC JUMP JUMPDEST PUSH1 0x1 PUSH1 0x1 PUSH1 0xA0 SHL SUB DUP3 DUP2 AND SWAP4 SWAP2 DUP5 ISZERO PUSH2 0x1F13 JUMPI PUSH1 0x0 SWAP5 DUP4 DUP7 MSTORE PUSH1 0x20 SWAP6 PUSH1 0x2 DUP8 MSTORE PUSH1 0x40 SWAP7 DUP5 DUP9 DUP4 KECCAK256 SLOAD AND ISZERO DUP1 ISZERO PUSH2 0x1F0C JUMPI JUMPDEST ISZERO PUSH2 0x1EB3 JUMPI DUP6 DUP3 MSTORE PUSH1 0x2 DUP2 MSTORE DUP5 DUP9 DUP4 KECCAK256 SLOAD AND SWAP7 CALLER ISZERO ISZERO DUP1 PUSH2 0x1E25 JUMPI JUMPDEST POP DUP8 ISZERO DUP1 ISZERO PUSH2 0x1DF2 JUMPI JUMPDEST DUP5 DUP5 MSTORE PUSH1 0x3 DUP4 MSTORE DUP10 DUP5 KECCAK256 DUP1 SLOAD PUSH1 0x1 ADD SWAP1 SSTORE DUP8 DUP5 MSTORE PUSH1 0x2 DUP4 MSTORE DUP10 DUP5 KECCAK256 DUP1 SLOAD PUSH1 0x1 PUSH1 0x1 PUSH1 0xA0 SHL SUB NOT AND DUP7 OR SWAP1 SSTORE DUP8 DUP6 DUP11 PUSH32 0xDDF252AD1BE2C89B69C2B068FC378DAA952BA7F163C4A11628F55A4DF523B3EF DUP8 DUP1 LOG4 ISZERO PUSH2 0x1D86 JUMPI PUSH1 0x8 SLOAD DUP8 DUP5 MSTORE PUSH1 0x9 DUP4 MSTORE DUP1 DUP11 DUP6 KECCAK256 SSTORE PUSH1 0x1 PUSH1 0x40 SHL DUP2 LT ISZERO PUSH2 0x1D72 JUMPI DUP8 PUSH2 0xED0 DUP3 PUSH1 0x1 PUSH2 0x1CE4 SWAP5 ADD PUSH1 0x8 SSTORE PUSH2 0x208A JUMP JUMPDEST DUP4 DUP9 SUB PUSH2 0x1D20 JUMPI JUMPDEST POP POP POP POP AND SWAP3 DUP4 DUP4 SUB PUSH2 0x1CFF JUMPI POP POP POP POP JUMP JUMPDEST PUSH1 0x64 SWAP5 POP MLOAD SWAP3 PUSH4 0x64283D7B PUSH1 0xE0 SHL DUP5 MSTORE PUSH1 0x4 DUP5 ADD MSTORE PUSH1 0x24 DUP4 ADD MSTORE PUSH1 0x44 DUP3 ADD MSTORE REVERT JUMPDEST PUSH2 0x1D29 SWAP1 PUSH2 0x1B94 JUMP JUMPDEST PUSH1 0x0 NOT DUP2 ADD SWAP4 SWAP1 DUP5 GT PUSH2 0x1D5E JUMPI DUP3 SWAP2 PUSH1 0x7 SWAP2 DUP11 SWAP5 MSTORE PUSH1 0x6 DUP2 MSTORE DUP4 DUP4 KECCAK256 DUP6 DUP5 MSTORE DUP2 MSTORE DUP8 DUP5 DUP5 KECCAK256 SSTORE DUP8 DUP4 MSTORE MSTORE KECCAK256 SSTORE CODESIZE DUP1 DUP1 DUP1 PUSH2 0x1CEC JUMP JUMPDEST PUSH4 0x4E487B71 PUSH1 0xE0 SHL DUP4 MSTORE PUSH1 0x11 PUSH1 0x4 MSTORE PUSH1 0x24 DUP4 REVERT JUMPDEST PUSH4 0x4E487B71 PUSH1 0xE0 SHL DUP5 MSTORE PUSH1 0x41 PUSH1 0x4 MSTORE PUSH1 0x24 DUP5 REVERT JUMPDEST DUP8 DUP5 EQ PUSH2 0x1CE4 JUMPI PUSH2 0x1D96 DUP9 PUSH2 0x1B94 JUMP JUMPDEST DUP8 DUP5 MSTORE PUSH1 0x7 DUP4 MSTORE DUP10 DUP5 KECCAK256 SLOAD SWAP1 DUP10 DUP6 MSTORE PUSH1 0x6 DUP5 MSTORE DUP11 DUP6 KECCAK256 SWAP2 DUP2 DUP2 SUB PUSH2 0x1DD0 JUMPI JUMPDEST POP DUP9 DUP6 MSTORE PUSH1 0x7 DUP5 MSTORE DUP5 DUP12 DUP2 KECCAK256 SSTORE DUP5 MSTORE DUP3 MSTORE DUP3 DUP10 DUP2 KECCAK256 SSTORE PUSH2 0x1CE4 JUMP JUMPDEST DUP2 DUP7 MSTORE DUP3 DUP6 MSTORE DUP12 DUP7 KECCAK256 SLOAD DUP2 DUP8 MSTORE DUP1 DUP14 DUP9 KECCAK256 SSTORE DUP7 MSTORE PUSH1 0x7 DUP6 MSTORE DUP12 DUP7 KECCAK256 SSTORE CODESIZE PUSH2 0x1DB5 JUMP JUMPDEST PUSH1 0x0 DUP9 DUP2 MSTORE PUSH1 0x4 PUSH1 0x20 MSTORE PUSH1 0x40 SWAP1 KECCAK256 DUP1 SLOAD PUSH1 0x1 PUSH1 0x1 PUSH1 0xA0 SHL SUB NOT AND SWAP1 SSTORE DUP9 DUP5 MSTORE PUSH1 0x3 DUP4 MSTORE DUP10 DUP5 KECCAK256 DUP1 SLOAD PUSH1 0x0 NOT ADD SWAP1 SSTORE PUSH2 0x1C5E JUMP JUMPDEST DUP1 PUSH2 0x1E72 JUMPI JUMPDEST ISZERO PUSH2 0x1E36 JUMPI CODESIZE PUSH2 0x1C54 JUMP JUMPDEST DUP9 DUP8 DUP10 PUSH2 0x1E53 JUMPI PUSH1 0x24 SWAP2 MLOAD SWAP1 PUSH4 0x7E273289 PUSH1 0xE0 SHL DUP3 MSTORE PUSH1 0x4 DUP3 ADD MSTORE REVERT JUMPDEST SWAP1 MLOAD PUSH4 0x177E802F PUSH1 0xE0 SHL DUP2 MSTORE CALLER PUSH1 0x4 DUP3 ADD MSTORE PUSH1 0x24 DUP2 ADD SWAP2 SWAP1 SWAP2 MSTORE PUSH1 0x44 SWAP1 REVERT JUMPDEST POP CALLER DUP9 EQ DUP1 ISZERO PUSH2 0x1E97 JUMPI JUMPDEST DUP1 PUSH2 0x1E2B JUMPI POP DUP7 DUP4 MSTORE PUSH1 0x4 DUP3 MSTORE CALLER DUP7 DUP11 DUP6 KECCAK256 SLOAD AND EQ PUSH2 0x1E2B JUMP JUMPDEST POP DUP8 DUP4 MSTORE PUSH1 0x5 DUP3 MSTORE DUP9 DUP4 KECCAK256 CALLER DUP5 MSTORE DUP3 MSTORE PUSH1 0xFF DUP10 DUP5 KECCAK256 SLOAD AND PUSH2 0x1E7D JUMP JUMPDEST PUSH1 0x84 SWAP1 DUP9 MLOAD SWAP1 PUSH3 0x461BCD PUSH1 0xE5 SHL DUP3 MSTORE PUSH1 0x4 DUP3 ADD MSTORE PUSH1 0x2D PUSH1 0x24 DUP3 ADD MSTORE PUSH32 0x506F45503A20536F756C2D626F756E6420746F6B656E732063616E6E6F742062 PUSH1 0x44 DUP3 ADD MSTORE PUSH13 0x19481D1C985B9CD9995C9C9959 PUSH1 0x9A SHL PUSH1 0x64 DUP3 ADD MSTORE REVERT JUMPDEST POP DUP2 PUSH2 0x1C38 JUMP JUMPDEST PUSH1 0x40 MLOAD PUSH4 0x32505749 PUSH1 0xE1 SHL DUP2 MSTORE PUSH1 0x0 PUSH1 0x4 DUP3 ADD MSTORE PUSH1 0x24 SWAP1 REVERT JUMPDEST SWAP2 SWAP1 PUSH2 0x1F39 DUP3 DUP3 DUP6 PUSH2 0x1C07 JUMP JUMPDEST DUP1 EXTCODESIZE PUSH2 0x1F46 JUMPI JUMPDEST POP POP POP POP JUMP JUMPDEST PUSH2 0x1F88 PUSH1 0x1 DUP1 PUSH1 0xA0 SHL SUB DUP1 SWAP3 AND SWAP5 PUSH1 0x40 MLOAD SWAP4 DUP5 SWAP4 PUSH4 0xA85BD01 PUSH1 0xE1 SHL SWAP7 DUP8 DUP7 MSTORE CALLER PUSH1 0x4 DUP8 ADD MSTORE AND PUSH1 0x24 DUP6 ADD MSTORE PUSH1 0x44 DUP5 ADD MSTORE PUSH1 0x80 PUSH1 0x64 DUP5 ADD MSTORE PUSH1 0x84 DUP4 ADD SWAP1 PUSH2 0x1A5A JUMP JUMPDEST SUB SWAP1 PUSH1 0x20 DUP2 PUSH1 0x0 SWAP4 DUP2 DUP6 DUP9 GAS CALL SWAP1 DUP3 SWAP1 DUP3 PUSH2 0x2007 JUMPI JUMPDEST POP POP PUSH2 0x1FD6 JUMPI DUP3 PUSH2 0x1FAD PUSH2 0x20D7 JUMP JUMPDEST DUP1 MLOAD SWAP2 SWAP1 DUP3 PUSH2 0x1FCF JUMPI PUSH1 0x40 MLOAD PUSH4 0x32505749 PUSH1 0xE1 SHL DUP2 MSTORE PUSH1 0x4 DUP2 ADD DUP4 SWAP1 MSTORE PUSH1 0x24 SWAP1 REVERT JUMPDEST PUSH1 0x20 SWAP2 POP ADD REVERT JUMPDEST PUSH1 0x1 PUSH1 0x1 PUSH1 0xE0 SHL SUB NOT AND SUB PUSH2 0x1FEF JUMPI POP CODESIZE DUP1 DUP1 DUP1 PUSH2 0x1F40 JUMP JUMPDEST PUSH1 0x24 SWAP1 PUSH1 0x40 MLOAD SWAP1 PUSH4 0x32505749 PUSH1 0xE1 SHL DUP3 MSTORE PUSH1 0x4 DUP3 ADD MSTORE REVERT JUMPDEST SWAP1 SWAP2 SWAP3 POP PUSH1 0x20 DUP2 RETURNDATASIZE DUP3 GT PUSH2 0x2047 JUMPI JUMPDEST DUP2 PUSH2 0x2023 PUSH1 0x20 SWAP4 DUP4 PUSH2 0x1B14 JUMP JUMPDEST DUP2 ADD SUB SLT PUSH2 0x28F JUMPI MLOAD SWAP1 PUSH1 0x1 PUSH1 0x1 PUSH1 0xE0 SHL SUB NOT DUP3 AND DUP3 SUB PUSH2 0x516 JUMPI POP SWAP1 CODESIZE DUP1 PUSH2 0x1F9E JUMP JUMPDEST RETURNDATASIZE SWAP2 POP PUSH2 0x2016 JUMP JUMPDEST PUSH1 0x0 DUP2 DUP2 MSTORE PUSH1 0x2 PUSH1 0x20 MSTORE PUSH1 0x40 SWAP1 KECCAK256 SLOAD PUSH1 0x1 PUSH1 0x1 PUSH1 0xA0 SHL SUB AND SWAP1 DUP2 ISZERO PUSH2 0x2072 JUMPI POP SWAP1 JUMP JUMPDEST PUSH1 0x24 SWAP1 PUSH1 0x40 MLOAD SWAP1 PUSH4 0x7E273289 PUSH1 0xE0 SHL DUP3 MSTORE PUSH1 0x4 DUP3 ADD MSTORE REVERT JUMPDEST PUSH1 0x8 SLOAD DUP2 LT ISZERO PUSH2 0x20C1 JUMPI PUSH1 0x8 PUSH1 0x0 MSTORE PUSH32 0xF3F7A9FE364FAAB93B216DA50A3214154F22A0A2B415B23A84C8169E8B636EE3 ADD SWAP1 PUSH1 0x0 SWAP1 JUMP JUMPDEST PUSH4 0x4E487B71 PUSH1 0xE0 SHL PUSH1 0x0 MSTORE PUSH1 0x32 PUSH1 0x4 MSTORE PUSH1 0x24 PUSH1 0x0 REVERT JUMPDEST RETURNDATASIZE ISZERO PUSH2 0x2102 JUMPI RETURNDATASIZE SWAP1 PUSH2 0x20E8 DUP3 PUSH2 0x1B4C JUMP JUMPDEST SWAP2 PUSH2 0x20F6 PUSH1 0x40 MLOAD SWAP4 DUP5 PUSH2 0x1B14 JUMP JUMPDEST DUP3 MSTORE RETURNDATASIZE PUSH1 0x0 PUSH1 0x20 DUP5 ADD RETURNDATACOPY JUMP JUMPDEST PUSH1 0x60 SWAP1 JUMP JUMPDEST PUSH1 0xFF PUSH1 0xC SLOAD AND PUSH2 0x2113 JUMPI JUMP JUMPDEST PUSH1 0x40 MLOAD PUSH4 0xD93C0665 PUSH1 0xE0 SHL DUP2 MSTORE PUSH1 0x4 SWAP1 REVERT JUMPDEST SWAP2 SWAP1 DUP3 ADD DUP1 SWAP3 GT PUSH2 0x2132 JUMPI JUMP JUMPDEST PUSH4 0x4E487B71 PUSH1 0xE0 SHL PUSH1 0x0 MSTORE PUSH1 0x11 PUSH1 0x4 MSTORE PUSH1 0x24 PUSH1 0x0 REVERT JUMPDEST PUSH1 0x1 PUSH1 0x1 PUSH1 0xA0 SHL SUB SWAP1 DUP2 AND PUSH1 0x0 DUP2 DUP2 MSTORE PUSH1 0x2 PUSH1 0x20 MSTORE PUSH1 0x40 DUP2 KECCAK256 SLOAD SWAP2 SWAP3 SWAP1 SWAP2 DUP2 AND ISZERO PUSH2 0x2234 JUMPI PUSH1 0xA SLOAD AND CALLER EQ ISZERO DUP1 PUSH2 0x222B JUMPI JUMPDEST PUSH2 0x218E JUMPI JUMPDEST PUSH1 0x40 SWAP2 DUP2 MSTORE PUSH1 0xE PUSH1 0x20 MSTORE KECCAK256 SLOAD SWAP1 JUMP JUMPDEST PUSH3 0x186A0 CALLVALUE LT PUSH2 0x21E6 JUMPI PUSH1 0x40 SWAP2 CALLER DUP3 MSTORE PUSH1 0x10 PUSH1 0x20 MSTORE DUP3 DUP3 KECCAK256 PUSH2 0x21B1 CALLVALUE DUP3 SLOAD PUSH2 0x2125 JUMP JUMPDEST SWAP1 SSTORE DUP1 DUP4 MLOAD CALLVALUE DUP2 MSTORE PUSH32 0x66913A289AB32DE864A985B54A04FF03BD11C4E31AC45610F1BB96581F50241A PUSH1 0x20 CALLER SWAP3 LOG3 SWAP2 POP PUSH2 0x217F JUMP JUMPDEST PUSH1 0x40 MLOAD PUSH3 0x461BCD PUSH1 0xE5 SHL DUP2 MSTORE PUSH1 0x20 PUSH1 0x4 DUP3 ADD MSTORE PUSH1 0x1C PUSH1 0x24 DUP3 ADD MSTORE PUSH32 0x506F45503A20496E73756666696369656E742071756572792066656500000000 PUSH1 0x44 DUP3 ADD MSTORE PUSH1 0x64 SWAP1 REVERT JUMPDEST POP CALLVALUE ISZERO ISZERO PUSH2 0x217A JUMP JUMPDEST POP SWAP1 POP SWAP1 JUMP JUMPDEST DUP1 PUSH1 0x0 SWAP2 PUSH27 0x184F03E93FF9F4DAA797ED6E38ED64BF6A1F010000000000000000 DUP1 DUP3 LT ISZERO PUSH2 0x2394 JUMPI JUMPDEST POP PUSH14 0x4EE2D6D415B85ACEF8100000000 DUP1 DUP4 LT ISZERO PUSH2 0x2385 JUMPI JUMPDEST POP PUSH7 0x2386F26FC10000 DUP1 DUP4 LT ISZERO PUSH2 0x2376 JUMPI JUMPDEST POP PUSH4 0x5F5E100 DUP1 DUP4 LT ISZERO PUSH2 0x2367 JUMPI JUMPDEST POP PUSH2 0x2710 DUP1 DUP4 LT ISZERO PUSH2 0x2358 JUMPI JUMPDEST POP PUSH1 0x64 DUP3 LT ISZERO PUSH2 0x2348 JUMPI JUMPDEST PUSH1 0xA DUP1 SWAP3 LT ISZERO PUSH2 0x233E JUMPI JUMPDEST PUSH1 0x1 SWAP1 DUP2 PUSH1 0x21 DUP2 DUP7 ADD SWAP6 PUSH2 0x22D3 DUP8 PUSH2 0x1B4C JUMP JUMPDEST SWAP7 PUSH2 0x22E1 PUSH1 0x40 MLOAD SWAP9 DUP10 PUSH2 0x1B14 JUMP JUMPDEST DUP1 DUP9 MSTORE PUSH2 0x22F0 PUSH1 0x1F NOT SWAP2 PUSH2 0x1B4C JUMP JUMPDEST ADD CALLDATASIZE PUSH1 0x20 DUP10 ADD CALLDATACOPY DUP7 ADD ADD SWAP1 JUMPDEST PUSH2 0x2308 JUMPI JUMPDEST POP POP POP POP SWAP1 JUMP JUMPDEST PUSH1 0x0 NOT ADD SWAP1 DUP4 SWAP1 PUSH16 0x181899199A1A9B1B9C1CB0B131B232B3 PUSH1 0x81 SHL DUP3 DUP3 MOD BYTE DUP4 MSTORE8 DIV SWAP2 DUP3 ISZERO PUSH2 0x2339 JUMPI SWAP2 SWAP1 DUP3 PUSH2 0x22FC JUMP JUMPDEST PUSH2 0x2301 JUMP JUMPDEST SWAP2 PUSH1 0x1 ADD SWAP2 PUSH2 0x22C0 JUMP JUMPDEST SWAP2 SWAP1 PUSH1 0x64 PUSH1 0x2 SWAP2 DIV SWAP2 ADD SWAP2 PUSH2 0x22B5 JUMP JUMPDEST PUSH1 0x4 SWAP2 SWAP4 SWAP3 DIV SWAP2 ADD SWAP2 CODESIZE PUSH2 0x22AA JUMP JUMPDEST PUSH1 0x8 SWAP2 SWAP4 SWAP3 DIV SWAP2 ADD SWAP2 CODESIZE PUSH2 0x229D JUMP JUMPDEST PUSH1 0x10 SWAP2 SWAP4 SWAP3 DIV SWAP2 ADD SWAP2 CODESIZE PUSH2 0x228E JUMP JUMPDEST PUSH1 0x20 SWAP2 SWAP4 SWAP3 DIV SWAP2 ADD SWAP2 CODESIZE PUSH2 0x227C JUMP JUMPDEST PUSH1 0x40 SWAP4 POP DUP2 DIV SWAP2 POP CODESIZE PUSH2 0x2263 JUMP INVALID LOG2 PUSH5 0x6970667358 0x22 SLT KECCAK256 0xC5 0xC3 ADDMOD SLT PUSH13 0xC8603F772E3191EA0D24A5DD76 REVERT PUSH0 0x23 SWAP4 SELFDESTRUCT DUP13 0xD6 PUSH13 0x459615362E764736F6C634300 ADDMOD EQ STOP CALLER "},"methodIdentifiers":{"MAX_SCORE()":"27ff6223","QUERY_FEE()":"89a56aa4","approve(address,uint256)":"095ea7b3","balanceOf(address)":"70a08231","burn(uint256)":"42966c68","getApproved(uint256)":"081812fc","getTrustScore(address)":"5e09eea1","isApprovedForAll(address,address)":"e985e9c5","mint(uint256[2],uint256[2][2],uint256[2],uint256)":"30040da5","name()":"06fdde03","nullifiers(uint256)":"d21e82ab","owner()":"8da5cb5b","ownerOf(uint256)":"6352211e","pause()":"8456cb59","paused()":"5c975abb","queryFees(address)":"297f96d6","renounceOwnership()":"715018a6","safeTransferFrom(address,address,uint256)":"42842e0e","safeTransferFrom(address,address,uint256,bytes)":"b88d4fde","scoreUpdaters(address)":"867951d8","setApprovalForAll(address,bool)":"a22cb465","setBaseURI(string)":"55f804b3","setScoreUpdater(address,bool)":"ec072257","supportsInterface(bytes4)":"01ffc9a7","symbol()":"95d89b41","tokenByIndex(uint256)":"4f6ccce7","tokenOfOwnerByIndex(address,uint256)":"2f745c59","tokenURI(uint256)":"c87b56dd","totalSupply()":"18160ddd","transferFrom(address,address,uint256)":"23b872dd","transferOwnership(address)":"f2fde38b","trustScore(uint256)":"bf4e21d2","unpause()":"3f4ba83a","updateScore(address,int256)":"7f3d7ffa","viewTrustScore(address)":"5d514423","withdrawFees()":"476343ee","zkVerifier()":"d6df096d"}}}}}