{"contracts/PoEP.sol":{"PoEP":{"abi":[{"inputs":[{"internalType":"address","name":"_verifier","type":"address"},{"internalType":"string","name":"_baseURI","type":"string"}],"stateMutability":"nonpayable","type":"constructor"},{"inputs":[],"name":"AlreadyMinted","type":"error"},{"inputs":[{"internalType":"address","name":"sender","type":"address"},{"internalType":"uint256","name":"tokenId","type":"uint256"},{"internalType":"address","name":"owner","type":"address"}],"name":"ERC721IncorrectOwner","type":"error"},{"inputs":[{"internalType":"address","name":"operator","type":"address"},{"internalType":"uint256","name":"tokenId","type":"uint256"}],"name":"ERC721InsufficientApproval","type":"error"},{"inputs":[{"internalType":"address","name":"approver","type":"address"}],"name":"ERC721InvalidApprover","type":"error"},{"inputs":[{"internalType":"address","name":"operator","type":"address"}],"name":"ERC721InvalidOperator","type":"error"},{"inputs":[{"internalType":"address","name":"owner","type":"address"}],"name":"ERC721InvalidOwner","type":"error"},{"inputs":[{"internalType":"address","name":"receiver","type":"address"}],"name":"ERC721InvalidReceiver","type":"error"},{"inputs":[{"internalType":"address","name":"sender","type":"address"}],"name":"ERC721InvalidSender","type":"error"},{"inputs":[{"internalType":"uint256","name":"tokenId","type":"uint256"}],"name":"ERC721NonexistentToken","type":"error"},{"inputs":[],"name":"InvalidProof","type":"error"},{"inputs":[],"name":"NullifierAlreadyUsed","type":"error"},{"inputs":[{"internalType":"address","name":"owner","type":"address"}],"name":"OwnableInvalidOwner","type":"error"},{"inputs":[{"internalType":"address","name":"account","type":"address"}],"name":"OwnableUnauthorizedAccount","type":"error"},{"inputs":[],"name":"ReentrancyGuardReentrantCall","type":"error"},{"inputs":[],"name":"TokenNonTransferable","type":"error"},{"anonymous":false,"inputs":[{"indexed":true,"internalType":"address","name":"owner","type":"address"},{"indexed":true,"internalType":"address","name":"approved","type":"address"},{"indexed":true,"internalType":"uint256","name":"tokenId","type":"uint256"}],"name":"Approval","type":"event"},{"anonymous":false,"inputs":[{"indexed":true,"internalType":"address","name":"owner","type":"address"},{"indexed":true,"internalType":"address","name":"operator","type":"address"},{"indexed":false,"internalType":"bool","name":"approved","type":"bool"}],"name":"ApprovalForAll","type":"event"},{"anonymous":false,"inputs":[{"indexed":true,"internalType":"address","name":"previousOwner","type":"address"},{"indexed":true,"internalType":"address","name":"newOwner","type":"address"}],"name":"OwnershipTransferred","type":"event"},{"anonymous":false,"inputs":[{"indexed":true,"internalType":"address","name":"user","type":"address"},{"indexed":true,"internalType":"uint256","name":"tokenId","type":"uint256"},{"indexed":false,"internalType":"uint256","name":"nullifier","type":"uint256"}],"name":"PassportMinted","type":"event"},{"anonymous":false,"inputs":[{"indexed":true,"internalType":"address","name":"user","type":"address"},{"indexed":false,"internalType":"uint256","name":"oldScore","type":"uint256"},{"indexed":false,"internalType":"uint256","name":"newScore","type":"uint256"}],"name":"ScoreUpdated","type":"event"},{"anonymous":false,"inputs":[{"indexed":true,"internalType":"address","name":"from","type":"address"},{"indexed":true,"internalType":"address","name":"to","type":"address"},{"indexed":true,"internalType":"uint256","name":"tokenId","type":"uint256"}],"name":"Transfer","type":"event"},{"inputs":[{"internalType":"address","name":"user","type":"address"},{"internalType":"uint256","name":"increment","type":"uint256"}],"name":"addScore","outputs":[],"stateMutability":"nonpayable","type":"function"},{"inputs":[{"internalType":"address","name":"","type":"address"},{"internalType":"uint256","name":"","type":"uint256"}],"name":"approve","outputs":[],"stateMutability":"nonpayable","type":"function"},{"inputs":[{"internalType":"address","name":"owner","type":"address"}],"name":"balanceOf","outputs":[{"internalType":"uint256","name":"","type":"uint256"}],"stateMutability":"view","type":"function"},{"inputs":[{"internalType":"uint256","name":"tokenId","type":"uint256"}],"name":"getApproved","outputs":[{"internalType":"address","name":"","type":"address"}],"stateMutability":"view","type":"function"},{"inputs":[{"internalType":"address","name":"","type":"address"}],"name":"hasMinted","outputs":[{"internalType":"bool","name":"","type":"bool"}],"stateMutability":"view","type":"function"},{"inputs":[{"internalType":"address","name":"user","type":"address"}],"name":"hasPassport","outputs":[{"internalType":"bool","name":"","type":"bool"}],"stateMutability":"view","type":"function"},{"inputs":[{"internalType":"address","name":"owner","type":"address"},{"internalType":"address","name":"operator","type":"address"}],"name":"isApprovedForAll","outputs":[{"internalType":"bool","name":"","type":"bool"}],"stateMutability":"view","type":"function"},{"inputs":[{"internalType":"uint256[2]","name":"_pA","type":"uint256[2]"},{"internalType":"uint256[2][2]","name":"_pB","type":"uint256[2][2]"},{"internalType":"uint256[2]","name":"_pC","type":"uint256[2]"},{"internalType":"uint256","name":"nullifier","type":"uint256"}],"name":"mint","outputs":[],"stateMutability":"nonpayable","type":"function"},{"inputs":[],"name":"name","outputs":[{"internalType":"string","name":"","type":"string"}],"stateMutability":"view","type":"function"},{"inputs":[{"internalType":"uint256","name":"","type":"uint256"}],"name":"nullifiersUsed","outputs":[{"internalType":"bool","name":"","type":"bool"}],"stateMutability":"view","type":"function"},{"inputs":[],"name":"owner","outputs":[{"internalType":"address","name":"","type":"address"}],"stateMutability":"view","type":"function"},{"inputs":[{"internalType":"uint256","name":"tokenId","type":"uint256"}],"name":"ownerOf","outputs":[{"internalType":"address","name":"","type":"address"}],"stateMutability":"view","type":"function"},{"inputs":[],"name":"renounceOwnership","outputs":[],"stateMutability":"nonpayable","type":"function"},{"inputs":[{"internalType":"address","name":"from","type":"address"},{"internalType":"address","name":"to","type":"address"},{"internalType":"uint256","name":"tokenId","type":"uint256"}],"name":"safeTransferFrom","outputs":[],"stateMutability":"nonpayable","type":"function"},{"inputs":[{"internalType":"address","name":"from","type":"address"},{"internalType":"address","name":"to","type":"address"},{"internalType":"uint256","name":"tokenId","type":"uint256"},{"internalType":"bytes","name":"data","type":"bytes"}],"name":"safeTransferFrom","outputs":[],"stateMutability":"nonpayable","type":"function"},{"inputs":[{"internalType":"address","name":"","type":"address"},{"internalType":"bool","name":"","type":"bool"}],"name":"setApprovalForAll","outputs":[],"stateMutability":"nonpayable","type":"function"},{"inputs":[{"internalType":"string","name":"baseURI","type":"string"}],"name":"setBaseURI","outputs":[],"stateMutability":"nonpayable","type":"function"},{"inputs":[{"internalType":"bytes4","name":"interfaceId","type":"bytes4"}],"name":"supportsInterface","outputs":[{"internalType":"bool","name":"","type":"bool"}],"stateMutability":"view","type":"function"},{"inputs":[],"name":"symbol","outputs":[{"internalType":"string","name":"","type":"string"}],"stateMutability":"view","type":"function"},{"inputs":[{"internalType":"uint256","name":"tokenId","type":"uint256"}],"name":"tokenURI","outputs":[{"internalType":"string","name":"","type":"string"}],"stateMutability":"view","type":"function"},{"inputs":[{"internalType":"address","name":"from","type":"address"},{"internalType":"address","name":"to","type":"address"},{"internalType":"uint256","name":"tokenId","type":"uint256"}],"name":"transferFrom","outputs":[],"stateMutability":"nonpayable","type":"function"},{"inputs":[{"internalType":"address","name":"newOwner","type":"address"}],"name":"transferOwnership","outputs":[],"stateMutability":"nonpayable","type":"function"},{"inputs":[{"internalType":"address","name":"","type":"address"}],"name":"trustScores","outputs":[{"internalType":"uint256","name":"","type":"uint256"}],"stateMutability":"view","type":"function"},{"inputs":[],"name":"verifier","outputs":[{"internalType":"contract PoEPVerifier","name":"","type":"address"}],"stateMutability":"view","type":"function"},{"inputs":[{"internalType":"address","name":"user","type":"address"}],"name":"viewTrustScore","outputs":[{"internalType":"uint256","name":"score","type":"uint256"}],"stateMutability":"view","type":"function"}],"evm":{"bytecode":{"linkReferences":{},"object":"60a0604052346200058d5762001c0a803803806200001d81620005c8565b9283398101906040818303126200058d5780516001600160a01b03808216918290036200058d576020938484015160018060401b03948582116200058d570194601f928284880112156200058d5786518681116200059257601f19976200008a8287018a168501620005c8565b948286528483830101116200058d57839060005b8381106200057857505060009185010152620000b9620005a8565b94601b86527f50726f6f662d6f662d4578697374656e63652050617373706f7274000000000083870152620000ed620005a8565b91600492838152630504f45560e41b8582015287518981116200047c57600054986001998a81811c911680156200056d575b88821014620005585790818a84931162000502575b5087908a83116001146200049d5760009262000491575b5050600019600383901b1c191690891b176000555b8051908982116200047c5788548981811c9116801562000471575b878210146200045c5790818984931162000406575b508690898311600114620003a25760009262000396575b5050600019600383901b1c191690881b1787555b33156200037e5760068054336001600160a01b0319821681179092559091167f8be0079c531659141344cd1fd0a4f28419497f9722a3daafe3b4186f6b6457e0600080a38560075560805282519586116200036957600c54908582811c921680156200035e575b83831014620003495750838111620002fd575b50809285116001146200029257508394509083929160009462000286575b50501b916000199060031b1c191617600c555b60405161161b9081620005ef82396080518181816109990152610d9e0152f35b01519250388062000253565b929484908116600c60005284600020946000905b88838310620002e25750505010620002c8575b505050811b01600c5562000266565b015160001960f88460031b161c19169055388080620002b9565b858701518855909601959485019487935090810190620002a6565b600c600052816000208480880160051c8201928489106200033f575b0160051c019085905b8281106200033257505062000235565b6000815501859062000322565b9250819262000319565b602290634e487b7160e01b6000525260246000fd5b91607f169162000222565b604190634e487b7160e01b6000525260246000fd5b604051631e4fbdf760e01b8152600081850152602490fd5b015190503880620001a7565b908c8b94169184600052886000209260005b8a828210620003ef5750508411620003d5575b505050811b018755620001bb565b015160001960f88460031b161c19169055388080620003c7565b8385015186558e97909501949384019301620003b4565b90915089600052866000208980850160051c82019289861062000452575b918c91869594930160051c01915b8281106200044257505062000190565b600081558594508c910162000432565b9250819262000424565b602286634e487b7160e01b6000525260246000fd5b90607f16906200017b565b604185634e487b7160e01b6000525260246000fd5b0151905038806200014b565b908d8c94169160008052896000209260005b8b828210620004eb5750508411620004d1575b505050811b0160005562000160565b015160001960f88460031b161c19169055388080620004c2565b8385015186558f97909501949384019301620004af565b90915060008052876000208a80850160051c8201928a86106200054e575b918d91869594930160051c01915b8281106200053e57505062000134565b600081558594508d91016200052e565b9250819262000520565b602287634e487b7160e01b6000525260246000fd5b90607f16906200011f565b8181018301518782018401528592016200009e565b600080fd5b634e487b7160e01b600052604160045260246000fd5b60408051919082016001600160401b038111838210176200059257604052565b6040519190601f01601f191682016001600160401b03811183821017620005925760405256fe6080604081815260048036101561001557600080fd5b600092833560e01c90816301ffc9a714610ef15750806306fdde0314610e49578063081812fc14610e0e578063095ea7b314610de557806312df0fc41461067d57806323b872dd14610dcd5780632b7ac3f314610d8957806330040da5146108aa57806338e21cce1461083d57806342842e0e1461087b5780634dc30e871461083d57806355f804b3146106b55780635d5144231461067d5780636352211e1461064c57806370a08231146105f7578063715018a61461059a5780638da5cb5b1461057157806395d89b411461048e578063a22cb4651461045a578063b88d4fde146103c8578063c87b56dd14610279578063d119db4c14610246578063e985e9c5146101f4578063f2393bcf146101c85763f2fde38b1461013657600080fd5b346101c45760203660031901126101c45761014f610fa5565b90610158611097565b6001600160a01b039182169283156101ae575050600654826bffffffffffffffffffffffff60a01b821617600655167f8be0079c531659141344cd1fd0a4f28419497f9722a3daafe3b4186f6b6457e08380a380f35b51631e4fbdf760e01b8152908101849052602490fd5b8280fd5b50346101c45760203660031901126101c4578160209360ff923581526009855220541690519015158152f35b50503461024257806003193601126102425760ff81602093610214610fa5565b61021c610fc0565b6001600160a01b0391821683526005875283832091168252855220549151911615158152f35b5080fd5b5050346102425736600319011261027657610273610262610fa5565b61026a611097565b6024359061147a565b80f35b80fd5b5090346101c457602091826003193601126103c45735610298816112cc565b506001600160a01b03906102ab906112cc565b168352600a82526102be8184205461150a565b8151600c549094859291816102d2826110c3565b916001908882821691826000146103a057505060011461033e575b50505061033a939261032b9282663f73636f72653d60c81b6007945261031b825180938a8785019101610f5d565b0103601819810187520185611059565b51928284938452830190610f80565b0390f35b87929695949350600c82527fdf6966c971051c3d54ec59162606531493a51404a002842f56009d7e5cf4a8c75b8783106103885750949593945091928401019050828260076102ed565b8054838b01850152899550889390920191810161036b565b60ff19168882015284151590940287019093019350859250849150600790506102ed565b8380fd5b5090346101c45760803660031901126101c4576103e3610fa5565b6103eb610fc0565b60443591856064359567ffffffffffffffff87116102425736602388011215610242578601359561042761041e8861107b565b96519687611059565b868652366024888301011161024257866102739760246020930183890137860101526104548383836110fd565b33611307565b509134610276578160031936011261027657610474610fa5565b506024358015150361027657505163fcd0178f60e01b8152fd5b5050346102425781600319360112610242578051908260018054916104b2836110c3565b8086529282811690811561054957506001146104ed575b5050506104db8261033a940383611059565b51918291602083526020830190610f80565b94508085527fb10e2d527612073b26eecdfd717e6a320cf44b4afac2b0732d9fcbe2b7fa0cf65b828610610531575050506104db82602061033a95820101946104c9565b80546020878701810191909152909501948101610514565b61033a9750869350602092506104db94915060ff191682840152151560051b820101946104c9565b50503461024257816003193601126102425760065490516001600160a01b039091168152602090f35b83346102765780600319360112610276576105b3611097565b600680546001600160a01b0319811690915581906001600160a01b03167f8be0079c531659141344cd1fd0a4f28419497f9722a3daafe3b4186f6b6457e08280a380f35b509134610276576020366003190112610276576001600160a01b0361061a610fa5565b169283156106375750806020938392526003845220549051908152f35b91516322718ad960e21b815291820152602490fd5b509134610276576020366003190112610276575061066c602092356112cc565b90516001600160a01b039091168152f35b5050346102425760203660031901126102425760209181906001600160a01b036106a5610fa5565b168152600a845220549051908152f35b508234610276576020918260031936011261024257803567ffffffffffffffff918282116103c457366023830112156103c4578101359182116101c457602490368284830101116103c457610708611097565b610713600c546110c3565b601f81116107df575b508394601f841160011461075c575093839483949361074f575b5050508160011b916000199060031b1c191617600c5580f35b0101359050838080610736565b601f198416957fdf6966c971051c3d54ec59162606531493a51404a002842f56009d7e5cf4a8c7939186905b8882106107c55750508460019697106107a9575b50505050811b01600c5580f35b60001960f88660031b161c19920101351690558380808061079c565b806001849786839596890101358155019601920190610788565b7fdf6966c971051c3d54ec59162606531493a51404a002842f56009d7e5cf4a8c7601f850160051c810191878610610833575b601f0160051c01905b818110610828575061071c565b85815560010161081b565b9091508190610812565b5050346102425760203660031901126102425760209160ff9082906001600160a01b03610868610fa5565b168152600b855220541690519015158152f35b505034610242576102739061088f36610fd6565b9192519261089c8461103d565b8584526104548383836110fd565b5090346101c457610120806003193601126103c457366044116103c4573660c4116103c45761010491368311610d855782356002908160075414610d755781600755338752602093600b855260ff8489205416610d65578188526009855260ff8489205416610d555783519061091f8261100b565b6001968783528683019287368537805115610d425784845286516361971b8760e11b815292610124840192888c8087013760448d8c8b8884015b8c8410610d2d57509250505060c48087013784015251809152610144820192908a5b8989838310610d1b579350505050818060018060a01b039403818c867f0000000000000000000000000000000000000000000000000000000000000000165af1908115610d11578991610cd7575b5015610cc7578188526009855283882060ff19908782825416179055338952600b865286858a2091825416179055610a02600854611455565b9283600855845191610a138361103d565b8983523315610cb057848a5281875280868b205416151580610ca9575b610c99578490818b52828852868b2054168015159283610c6e575b33808d5260038a52888d2080548c019055838d52908952878c2080546001600160a01b03191682179055907fddf252ad1be2c89b69c2b068fc378daa952ba7f163c4a11628f55a4df523b3ef8c80a4610c5757333b610b14575b507f91878448ef87c3db4aeb83e60e7deb1240ecae3fd04975ec93547398514cb4ed93949550338752600a8552858388205582519081527f39c7a0be2574396927e6ea79689359d510f93baabccddecb840da959ef638965853392a3838151938685528401523392a260075580f35b83959351858180610b4c630a85bd0160e11b95868352338d8401528d6024840152886044840152608060648401526084830190610f80565b03818c335af1899181610c13575b50610bba5750505050503d600014610bb1573d610b768161107b565b90610b8384519283611059565b81528094823d92013e5b83519384610bab578251633250574960e11b81523381860152602490fd5b84925001fd5b60609350610b8d565b63ffffffff60e098939495989796971b1603610bfc575084939291907f91878448ef87c3db4aeb83e60e7deb1240ecae3fd04975ec93547398514cb4ed610aa5565b602490845190633250574960e11b82523390820152fd5b9091508681813d8311610c50575b610c2b8183611059565b81010312610c4c57516001600160e01b031981168103610c4c579038610b5a565b8980fd5b503d610c21565b83516339e3563760e11b8152808801899052602490fd5b8a8952878c2080546001600160a01b0319169055818c5260038952878c208054600019019055610a4b565b855163fcd0178f60e01b81528990fd5b5087610a30565b8551633250574960e11b8152808a018b9052602490fd5b83516309bde33960e01b81528790fd5b90508581813d8311610d0a575b610cee8183611059565b81010312610d0657518015158103610d0657386109c9565b8880fd5b503d610ce4565b85513d8b823e3d90fd5b8451875295860195909301920161097b565b808286819337019301910190918b8e91610959565b634e487b7160e01b8b5260328a5260248bfd5b8351636569570160e11b81528790fd5b8351631bbdf5c560e31b81528790fd5b8251633ee5aeb560e01b81528690fd5b8480fd5b505034610242578160031936011261024257517f00000000000000000000000000000000000000000000000000000000000000006001600160a01b03168152602090f35b833461027657610273610ddf36610fd6565b916110fd565b50913461027657816003193601126102765750610e00610fa5565b505163fcd0178f60e01b8152fd5b50346101c45760203660031901126101c457918260209335610e2f816112cc565b50825283528190205490516001600160a01b039091168152f35b505034610242578160031936011261024257805190828054610e6a816110c3565b808552916001918083169081156105495750600114610e95575050506104db8261033a940383611059565b80809650527f290decd9548b62a8d60345a988386fc84ba6bc95484008f6362f93160ef3e5635b828610610ed9575050506104db82602061033a95820101946104c9565b80546020878701810191909152909501948101610ebc565b925050346101c45760203660031901126101c4573563ffffffff60e01b81168091036101c457602092506380ac58cd60e01b8114908115610f4c575b8115610f3b575b5015158152f35b6301ffc9a760e01b14905038610f34565b635b5e139f60e01b81149150610f2d565b60005b838110610f705750506000910152565b8181015183820152602001610f60565b90602091610f9981518092818552858086019101610f5d565b601f01601f1916010190565b600435906001600160a01b0382168203610fbb57565b600080fd5b602435906001600160a01b0382168203610fbb57565b6060906003190112610fbb576001600160a01b03906004358281168103610fbb57916024359081168103610fbb579060443590565b6040810190811067ffffffffffffffff82111761102757604052565b634e487b7160e01b600052604160045260246000fd5b6020810190811067ffffffffffffffff82111761102757604052565b90601f8019910116810190811067ffffffffffffffff82111761102757604052565b67ffffffffffffffff811161102757601f01601f191660200190565b6006546001600160a01b031633036110ab57565b60405163118cdaa760e01b8152336004820152602490fd5b90600182811c921680156110f3575b60208310146110dd57565b634e487b7160e01b600052602260045260246000fd5b91607f16916110d2565b6001600160a01b0391821692909183156112b357600092828452602094600286526040958387872054161515806112ab575b61129a579084918287526002815284888820541696879133151580611204575b509060027fddf252ad1be2c89b69c2b068fc378daa952ba7f163c4a11628f55a4df523b3ef92846111d5575b858352600381528b8320805460010190558683525289812080546001600160a01b0319168517905580a416928383036111b45750505050565b6064945051926364283d7b60e01b8452600484015260248301526044820152fd5b868352600481528b832080546001600160a01b0319169055848352600381528b8320805460001901905561117b565b91939450915080611259575b156112205785929187913861114f565b87868861123d576024915190637e27328960e01b82526004820152fd5b604491519063177e802f60e01b82523360048301526024820152fd5b50338714801561127e575b806112105750858252600481523385898420541614611210565b5086825260058152878220338352815260ff8883205416611264565b865163fcd0178f60e01b8152600490fd5b50600161112f565b604051633250574960e11b815260006004820152602490fd5b6000818152600260205260409020546001600160a01b03169081156112ef575090565b60249060405190637e27328960e01b82526004820152fd5b90939192833b611319575b5050505050565b604051630a85bd0160e11b8082526001600160a01b039384166004830152958316602482015260448101919091526080606482015294921692602092918590611366906084830190610f80565b039483816000978189895af1869181611411575b506113db575050503d6000146113d2573d6113948161107b565b906113a26040519283611059565b81528093823d92013e5b825192836113cd57604051633250574960e11b815260048101849052602490fd5b019050fd5b606092506113ac565b919450915063ffffffff60e01b16036113f957503880808080611312565b60249060405190633250574960e11b82526004820152fd5b9091508481813d831161144e575b6114298183611059565b8101031261144a57516001600160e01b03198116810361144a57903861137a565b8680fd5b503d61141f565b60001981146114645760010190565b634e487b7160e01b600052601160045260246000fd5b6001600160a01b03166000818152600b602052604081205491929160ff161561150557600a6020526040812054918201908183116114f15791816040928385877f91878448ef87c3db4aeb83e60e7deb1240ecae3fd04975ec93547398514cb4ed9752600a602052205582519182526020820152a2565b634e487b7160e01b81526011600452602490fd5b505050565b80156115c757600081805b6115b357506115238161107b565b906115316040519283611059565b808252601f196115408261107b565b013660208401375b809280156115ac576000198201918211611464578193600a92603090848406820180921161146457855111156115965760f81b6001600160f81b03191660001a908401601f01530491611548565b634e487b7160e01b600052603260045260246000fd5b5050905090565b906115bf600a91611455565b910480611515565b506040516115d48161100b565b60018152600360fc1b60208201529056fea2646970667358221220688d78747d4c82263f56505c0066f565145d292dfab2327cda4b321c3452a4e564736f6c63430008140033","opcodes":"PUSH1 0xA0 PUSH1 0x40 MSTORE CALLVALUE PUSH3 0x58D JUMPI PUSH3 0x1C0A DUP1 CODESIZE SUB DUP1 PUSH3 0x1D DUP2 PUSH3 0x5C8 JUMP JUMPDEST SWAP3 DUP4 CODECOPY DUP2 ADD SWAP1 PUSH1 0x40 DUP2 DUP4 SUB SLT PUSH3 0x58D JUMPI DUP1 MLOAD PUSH1 0x1 PUSH1 0x1 PUSH1 0xA0 SHL SUB DUP1 DUP3 AND SWAP2 DUP3 SWAP1 SUB PUSH3 0x58D JUMPI PUSH1 0x20 SWAP4 DUP5 DUP5 ADD MLOAD PUSH1 0x1 DUP1 PUSH1 0x40 SHL SUB SWAP5 DUP6 DUP3 GT PUSH3 0x58D JUMPI ADD SWAP5 PUSH1 0x1F SWAP3 DUP3 DUP5 DUP9 ADD SLT ISZERO PUSH3 0x58D JUMPI DUP7 MLOAD DUP7 DUP2 GT PUSH3 0x592 JUMPI PUSH1 0x1F NOT SWAP8 PUSH3 0x8A DUP3 DUP8 ADD DUP11 AND DUP6 ADD PUSH3 0x5C8 JUMP JUMPDEST SWAP5 DUP3 DUP7 MSTORE DUP5 DUP4 DUP4 ADD ADD GT PUSH3 0x58D JUMPI DUP4 SWAP1 PUSH1 0x0 JUMPDEST DUP4 DUP2 LT PUSH3 0x578 JUMPI POP POP PUSH1 0x0 SWAP2 DUP6 ADD ADD MSTORE PUSH3 0xB9 PUSH3 0x5A8 JUMP JUMPDEST SWAP5 PUSH1 0x1B DUP7 MSTORE PUSH32 0x50726F6F662D6F662D4578697374656E63652050617373706F72740000000000 DUP4 DUP8 ADD MSTORE PUSH3 0xED PUSH3 0x5A8 JUMP JUMPDEST SWAP2 PUSH1 0x4 SWAP3 DUP4 DUP2 MSTORE PUSH4 0x504F455 PUSH1 0xE4 SHL DUP6 DUP3 ADD MSTORE DUP8 MLOAD DUP10 DUP2 GT PUSH3 0x47C JUMPI PUSH1 0x0 SLOAD SWAP9 PUSH1 0x1 SWAP10 DUP11 DUP2 DUP2 SHR SWAP2 AND DUP1 ISZERO PUSH3 0x56D JUMPI JUMPDEST DUP9 DUP3 LT EQ PUSH3 0x558 JUMPI SWAP1 DUP2 DUP11 DUP5 SWAP4 GT PUSH3 0x502 JUMPI JUMPDEST POP DUP8 SWAP1 DUP11 DUP4 GT PUSH1 0x1 EQ PUSH3 0x49D JUMPI PUSH1 0x0 SWAP3 PUSH3 0x491 JUMPI JUMPDEST POP POP PUSH1 0x0 NOT PUSH1 0x3 DUP4 SWAP1 SHL SHR NOT AND SWAP1 DUP10 SHL OR PUSH1 0x0 SSTORE JUMPDEST DUP1 MLOAD SWAP1 DUP10 DUP3 GT PUSH3 0x47C JUMPI DUP9 SLOAD DUP10 DUP2 DUP2 SHR SWAP2 AND DUP1 ISZERO PUSH3 0x471 JUMPI JUMPDEST DUP8 DUP3 LT EQ PUSH3 0x45C JUMPI SWAP1 DUP2 DUP10 DUP5 SWAP4 GT PUSH3 0x406 JUMPI JUMPDEST POP DUP7 SWAP1 DUP10 DUP4 GT PUSH1 0x1 EQ PUSH3 0x3A2 JUMPI PUSH1 0x0 SWAP3 PUSH3 0x396 JUMPI JUMPDEST POP POP PUSH1 0x0 NOT PUSH1 0x3 DUP4 SWAP1 SHL SHR NOT AND SWAP1 DUP9 SHL OR DUP8 SSTORE JUMPDEST CALLER ISZERO PUSH3 0x37E JUMPI PUSH1 0x6 DUP1 SLOAD CALLER PUSH1 0x1 PUSH1 0x1 PUSH1 0xA0 SHL SUB NOT DUP3 AND DUP2 OR SWAP1 SWAP3 SSTORE SWAP1 SWAP2 AND PUSH32 0x8BE0079C531659141344CD1FD0A4F28419497F9722A3DAAFE3B4186F6B6457E0 PUSH1 0x0 DUP1 LOG3 DUP6 PUSH1 0x7 SSTORE PUSH1 0x80 MSTORE DUP3 MLOAD SWAP6 DUP7 GT PUSH3 0x369 JUMPI PUSH1 0xC SLOAD SWAP1 DUP6 DUP3 DUP2 SHR SWAP3 AND DUP1 ISZERO PUSH3 0x35E JUMPI JUMPDEST DUP4 DUP4 LT EQ PUSH3 0x349 JUMPI POP DUP4 DUP2 GT PUSH3 0x2FD JUMPI JUMPDEST POP DUP1 SWAP3 DUP6 GT PUSH1 0x1 EQ PUSH3 0x292 JUMPI POP DUP4 SWAP5 POP SWAP1 DUP4 SWAP3 SWAP2 PUSH1 0x0 SWAP5 PUSH3 0x286 JUMPI JUMPDEST POP POP SHL SWAP2 PUSH1 0x0 NOT SWAP1 PUSH1 0x3 SHL SHR NOT AND OR PUSH1 0xC SSTORE JUMPDEST PUSH1 0x40 MLOAD PUSH2 0x161B SWAP1 DUP2 PUSH3 0x5EF DUP3 CODECOPY PUSH1 0x80 MLOAD DUP2 DUP2 DUP2 PUSH2 0x999 ADD MSTORE PUSH2 0xD9E ADD MSTORE RETURN JUMPDEST ADD MLOAD SWAP3 POP CODESIZE DUP1 PUSH3 0x253 JUMP JUMPDEST SWAP3 SWAP5 DUP5 SWAP1 DUP2 AND PUSH1 0xC PUSH1 0x0 MSTORE DUP5 PUSH1 0x0 KECCAK256 SWAP5 PUSH1 0x0 SWAP1 JUMPDEST DUP9 DUP4 DUP4 LT PUSH3 0x2E2 JUMPI POP POP POP LT PUSH3 0x2C8 JUMPI JUMPDEST POP POP POP DUP2 SHL ADD PUSH1 0xC SSTORE PUSH3 0x266 JUMP JUMPDEST ADD MLOAD PUSH1 0x0 NOT PUSH1 0xF8 DUP5 PUSH1 0x3 SHL AND SHR NOT AND SWAP1 SSTORE CODESIZE DUP1 DUP1 PUSH3 0x2B9 JUMP JUMPDEST DUP6 DUP8 ADD MLOAD DUP9 SSTORE SWAP1 SWAP7 ADD SWAP6 SWAP5 DUP6 ADD SWAP5 DUP8 SWAP4 POP SWAP1 DUP2 ADD SWAP1 PUSH3 0x2A6 JUMP JUMPDEST PUSH1 0xC PUSH1 0x0 MSTORE DUP2 PUSH1 0x0 KECCAK256 DUP5 DUP1 DUP9 ADD PUSH1 0x5 SHR DUP3 ADD SWAP3 DUP5 DUP10 LT PUSH3 0x33F JUMPI JUMPDEST ADD PUSH1 0x5 SHR ADD SWAP1 DUP6 SWAP1 JUMPDEST DUP3 DUP2 LT PUSH3 0x332 JUMPI POP POP PUSH3 0x235 JUMP JUMPDEST PUSH1 0x0 DUP2 SSTORE ADD DUP6 SWAP1 PUSH3 0x322 JUMP JUMPDEST SWAP3 POP DUP2 SWAP3 PUSH3 0x319 JUMP JUMPDEST PUSH1 0x22 SWAP1 PUSH4 0x4E487B71 PUSH1 0xE0 SHL PUSH1 0x0 MSTORE MSTORE PUSH1 0x24 PUSH1 0x0 REVERT JUMPDEST SWAP2 PUSH1 0x7F AND SWAP2 PUSH3 0x222 JUMP JUMPDEST PUSH1 0x41 SWAP1 PUSH4 0x4E487B71 PUSH1 0xE0 SHL PUSH1 0x0 MSTORE MSTORE PUSH1 0x24 PUSH1 0x0 REVERT JUMPDEST PUSH1 0x40 MLOAD PUSH4 0x1E4FBDF7 PUSH1 0xE0 SHL DUP2 MSTORE PUSH1 0x0 DUP2 DUP6 ADD MSTORE PUSH1 0x24 SWAP1 REVERT JUMPDEST ADD MLOAD SWAP1 POP CODESIZE DUP1 PUSH3 0x1A7 JUMP JUMPDEST SWAP1 DUP13 DUP12 SWAP5 AND SWAP2 DUP5 PUSH1 0x0 MSTORE DUP9 PUSH1 0x0 KECCAK256 SWAP3 PUSH1 0x0 JUMPDEST DUP11 DUP3 DUP3 LT PUSH3 0x3EF JUMPI POP POP DUP5 GT PUSH3 0x3D5 JUMPI JUMPDEST POP POP POP DUP2 SHL ADD DUP8 SSTORE PUSH3 0x1BB JUMP JUMPDEST ADD MLOAD PUSH1 0x0 NOT PUSH1 0xF8 DUP5 PUSH1 0x3 SHL AND SHR NOT AND SWAP1 SSTORE CODESIZE DUP1 DUP1 PUSH3 0x3C7 JUMP JUMPDEST DUP4 DUP6 ADD MLOAD DUP7 SSTORE DUP15 SWAP8 SWAP1 SWAP6 ADD SWAP5 SWAP4 DUP5 ADD SWAP4 ADD PUSH3 0x3B4 JUMP JUMPDEST SWAP1 SWAP2 POP DUP10 PUSH1 0x0 MSTORE DUP7 PUSH1 0x0 KECCAK256 DUP10 DUP1 DUP6 ADD PUSH1 0x5 SHR DUP3 ADD SWAP3 DUP10 DUP7 LT PUSH3 0x452 JUMPI JUMPDEST SWAP2 DUP13 SWAP2 DUP7 SWAP6 SWAP5 SWAP4 ADD PUSH1 0x5 SHR ADD SWAP2 JUMPDEST DUP3 DUP2 LT PUSH3 0x442 JUMPI POP POP PUSH3 0x190 JUMP JUMPDEST PUSH1 0x0 DUP2 SSTORE DUP6 SWAP5 POP DUP13 SWAP2 ADD PUSH3 0x432 JUMP JUMPDEST SWAP3 POP DUP2 SWAP3 PUSH3 0x424 JUMP JUMPDEST PUSH1 0x22 DUP7 PUSH4 0x4E487B71 PUSH1 0xE0 SHL PUSH1 0x0 MSTORE MSTORE PUSH1 0x24 PUSH1 0x0 REVERT JUMPDEST SWAP1 PUSH1 0x7F AND SWAP1 PUSH3 0x17B JUMP JUMPDEST PUSH1 0x41 DUP6 PUSH4 0x4E487B71 PUSH1 0xE0 SHL PUSH1 0x0 MSTORE MSTORE PUSH1 0x24 PUSH1 0x0 REVERT JUMPDEST ADD MLOAD SWAP1 POP CODESIZE DUP1 PUSH3 0x14B JUMP JUMPDEST SWAP1 DUP14 DUP13 SWAP5 AND SWAP2 PUSH1 0x0 DUP1 MSTORE DUP10 PUSH1 0x0 KECCAK256 SWAP3 PUSH1 0x0 JUMPDEST DUP12 DUP3 DUP3 LT PUSH3 0x4EB JUMPI POP POP DUP5 GT PUSH3 0x4D1 JUMPI JUMPDEST POP POP POP DUP2 SHL ADD PUSH1 0x0 SSTORE PUSH3 0x160 JUMP JUMPDEST ADD MLOAD PUSH1 0x0 NOT PUSH1 0xF8 DUP5 PUSH1 0x3 SHL AND SHR NOT AND SWAP1 SSTORE CODESIZE DUP1 DUP1 PUSH3 0x4C2 JUMP JUMPDEST DUP4 DUP6 ADD MLOAD DUP7 SSTORE DUP16 SWAP8 SWAP1 SWAP6 ADD SWAP5 SWAP4 DUP5 ADD SWAP4 ADD PUSH3 0x4AF JUMP JUMPDEST SWAP1 SWAP2 POP PUSH1 0x0 DUP1 MSTORE DUP8 PUSH1 0x0 KECCAK256 DUP11 DUP1 DUP6 ADD PUSH1 0x5 SHR DUP3 ADD SWAP3 DUP11 DUP7 LT PUSH3 0x54E JUMPI JUMPDEST SWAP2 DUP14 SWAP2 DUP7 SWAP6 SWAP5 SWAP4 ADD PUSH1 0x5 SHR ADD SWAP2 JUMPDEST DUP3 DUP2 LT PUSH3 0x53E JUMPI POP POP PUSH3 0x134 JUMP JUMPDEST PUSH1 0x0 DUP2 SSTORE DUP6 SWAP5 POP DUP14 SWAP2 ADD PUSH3 0x52E JUMP JUMPDEST SWAP3 POP DUP2 SWAP3 PUSH3 0x520 JUMP JUMPDEST PUSH1 0x22 DUP8 PUSH4 0x4E487B71 PUSH1 0xE0 SHL PUSH1 0x0 MSTORE MSTORE PUSH1 0x24 PUSH1 0x0 REVERT JUMPDEST SWAP1 PUSH1 0x7F AND SWAP1 PUSH3 0x11F JUMP JUMPDEST DUP2 DUP2 ADD DUP4 ADD MLOAD DUP8 DUP3 ADD DUP5 ADD MSTORE DUP6 SWAP3 ADD PUSH3 0x9E JUMP JUMPDEST PUSH1 0x0 DUP1 REVERT JUMPDEST PUSH4 0x4E487B71 PUSH1 0xE0 SHL PUSH1 0x0 MSTORE PUSH1 0x41 PUSH1 0x4 MSTORE PUSH1 0x24 PUSH1 0x0 REVERT JUMPDEST PUSH1 0x40 DUP1 MLOAD SWAP2 SWAP1 DUP3 ADD PUSH1 0x1 PUSH1 0x1 PUSH1 0x40 SHL SUB DUP2 GT DUP4 DUP3 LT OR PUSH3 0x592 JUMPI PUSH1 0x40 MSTORE JUMP JUMPDEST PUSH1 0x40 MLOAD SWAP2 SWAP1 PUSH1 0x1F ADD PUSH1 0x1F NOT AND DUP3 ADD PUSH1 0x1 PUSH1 0x1 PUSH1 0x40 SHL SUB DUP2 GT DUP4 DUP3 LT OR PUSH3 0x592 JUMPI PUSH1 0x40 MSTORE JUMP INVALID PUSH1 0x80 PUSH1 0x40 DUP2 DUP2 MSTORE PUSH1 0x4 DUP1 CALLDATASIZE LT ISZERO PUSH2 0x15 JUMPI PUSH1 0x0 DUP1 REVERT JUMPDEST PUSH1 0x0 SWAP3 DUP4 CALLDATALOAD PUSH1 0xE0 SHR SWAP1 DUP2 PUSH4 0x1FFC9A7 EQ PUSH2 0xEF1 JUMPI POP DUP1 PUSH4 0x6FDDE03 EQ PUSH2 0xE49 JUMPI DUP1 PUSH4 0x81812FC EQ PUSH2 0xE0E JUMPI DUP1 PUSH4 0x95EA7B3 EQ PUSH2 0xDE5 JUMPI DUP1 PUSH4 0x12DF0FC4 EQ PUSH2 0x67D JUMPI DUP1 PUSH4 0x23B872DD EQ PUSH2 0xDCD JUMPI DUP1 PUSH4 0x2B7AC3F3 EQ PUSH2 0xD89 JUMPI DUP1 PUSH4 0x30040DA5 EQ PUSH2 0x8AA JUMPI DUP1 PUSH4 0x38E21CCE EQ PUSH2 0x83D JUMPI DUP1 PUSH4 0x42842E0E EQ PUSH2 0x87B JUMPI DUP1 PUSH4 0x4DC30E87 EQ PUSH2 0x83D JUMPI DUP1 PUSH4 0x55F804B3 EQ PUSH2 0x6B5 JUMPI DUP1 PUSH4 0x5D514423 EQ PUSH2 0x67D JUMPI DUP1 PUSH4 0x6352211E EQ PUSH2 0x64C JUMPI DUP1 PUSH4 0x70A08231 EQ PUSH2 0x5F7 JUMPI DUP1 PUSH4 0x715018A6 EQ PUSH2 0x59A JUMPI DUP1 PUSH4 0x8DA5CB5B EQ PUSH2 0x571 JUMPI DUP1 PUSH4 0x95D89B41 EQ PUSH2 0x48E JUMPI DUP1 PUSH4 0xA22CB465 EQ PUSH2 0x45A JUMPI DUP1 PUSH4 0xB88D4FDE EQ PUSH2 0x3C8 JUMPI DUP1 PUSH4 0xC87B56DD EQ PUSH2 0x279 JUMPI DUP1 PUSH4 0xD119DB4C EQ PUSH2 0x246 JUMPI DUP1 PUSH4 0xE985E9C5 EQ PUSH2 0x1F4 JUMPI DUP1 PUSH4 0xF2393BCF EQ PUSH2 0x1C8 JUMPI PUSH4 0xF2FDE38B EQ PUSH2 0x136 JUMPI PUSH1 0x0 DUP1 REVERT JUMPDEST CALLVALUE PUSH2 0x1C4 JUMPI PUSH1 0x20 CALLDATASIZE PUSH1 0x3 NOT ADD SLT PUSH2 0x1C4 JUMPI PUSH2 0x14F PUSH2 0xFA5 JUMP JUMPDEST SWAP1 PUSH2 0x158 PUSH2 0x1097 JUMP JUMPDEST PUSH1 0x1 PUSH1 0x1 PUSH1 0xA0 SHL SUB SWAP2 DUP3 AND SWAP3 DUP4 ISZERO PUSH2 0x1AE JUMPI POP POP PUSH1 0x6 SLOAD DUP3 PUSH12 0xFFFFFFFFFFFFFFFFFFFFFFFF PUSH1 0xA0 SHL DUP3 AND OR PUSH1 0x6 SSTORE AND PUSH32 0x8BE0079C531659141344CD1FD0A4F28419497F9722A3DAAFE3B4186F6B6457E0 DUP4 DUP1 LOG3 DUP1 RETURN JUMPDEST MLOAD PUSH4 0x1E4FBDF7 PUSH1 0xE0 SHL DUP2 MSTORE SWAP1 DUP2 ADD DUP5 SWAP1 MSTORE PUSH1 0x24 SWAP1 REVERT JUMPDEST DUP3 DUP1 REVERT JUMPDEST POP CALLVALUE PUSH2 0x1C4 JUMPI PUSH1 0x20 CALLDATASIZE PUSH1 0x3 NOT ADD SLT PUSH2 0x1C4 JUMPI DUP2 PUSH1 0x20 SWAP4 PUSH1 0xFF SWAP3 CALLDATALOAD DUP2 MSTORE PUSH1 0x9 DUP6 MSTORE KECCAK256 SLOAD AND SWAP1 MLOAD SWAP1 ISZERO ISZERO DUP2 MSTORE RETURN JUMPDEST POP POP CALLVALUE PUSH2 0x242 JUMPI DUP1 PUSH1 0x3 NOT CALLDATASIZE ADD SLT PUSH2 0x242 JUMPI PUSH1 0xFF DUP2 PUSH1 0x20 SWAP4 PUSH2 0x214 PUSH2 0xFA5 JUMP JUMPDEST PUSH2 0x21C PUSH2 0xFC0 JUMP JUMPDEST PUSH1 0x1 PUSH1 0x1 PUSH1 0xA0 SHL SUB SWAP2 DUP3 AND DUP4 MSTORE PUSH1 0x5 DUP8 MSTORE DUP4 DUP4 KECCAK256 SWAP2 AND DUP3 MSTORE DUP6 MSTORE KECCAK256 SLOAD SWAP2 MLOAD SWAP2 AND ISZERO ISZERO DUP2 MSTORE RETURN JUMPDEST POP DUP1 REVERT JUMPDEST POP POP CALLVALUE PUSH2 0x242 JUMPI CALLDATASIZE PUSH1 0x3 NOT ADD SLT PUSH2 0x276 JUMPI PUSH2 0x273 PUSH2 0x262 PUSH2 0xFA5 JUMP JUMPDEST PUSH2 0x26A PUSH2 0x1097 JUMP JUMPDEST PUSH1 0x24 CALLDATALOAD SWAP1 PUSH2 0x147A JUMP JUMPDEST DUP1 RETURN JUMPDEST DUP1 REVERT JUMPDEST POP SWAP1 CALLVALUE PUSH2 0x1C4 JUMPI PUSH1 0x20 SWAP2 DUP3 PUSH1 0x3 NOT CALLDATASIZE ADD SLT PUSH2 0x3C4 JUMPI CALLDATALOAD PUSH2 0x298 DUP2 PUSH2 0x12CC JUMP JUMPDEST POP PUSH1 0x1 PUSH1 0x1 PUSH1 0xA0 SHL SUB SWAP1 PUSH2 0x2AB SWAP1 PUSH2 0x12CC JUMP JUMPDEST AND DUP4 MSTORE PUSH1 0xA DUP3 MSTORE PUSH2 0x2BE DUP2 DUP5 KECCAK256 SLOAD PUSH2 0x150A JUMP JUMPDEST DUP2 MLOAD PUSH1 0xC SLOAD SWAP1 SWAP5 DUP6 SWAP3 SWAP2 DUP2 PUSH2 0x2D2 DUP3 PUSH2 0x10C3 JUMP JUMPDEST SWAP2 PUSH1 0x1 SWAP1 DUP9 DUP3 DUP3 AND SWAP2 DUP3 PUSH1 0x0 EQ PUSH2 0x3A0 JUMPI POP POP PUSH1 0x1 EQ PUSH2 0x33E JUMPI JUMPDEST POP POP POP PUSH2 0x33A SWAP4 SWAP3 PUSH2 0x32B SWAP3 DUP3 PUSH7 0x3F73636F72653D PUSH1 0xC8 SHL PUSH1 0x7 SWAP5 MSTORE PUSH2 0x31B DUP3 MLOAD DUP1 SWAP4 DUP11 DUP8 DUP6 ADD SWAP2 ADD PUSH2 0xF5D JUMP JUMPDEST ADD SUB PUSH1 0x18 NOT DUP2 ADD DUP8 MSTORE ADD DUP6 PUSH2 0x1059 JUMP JUMPDEST MLOAD SWAP3 DUP3 DUP5 SWAP4 DUP5 MSTORE DUP4 ADD SWAP1 PUSH2 0xF80 JUMP JUMPDEST SUB SWAP1 RETURN JUMPDEST DUP8 SWAP3 SWAP7 SWAP6 SWAP5 SWAP4 POP PUSH1 0xC DUP3 MSTORE PUSH32 0xDF6966C971051C3D54EC59162606531493A51404A002842F56009D7E5CF4A8C7 JUMPDEST DUP8 DUP4 LT PUSH2 0x388 JUMPI POP SWAP5 SWAP6 SWAP4 SWAP5 POP SWAP2 SWAP3 DUP5 ADD ADD SWAP1 POP DUP3 DUP3 PUSH1 0x7 PUSH2 0x2ED JUMP JUMPDEST DUP1 SLOAD DUP4 DUP12 ADD DUP6 ADD MSTORE DUP10 SWAP6 POP DUP9 SWAP4 SWAP1 SWAP3 ADD SWAP2 DUP2 ADD PUSH2 0x36B JUMP JUMPDEST PUSH1 0xFF NOT AND DUP9 DUP3 ADD MSTORE DUP5 ISZERO ISZERO SWAP1 SWAP5 MUL DUP8 ADD SWAP1 SWAP4 ADD SWAP4 POP DUP6 SWAP3 POP DUP5 SWAP2 POP PUSH1 0x7 SWAP1 POP PUSH2 0x2ED JUMP JUMPDEST DUP4 DUP1 REVERT JUMPDEST POP SWAP1 CALLVALUE PUSH2 0x1C4 JUMPI PUSH1 0x80 CALLDATASIZE PUSH1 0x3 NOT ADD SLT PUSH2 0x1C4 JUMPI PUSH2 0x3E3 PUSH2 0xFA5 JUMP JUMPDEST PUSH2 0x3EB PUSH2 0xFC0 JUMP JUMPDEST PUSH1 0x44 CALLDATALOAD SWAP2 DUP6 PUSH1 0x64 CALLDATALOAD SWAP6 PUSH8 0xFFFFFFFFFFFFFFFF DUP8 GT PUSH2 0x242 JUMPI CALLDATASIZE PUSH1 0x23 DUP9 ADD SLT ISZERO PUSH2 0x242 JUMPI DUP7 ADD CALLDATALOAD SWAP6 PUSH2 0x427 PUSH2 0x41E DUP9 PUSH2 0x107B JUMP JUMPDEST SWAP7 MLOAD SWAP7 DUP8 PUSH2 0x1059 JUMP JUMPDEST DUP7 DUP7 MSTORE CALLDATASIZE PUSH1 0x24 DUP9 DUP4 ADD ADD GT PUSH2 0x242 JUMPI DUP7 PUSH2 0x273 SWAP8 PUSH1 0x24 PUSH1 0x20 SWAP4 ADD DUP4 DUP10 ADD CALLDATACOPY DUP7 ADD ADD MSTORE PUSH2 0x454 DUP4 DUP4 DUP4 PUSH2 0x10FD JUMP JUMPDEST CALLER PUSH2 0x1307 JUMP JUMPDEST POP SWAP2 CALLVALUE PUSH2 0x276 JUMPI DUP2 PUSH1 0x3 NOT CALLDATASIZE ADD SLT PUSH2 0x276 JUMPI PUSH2 0x474 PUSH2 0xFA5 JUMP JUMPDEST POP PUSH1 0x24 CALLDATALOAD DUP1 ISZERO ISZERO SUB PUSH2 0x276 JUMPI POP MLOAD PUSH4 0xFCD0178F PUSH1 0xE0 SHL DUP2 MSTORE REVERT JUMPDEST POP POP CALLVALUE PUSH2 0x242 JUMPI DUP2 PUSH1 0x3 NOT CALLDATASIZE ADD SLT PUSH2 0x242 JUMPI DUP1 MLOAD SWAP1 DUP3 PUSH1 0x1 DUP1 SLOAD SWAP2 PUSH2 0x4B2 DUP4 PUSH2 0x10C3 JUMP JUMPDEST DUP1 DUP7 MSTORE SWAP3 DUP3 DUP2 AND SWAP1 DUP2 ISZERO PUSH2 0x549 JUMPI POP PUSH1 0x1 EQ PUSH2 0x4ED JUMPI JUMPDEST POP POP POP PUSH2 0x4DB DUP3 PUSH2 0x33A SWAP5 SUB DUP4 PUSH2 0x1059 JUMP JUMPDEST MLOAD SWAP2 DUP3 SWAP2 PUSH1 0x20 DUP4 MSTORE PUSH1 0x20 DUP4 ADD SWAP1 PUSH2 0xF80 JUMP JUMPDEST SWAP5 POP DUP1 DUP6 MSTORE PUSH32 0xB10E2D527612073B26EECDFD717E6A320CF44B4AFAC2B0732D9FCBE2B7FA0CF6 JUMPDEST DUP3 DUP7 LT PUSH2 0x531 JUMPI POP POP POP PUSH2 0x4DB DUP3 PUSH1 0x20 PUSH2 0x33A SWAP6 DUP3 ADD ADD SWAP5 PUSH2 0x4C9 JUMP JUMPDEST DUP1 SLOAD PUSH1 0x20 DUP8 DUP8 ADD DUP2 ADD SWAP2 SWAP1 SWAP2 MSTORE SWAP1 SWAP6 ADD SWAP5 DUP2 ADD PUSH2 0x514 JUMP JUMPDEST PUSH2 0x33A SWAP8 POP DUP7 SWAP4 POP PUSH1 0x20 SWAP3 POP PUSH2 0x4DB SWAP5 SWAP2 POP PUSH1 0xFF NOT AND DUP3 DUP5 ADD MSTORE ISZERO ISZERO PUSH1 0x5 SHL DUP3 ADD ADD SWAP5 PUSH2 0x4C9 JUMP JUMPDEST POP POP CALLVALUE PUSH2 0x242 JUMPI DUP2 PUSH1 0x3 NOT CALLDATASIZE ADD SLT PUSH2 0x242 JUMPI PUSH1 0x6 SLOAD SWAP1 MLOAD PUSH1 0x1 PUSH1 0x1 PUSH1 0xA0 SHL SUB SWAP1 SWAP2 AND DUP2 MSTORE PUSH1 0x20 SWAP1 RETURN JUMPDEST DUP4 CALLVALUE PUSH2 0x276 JUMPI DUP1 PUSH1 0x3 NOT CALLDATASIZE ADD SLT PUSH2 0x276 JUMPI PUSH2 0x5B3 PUSH2 0x1097 JUMP JUMPDEST PUSH1 0x6 DUP1 SLOAD PUSH1 0x1 PUSH1 0x1 PUSH1 0xA0 SHL SUB NOT DUP2 AND SWAP1 SWAP2 SSTORE DUP2 SWAP1 PUSH1 0x1 PUSH1 0x1 PUSH1 0xA0 SHL SUB AND PUSH32 0x8BE0079C531659141344CD1FD0A4F28419497F9722A3DAAFE3B4186F6B6457E0 DUP3 DUP1 LOG3 DUP1 RETURN JUMPDEST POP SWAP2 CALLVALUE PUSH2 0x276 JUMPI PUSH1 0x20 CALLDATASIZE PUSH1 0x3 NOT ADD SLT PUSH2 0x276 JUMPI PUSH1 0x1 PUSH1 0x1 PUSH1 0xA0 SHL SUB PUSH2 0x61A PUSH2 0xFA5 JUMP JUMPDEST AND SWAP3 DUP4 ISZERO PUSH2 0x637 JUMPI POP DUP1 PUSH1 0x20 SWAP4 DUP4 SWAP3 MSTORE PUSH1 0x3 DUP5 MSTORE KECCAK256 SLOAD SWAP1 MLOAD SWAP1 DUP2 MSTORE RETURN JUMPDEST SWAP2 MLOAD PUSH4 0x22718AD9 PUSH1 0xE2 SHL DUP2 MSTORE SWAP2 DUP3 ADD MSTORE PUSH1 0x24 SWAP1 REVERT JUMPDEST POP SWAP2 CALLVALUE PUSH2 0x276 JUMPI PUSH1 0x20 CALLDATASIZE PUSH1 0x3 NOT ADD SLT PUSH2 0x276 JUMPI POP PUSH2 0x66C PUSH1 0x20 SWAP3 CALLDATALOAD PUSH2 0x12CC JUMP JUMPDEST SWAP1 MLOAD PUSH1 0x1 PUSH1 0x1 PUSH1 0xA0 SHL SUB SWAP1 SWAP2 AND DUP2 MSTORE RETURN JUMPDEST POP POP CALLVALUE PUSH2 0x242 JUMPI PUSH1 0x20 CALLDATASIZE PUSH1 0x3 NOT ADD SLT PUSH2 0x242 JUMPI PUSH1 0x20 SWAP2 DUP2 SWAP1 PUSH1 0x1 PUSH1 0x1 PUSH1 0xA0 SHL SUB PUSH2 0x6A5 PUSH2 0xFA5 JUMP JUMPDEST AND DUP2 MSTORE PUSH1 0xA DUP5 MSTORE KECCAK256 SLOAD SWAP1 MLOAD SWAP1 DUP2 MSTORE RETURN JUMPDEST POP DUP3 CALLVALUE PUSH2 0x276 JUMPI PUSH1 0x20 SWAP2 DUP3 PUSH1 0x3 NOT CALLDATASIZE ADD SLT PUSH2 0x242 JUMPI DUP1 CALLDATALOAD PUSH8 0xFFFFFFFFFFFFFFFF SWAP2 DUP3 DUP3 GT PUSH2 0x3C4 JUMPI CALLDATASIZE PUSH1 0x23 DUP4 ADD SLT ISZERO PUSH2 0x3C4 JUMPI DUP2 ADD CALLDATALOAD SWAP2 DUP3 GT PUSH2 0x1C4 JUMPI PUSH1 0x24 SWAP1 CALLDATASIZE DUP3 DUP5 DUP4 ADD ADD GT PUSH2 0x3C4 JUMPI PUSH2 0x708 PUSH2 0x1097 JUMP JUMPDEST PUSH2 0x713 PUSH1 0xC SLOAD PUSH2 0x10C3 JUMP JUMPDEST PUSH1 0x1F DUP2 GT PUSH2 0x7DF JUMPI JUMPDEST POP DUP4 SWAP5 PUSH1 0x1F DUP5 GT PUSH1 0x1 EQ PUSH2 0x75C JUMPI POP SWAP4 DUP4 SWAP5 DUP4 SWAP5 SWAP4 PUSH2 0x74F JUMPI JUMPDEST POP POP POP DUP2 PUSH1 0x1 SHL SWAP2 PUSH1 0x0 NOT SWAP1 PUSH1 0x3 SHL SHR NOT AND OR PUSH1 0xC SSTORE DUP1 RETURN JUMPDEST ADD ADD CALLDATALOAD SWAP1 POP DUP4 DUP1 DUP1 PUSH2 0x736 JUMP JUMPDEST PUSH1 0x1F NOT DUP5 AND SWAP6 PUSH32 0xDF6966C971051C3D54EC59162606531493A51404A002842F56009D7E5CF4A8C7 SWAP4 SWAP2 DUP7 SWAP1 JUMPDEST DUP9 DUP3 LT PUSH2 0x7C5 JUMPI POP POP DUP5 PUSH1 0x1 SWAP7 SWAP8 LT PUSH2 0x7A9 JUMPI JUMPDEST POP POP POP POP DUP2 SHL ADD PUSH1 0xC SSTORE DUP1 RETURN JUMPDEST PUSH1 0x0 NOT PUSH1 0xF8 DUP7 PUSH1 0x3 SHL AND SHR NOT SWAP3 ADD ADD CALLDATALOAD AND SWAP1 SSTORE DUP4 DUP1 DUP1 DUP1 PUSH2 0x79C JUMP JUMPDEST DUP1 PUSH1 0x1 DUP5 SWAP8 DUP7 DUP4 SWAP6 SWAP7 DUP10 ADD ADD CALLDATALOAD DUP2 SSTORE ADD SWAP7 ADD SWAP3 ADD SWAP1 PUSH2 0x788 JUMP JUMPDEST PUSH32 0xDF6966C971051C3D54EC59162606531493A51404A002842F56009D7E5CF4A8C7 PUSH1 0x1F DUP6 ADD PUSH1 0x5 SHR DUP2 ADD SWAP2 DUP8 DUP7 LT PUSH2 0x833 JUMPI JUMPDEST PUSH1 0x1F ADD PUSH1 0x5 SHR ADD SWAP1 JUMPDEST DUP2 DUP2 LT PUSH2 0x828 JUMPI POP PUSH2 0x71C JUMP JUMPDEST DUP6 DUP2 SSTORE PUSH1 0x1 ADD PUSH2 0x81B JUMP JUMPDEST SWAP1 SWAP2 POP DUP2 SWAP1 PUSH2 0x812 JUMP JUMPDEST POP POP CALLVALUE PUSH2 0x242 JUMPI PUSH1 0x20 CALLDATASIZE PUSH1 0x3 NOT ADD SLT PUSH2 0x242 JUMPI PUSH1 0x20 SWAP2 PUSH1 0xFF SWAP1 DUP3 SWAP1 PUSH1 0x1 PUSH1 0x1 PUSH1 0xA0 SHL SUB PUSH2 0x868 PUSH2 0xFA5 JUMP JUMPDEST AND DUP2 MSTORE PUSH1 0xB DUP6 MSTORE KECCAK256 SLOAD AND SWAP1 MLOAD SWAP1 ISZERO ISZERO DUP2 MSTORE RETURN JUMPDEST POP POP CALLVALUE PUSH2 0x242 JUMPI PUSH2 0x273 SWAP1 PUSH2 0x88F CALLDATASIZE PUSH2 0xFD6 JUMP JUMPDEST SWAP2 SWAP3 MLOAD SWAP3 PUSH2 0x89C DUP5 PUSH2 0x103D JUMP JUMPDEST DUP6 DUP5 MSTORE PUSH2 0x454 DUP4 DUP4 DUP4 PUSH2 0x10FD JUMP JUMPDEST POP SWAP1 CALLVALUE PUSH2 0x1C4 JUMPI PUSH2 0x120 DUP1 PUSH1 0x3 NOT CALLDATASIZE ADD SLT PUSH2 0x3C4 JUMPI CALLDATASIZE PUSH1 0x44 GT PUSH2 0x3C4 JUMPI CALLDATASIZE PUSH1 0xC4 GT PUSH2 0x3C4 JUMPI PUSH2 0x104 SWAP2 CALLDATASIZE DUP4 GT PUSH2 0xD85 JUMPI DUP3 CALLDATALOAD PUSH1 0x2 SWAP1 DUP2 PUSH1 0x7 SLOAD EQ PUSH2 0xD75 JUMPI DUP2 PUSH1 0x7 SSTORE CALLER DUP8 MSTORE PUSH1 0x20 SWAP4 PUSH1 0xB DUP6 MSTORE PUSH1 0xFF DUP5 DUP10 KECCAK256 SLOAD AND PUSH2 0xD65 JUMPI DUP2 DUP9 MSTORE PUSH1 0x9 DUP6 MSTORE PUSH1 0xFF DUP5 DUP10 KECCAK256 SLOAD AND PUSH2 0xD55 JUMPI DUP4 MLOAD SWAP1 PUSH2 0x91F DUP3 PUSH2 0x100B JUMP JUMPDEST PUSH1 0x1 SWAP7 DUP8 DUP4 MSTORE DUP7 DUP4 ADD SWAP3 DUP8 CALLDATASIZE DUP6 CALLDATACOPY DUP1 MLOAD ISZERO PUSH2 0xD42 JUMPI DUP5 DUP5 MSTORE DUP7 MLOAD PUSH4 0x61971B87 PUSH1 0xE1 SHL DUP2 MSTORE SWAP3 PUSH2 0x124 DUP5 ADD SWAP3 DUP9 DUP13 DUP1 DUP8 ADD CALLDATACOPY PUSH1 0x44 DUP14 DUP13 DUP12 DUP9 DUP5 ADD JUMPDEST DUP13 DUP5 LT PUSH2 0xD2D JUMPI POP SWAP3 POP POP POP PUSH1 0xC4 DUP1 DUP8 ADD CALLDATACOPY DUP5 ADD MSTORE MLOAD DUP1 SWAP2 MSTORE PUSH2 0x144 DUP3 ADD SWAP3 SWAP1 DUP11 JUMPDEST DUP10 DUP10 DUP4 DUP4 LT PUSH2 0xD1B JUMPI SWAP4 POP POP POP POP DUP2 DUP1 PUSH1 0x1 DUP1 PUSH1 0xA0 SHL SUB SWAP5 SUB DUP2 DUP13 DUP7 PUSH32 0x0 AND GAS CALL SWAP1 DUP2 ISZERO PUSH2 0xD11 JUMPI DUP10 SWAP2 PUSH2 0xCD7 JUMPI JUMPDEST POP ISZERO PUSH2 0xCC7 JUMPI DUP2 DUP9 MSTORE PUSH1 0x9 DUP6 MSTORE DUP4 DUP9 KECCAK256 PUSH1 0xFF NOT SWAP1 DUP8 DUP3 DUP3 SLOAD AND OR SWAP1 SSTORE CALLER DUP10 MSTORE PUSH1 0xB DUP7 MSTORE DUP7 DUP6 DUP11 KECCAK256 SWAP2 DUP3 SLOAD AND OR SWAP1 SSTORE PUSH2 0xA02 PUSH1 0x8 SLOAD PUSH2 0x1455 JUMP JUMPDEST SWAP3 DUP4 PUSH1 0x8 SSTORE DUP5 MLOAD SWAP2 PUSH2 0xA13 DUP4 PUSH2 0x103D JUMP JUMPDEST DUP10 DUP4 MSTORE CALLER ISZERO PUSH2 0xCB0 JUMPI DUP5 DUP11 MSTORE DUP2 DUP8 MSTORE DUP1 DUP7 DUP12 KECCAK256 SLOAD AND ISZERO ISZERO DUP1 PUSH2 0xCA9 JUMPI JUMPDEST PUSH2 0xC99 JUMPI DUP5 SWAP1 DUP2 DUP12 MSTORE DUP3 DUP9 MSTORE DUP7 DUP12 KECCAK256 SLOAD AND DUP1 ISZERO ISZERO SWAP3 DUP4 PUSH2 0xC6E JUMPI JUMPDEST CALLER DUP1 DUP14 MSTORE PUSH1 0x3 DUP11 MSTORE DUP9 DUP14 KECCAK256 DUP1 SLOAD DUP13 ADD SWAP1 SSTORE DUP4 DUP14 MSTORE SWAP1 DUP10 MSTORE DUP8 DUP13 KECCAK256 DUP1 SLOAD PUSH1 0x1 PUSH1 0x1 PUSH1 0xA0 SHL SUB NOT AND DUP3 OR SWAP1 SSTORE SWAP1 PUSH32 0xDDF252AD1BE2C89B69C2B068FC378DAA952BA7F163C4A11628F55A4DF523B3EF DUP13 DUP1 LOG4 PUSH2 0xC57 JUMPI CALLER EXTCODESIZE PUSH2 0xB14 JUMPI JUMPDEST POP PUSH32 0x91878448EF87C3DB4AEB83E60E7DEB1240ECAE3FD04975EC93547398514CB4ED SWAP4 SWAP5 SWAP6 POP CALLER DUP8 MSTORE PUSH1 0xA DUP6 MSTORE DUP6 DUP4 DUP9 KECCAK256 SSTORE DUP3 MLOAD SWAP1 DUP2 MSTORE PUSH32 0x39C7A0BE2574396927E6EA79689359D510F93BAABCCDDECB840DA959EF638965 DUP6 CALLER SWAP3 LOG3 DUP4 DUP2 MLOAD SWAP4 DUP7 DUP6 MSTORE DUP5 ADD MSTORE CALLER SWAP3 LOG2 PUSH1 0x7 SSTORE DUP1 RETURN JUMPDEST DUP4 SWAP6 SWAP4 MLOAD DUP6 DUP2 DUP1 PUSH2 0xB4C PUSH4 0xA85BD01 PUSH1 0xE1 SHL SWAP6 DUP7 DUP4 MSTORE CALLER DUP14 DUP5 ADD MSTORE DUP14 PUSH1 0x24 DUP5 ADD MSTORE DUP9 PUSH1 0x44 DUP5 ADD MSTORE PUSH1 0x80 PUSH1 0x64 DUP5 ADD MSTORE PUSH1 0x84 DUP4 ADD SWAP1 PUSH2 0xF80 JUMP JUMPDEST SUB DUP2 DUP13 CALLER GAS CALL DUP10 SWAP2 DUP2 PUSH2 0xC13 JUMPI JUMPDEST POP PUSH2 0xBBA JUMPI POP POP POP POP POP RETURNDATASIZE PUSH1 0x0 EQ PUSH2 0xBB1 JUMPI RETURNDATASIZE PUSH2 0xB76 DUP2 PUSH2 0x107B JUMP JUMPDEST SWAP1 PUSH2 0xB83 DUP5 MLOAD SWAP3 DUP4 PUSH2 0x1059 JUMP JUMPDEST DUP2 MSTORE DUP1 SWAP5 DUP3 RETURNDATASIZE SWAP3 ADD RETURNDATACOPY JUMPDEST DUP4 MLOAD SWAP4 DUP5 PUSH2 0xBAB JUMPI DUP3 MLOAD PUSH4 0x32505749 PUSH1 0xE1 SHL DUP2 MSTORE CALLER DUP2 DUP7 ADD MSTORE PUSH1 0x24 SWAP1 REVERT JUMPDEST DUP5 SWAP3 POP ADD REVERT JUMPDEST PUSH1 0x60 SWAP4 POP PUSH2 0xB8D JUMP JUMPDEST PUSH4 0xFFFFFFFF PUSH1 0xE0 SWAP9 SWAP4 SWAP5 SWAP6 SWAP9 SWAP8 SWAP7 SWAP8 SHL AND SUB PUSH2 0xBFC JUMPI POP DUP5 SWAP4 SWAP3 SWAP2 SWAP1 PUSH32 0x91878448EF87C3DB4AEB83E60E7DEB1240ECAE3FD04975EC93547398514CB4ED PUSH2 0xAA5 JUMP JUMPDEST PUSH1 0x24 SWAP1 DUP5 MLOAD SWAP1 PUSH4 0x32505749 PUSH1 0xE1 SHL DUP3 MSTORE CALLER SWAP1 DUP3 ADD MSTORE REVERT JUMPDEST SWAP1 SWAP2 POP DUP7 DUP2 DUP2 RETURNDATASIZE DUP4 GT PUSH2 0xC50 JUMPI JUMPDEST PUSH2 0xC2B DUP2 DUP4 PUSH2 0x1059 JUMP JUMPDEST DUP2 ADD SUB SLT PUSH2 0xC4C JUMPI MLOAD PUSH1 0x1 PUSH1 0x1 PUSH1 0xE0 SHL SUB NOT DUP2 AND DUP2 SUB PUSH2 0xC4C JUMPI SWAP1 CODESIZE PUSH2 0xB5A JUMP JUMPDEST DUP10 DUP1 REVERT JUMPDEST POP RETURNDATASIZE PUSH2 0xC21 JUMP JUMPDEST DUP4 MLOAD PUSH4 0x39E35637 PUSH1 0xE1 SHL DUP2 MSTORE DUP1 DUP9 ADD DUP10 SWAP1 MSTORE PUSH1 0x24 SWAP1 REVERT JUMPDEST DUP11 DUP10 MSTORE DUP8 DUP13 KECCAK256 DUP1 SLOAD PUSH1 0x1 PUSH1 0x1 PUSH1 0xA0 SHL SUB NOT AND SWAP1 SSTORE DUP2 DUP13 MSTORE PUSH1 0x3 DUP10 MSTORE DUP8 DUP13 KECCAK256 DUP1 SLOAD PUSH1 0x0 NOT ADD SWAP1 SSTORE PUSH2 0xA4B JUMP JUMPDEST DUP6 MLOAD PUSH4 0xFCD0178F PUSH1 0xE0 SHL DUP2 MSTORE DUP10 SWAP1 REVERT JUMPDEST POP DUP8 PUSH2 0xA30 JUMP JUMPDEST DUP6 MLOAD PUSH4 0x32505749 PUSH1 0xE1 SHL DUP2 MSTORE DUP1 DUP11 ADD DUP12 SWAP1 MSTORE PUSH1 0x24 SWAP1 REVERT JUMPDEST DUP4 MLOAD PUSH4 0x9BDE339 PUSH1 0xE0 SHL DUP2 MSTORE DUP8 SWAP1 REVERT JUMPDEST SWAP1 POP DUP6 DUP2 DUP2 RETURNDATASIZE DUP4 GT PUSH2 0xD0A JUMPI JUMPDEST PUSH2 0xCEE DUP2 DUP4 PUSH2 0x1059 JUMP JUMPDEST DUP2 ADD SUB SLT PUSH2 0xD06 JUMPI MLOAD DUP1 ISZERO ISZERO DUP2 SUB PUSH2 0xD06 JUMPI CODESIZE PUSH2 0x9C9 JUMP JUMPDEST DUP9 DUP1 REVERT JUMPDEST POP RETURNDATASIZE PUSH2 0xCE4 JUMP JUMPDEST DUP6 MLOAD RETURNDATASIZE DUP12 DUP3 RETURNDATACOPY RETURNDATASIZE SWAP1 REVERT JUMPDEST DUP5 MLOAD DUP8 MSTORE SWAP6 DUP7 ADD SWAP6 SWAP1 SWAP4 ADD SWAP3 ADD PUSH2 0x97B JUMP JUMPDEST DUP1 DUP3 DUP7 DUP2 SWAP4 CALLDATACOPY ADD SWAP4 ADD SWAP2 ADD SWAP1 SWAP2 DUP12 DUP15 SWAP2 PUSH2 0x959 JUMP JUMPDEST PUSH4 0x4E487B71 PUSH1 0xE0 SHL DUP12 MSTORE PUSH1 0x32 DUP11 MSTORE PUSH1 0x24 DUP12 REVERT JUMPDEST DUP4 MLOAD PUSH4 0x65695701 PUSH1 0xE1 SHL DUP2 MSTORE DUP8 SWAP1 REVERT JUMPDEST DUP4 MLOAD PUSH4 0x1BBDF5C5 PUSH1 0xE3 SHL DUP2 MSTORE DUP8 SWAP1 REVERT JUMPDEST DUP3 MLOAD PUSH4 0x3EE5AEB5 PUSH1 0xE0 SHL DUP2 MSTORE DUP7 SWAP1 REVERT JUMPDEST DUP5 DUP1 REVERT JUMPDEST POP POP CALLVALUE PUSH2 0x242 JUMPI DUP2 PUSH1 0x3 NOT CALLDATASIZE ADD SLT PUSH2 0x242 JUMPI MLOAD PUSH32 0x0 PUSH1 0x1 PUSH1 0x1 PUSH1 0xA0 SHL SUB AND DUP2 MSTORE PUSH1 0x20 SWAP1 RETURN JUMPDEST DUP4 CALLVALUE PUSH2 0x276 JUMPI PUSH2 0x273 PUSH2 0xDDF CALLDATASIZE PUSH2 0xFD6 JUMP JUMPDEST SWAP2 PUSH2 0x10FD JUMP JUMPDEST POP SWAP2 CALLVALUE PUSH2 0x276 JUMPI DUP2 PUSH1 0x3 NOT CALLDATASIZE ADD SLT PUSH2 0x276 JUMPI POP PUSH2 0xE00 PUSH2 0xFA5 JUMP JUMPDEST POP MLOAD PUSH4 0xFCD0178F PUSH1 0xE0 SHL DUP2 MSTORE REVERT JUMPDEST POP CALLVALUE PUSH2 0x1C4 JUMPI PUSH1 0x20 CALLDATASIZE PUSH1 0x3 NOT ADD SLT PUSH2 0x1C4 JUMPI SWAP2 DUP3 PUSH1 0x20 SWAP4 CALLDATALOAD PUSH2 0xE2F DUP2 PUSH2 0x12CC JUMP JUMPDEST POP DUP3 MSTORE DUP4 MSTORE DUP2 SWAP1 KECCAK256 SLOAD SWAP1 MLOAD PUSH1 0x1 PUSH1 0x1 PUSH1 0xA0 SHL SUB SWAP1 SWAP2 AND DUP2 MSTORE RETURN JUMPDEST POP POP CALLVALUE PUSH2 0x242 JUMPI DUP2 PUSH1 0x3 NOT CALLDATASIZE ADD SLT PUSH2 0x242 JUMPI DUP1 MLOAD SWAP1 DUP3 DUP1 SLOAD PUSH2 0xE6A DUP2 PUSH2 0x10C3 JUMP JUMPDEST DUP1 DUP6 MSTORE SWAP2 PUSH1 0x1 SWAP2 DUP1 DUP4 AND SWAP1 DUP2 ISZERO PUSH2 0x549 JUMPI POP PUSH1 0x1 EQ PUSH2 0xE95 JUMPI POP POP POP PUSH2 0x4DB DUP3 PUSH2 0x33A SWAP5 SUB DUP4 PUSH2 0x1059 JUMP JUMPDEST DUP1 DUP1 SWAP7 POP MSTORE PUSH32 0x290DECD9548B62A8D60345A988386FC84BA6BC95484008F6362F93160EF3E563 JUMPDEST DUP3 DUP7 LT PUSH2 0xED9 JUMPI POP POP POP PUSH2 0x4DB DUP3 PUSH1 0x20 PUSH2 0x33A SWAP6 DUP3 ADD ADD SWAP5 PUSH2 0x4C9 JUMP JUMPDEST DUP1 SLOAD PUSH1 0x20 DUP8 DUP8 ADD DUP2 ADD SWAP2 SWAP1 SWAP2 MSTORE SWAP1 SWAP6 ADD SWAP5 DUP2 ADD PUSH2 0xEBC JUMP JUMPDEST SWAP3 POP POP CALLVALUE PUSH2 0x1C4 JUMPI PUSH1 0x20 CALLDATASIZE PUSH1 0x3 NOT ADD SLT PUSH2 0x1C4 JUMPI CALLDATALOAD PUSH4 0xFFFFFFFF PUSH1 0xE0 SHL DUP2 AND DUP1 SWAP2 SUB PUSH2 0x1C4 JUMPI PUSH1 0x20 SWAP3 POP PUSH4 0x80AC58CD PUSH1 0xE0 SHL DUP2 EQ SWAP1 DUP2 ISZERO PUSH2 0xF4C JUMPI JUMPDEST DUP2 ISZERO PUSH2 0xF3B JUMPI JUMPDEST POP ISZERO ISZERO DUP2 MSTORE RETURN JUMPDEST PUSH4 0x1FFC9A7 PUSH1 0xE0 SHL EQ SWAP1 POP CODESIZE PUSH2 0xF34 JUMP JUMPDEST PUSH4 0x5B5E139F PUSH1 0xE0 SHL DUP2 EQ SWAP2 POP PUSH2 0xF2D JUMP JUMPDEST PUSH1 0x0 JUMPDEST DUP4 DUP2 LT PUSH2 0xF70 JUMPI POP POP PUSH1 0x0 SWAP2 ADD MSTORE JUMP JUMPDEST DUP2 DUP2 ADD MLOAD DUP4 DUP3 ADD MSTORE PUSH1 0x20 ADD PUSH2 0xF60 JUMP JUMPDEST SWAP1 PUSH1 0x20 SWAP2 PUSH2 0xF99 DUP2 MLOAD DUP1 SWAP3 DUP2 DUP6 MSTORE DUP6 DUP1 DUP7 ADD SWAP2 ADD PUSH2 0xF5D JUMP JUMPDEST PUSH1 0x1F ADD PUSH1 0x1F NOT AND ADD ADD SWAP1 JUMP JUMPDEST PUSH1 0x4 CALLDATALOAD SWAP1 PUSH1 0x1 PUSH1 0x1 PUSH1 0xA0 SHL SUB DUP3 AND DUP3 SUB PUSH2 0xFBB JUMPI JUMP JUMPDEST PUSH1 0x0 DUP1 REVERT JUMPDEST PUSH1 0x24 CALLDATALOAD SWAP1 PUSH1 0x1 PUSH1 0x1 PUSH1 0xA0 SHL SUB DUP3 AND DUP3 SUB PUSH2 0xFBB JUMPI JUMP JUMPDEST PUSH1 0x60 SWAP1 PUSH1 0x3 NOT ADD SLT PUSH2 0xFBB JUMPI PUSH1 0x1 PUSH1 0x1 PUSH1 0xA0 SHL SUB SWAP1 PUSH1 0x4 CALLDATALOAD DUP3 DUP2 AND DUP2 SUB PUSH2 0xFBB JUMPI SWAP2 PUSH1 0x24 CALLDATALOAD SWAP1 DUP2 AND DUP2 SUB PUSH2 0xFBB JUMPI SWAP1 PUSH1 0x44 CALLDATALOAD SWAP1 JUMP JUMPDEST PUSH1 0x40 DUP2 ADD SWAP1 DUP2 LT PUSH8 0xFFFFFFFFFFFFFFFF DUP3 GT OR PUSH2 0x1027 JUMPI PUSH1 0x40 MSTORE JUMP JUMPDEST PUSH4 0x4E487B71 PUSH1 0xE0 SHL PUSH1 0x0 MSTORE PUSH1 0x41 PUSH1 0x4 MSTORE PUSH1 0x24 PUSH1 0x0 REVERT JUMPDEST PUSH1 0x20 DUP2 ADD SWAP1 DUP2 LT PUSH8 0xFFFFFFFFFFFFFFFF DUP3 GT OR PUSH2 0x1027 JUMPI PUSH1 0x40 MSTORE JUMP JUMPDEST SWAP1 PUSH1 0x1F DUP1 NOT SWAP2 ADD AND DUP2 ADD SWAP1 DUP2 LT PUSH8 0xFFFFFFFFFFFFFFFF DUP3 GT OR PUSH2 0x1027 JUMPI PUSH1 0x40 MSTORE JUMP JUMPDEST PUSH8 0xFFFFFFFFFFFFFFFF DUP2 GT PUSH2 0x1027 JUMPI PUSH1 0x1F ADD PUSH1 0x1F NOT AND PUSH1 0x20 ADD SWAP1 JUMP JUMPDEST PUSH1 0x6 SLOAD PUSH1 0x1 PUSH1 0x1 PUSH1 0xA0 SHL SUB AND CALLER SUB PUSH2 0x10AB JUMPI JUMP JUMPDEST PUSH1 0x40 MLOAD PUSH4 0x118CDAA7 PUSH1 0xE0 SHL DUP2 MSTORE CALLER PUSH1 0x4 DUP3 ADD MSTORE PUSH1 0x24 SWAP1 REVERT JUMPDEST SWAP1 PUSH1 0x1 DUP3 DUP2 SHR SWAP3 AND DUP1 ISZERO PUSH2 0x10F3 JUMPI JUMPDEST PUSH1 0x20 DUP4 LT EQ PUSH2 0x10DD JUMPI JUMP JUMPDEST PUSH4 0x4E487B71 PUSH1 0xE0 SHL PUSH1 0x0 MSTORE PUSH1 0x22 PUSH1 0x4 MSTORE PUSH1 0x24 PUSH1 0x0 REVERT JUMPDEST SWAP2 PUSH1 0x7F AND SWAP2 PUSH2 0x10D2 JUMP JUMPDEST PUSH1 0x1 PUSH1 0x1 PUSH1 0xA0 SHL SUB SWAP2 DUP3 AND SWAP3 SWAP1 SWAP2 DUP4 ISZERO PUSH2 0x12B3 JUMPI PUSH1 0x0 SWAP3 DUP3 DUP5 MSTORE PUSH1 0x20 SWAP5 PUSH1 0x2 DUP7 MSTORE PUSH1 0x40 SWAP6 DUP4 DUP8 DUP8 KECCAK256 SLOAD AND ISZERO ISZERO DUP1 PUSH2 0x12AB JUMPI JUMPDEST PUSH2 0x129A JUMPI SWAP1 DUP5 SWAP2 DUP3 DUP8 MSTORE PUSH1 0x2 DUP2 MSTORE DUP5 DUP9 DUP9 KECCAK256 SLOAD AND SWAP7 DUP8 SWAP2 CALLER ISZERO ISZERO DUP1 PUSH2 0x1204 JUMPI JUMPDEST POP SWAP1 PUSH1 0x2 PUSH32 0xDDF252AD1BE2C89B69C2B068FC378DAA952BA7F163C4A11628F55A4DF523B3EF SWAP3 DUP5 PUSH2 0x11D5 JUMPI JUMPDEST DUP6 DUP4 MSTORE PUSH1 0x3 DUP2 MSTORE DUP12 DUP4 KECCAK256 DUP1 SLOAD PUSH1 0x1 ADD SWAP1 SSTORE DUP7 DUP4 MSTORE MSTORE DUP10 DUP2 KECCAK256 DUP1 SLOAD PUSH1 0x1 PUSH1 0x1 PUSH1 0xA0 SHL SUB NOT AND DUP6 OR SWAP1 SSTORE DUP1 LOG4 AND SWAP3 DUP4 DUP4 SUB PUSH2 0x11B4 JUMPI POP POP POP POP JUMP JUMPDEST PUSH1 0x64 SWAP5 POP MLOAD SWAP3 PUSH4 0x64283D7B PUSH1 0xE0 SHL DUP5 MSTORE PUSH1 0x4 DUP5 ADD MSTORE PUSH1 0x24 DUP4 ADD MSTORE PUSH1 0x44 DUP3 ADD MSTORE REVERT JUMPDEST DUP7 DUP4 MSTORE PUSH1 0x4 DUP2 MSTORE DUP12 DUP4 KECCAK256 DUP1 SLOAD PUSH1 0x1 PUSH1 0x1 PUSH1 0xA0 SHL SUB NOT AND SWAP1 SSTORE DUP5 DUP4 MSTORE PUSH1 0x3 DUP2 MSTORE DUP12 DUP4 KECCAK256 DUP1 SLOAD PUSH1 0x0 NOT ADD SWAP1 SSTORE PUSH2 0x117B JUMP JUMPDEST SWAP2 SWAP4 SWAP5 POP SWAP2 POP DUP1 PUSH2 0x1259 JUMPI JUMPDEST ISZERO PUSH2 0x1220 JUMPI DUP6 SWAP3 SWAP2 DUP8 SWAP2 CODESIZE PUSH2 0x114F JUMP JUMPDEST DUP8 DUP7 DUP9 PUSH2 0x123D JUMPI PUSH1 0x24 SWAP2 MLOAD SWAP1 PUSH4 0x7E273289 PUSH1 0xE0 SHL DUP3 MSTORE PUSH1 0x4 DUP3 ADD MSTORE REVERT JUMPDEST PUSH1 0x44 SWAP2 MLOAD SWAP1 PUSH4 0x177E802F PUSH1 0xE0 SHL DUP3 MSTORE CALLER PUSH1 0x4 DUP4 ADD MSTORE PUSH1 0x24 DUP3 ADD MSTORE REVERT JUMPDEST POP CALLER DUP8 EQ DUP1 ISZERO PUSH2 0x127E JUMPI JUMPDEST DUP1 PUSH2 0x1210 JUMPI POP DUP6 DUP3 MSTORE PUSH1 0x4 DUP2 MSTORE CALLER DUP6 DUP10 DUP5 KECCAK256 SLOAD AND EQ PUSH2 0x1210 JUMP JUMPDEST POP DUP7 DUP3 MSTORE PUSH1 0x5 DUP2 MSTORE DUP8 DUP3 KECCAK256 CALLER DUP4 MSTORE DUP2 MSTORE PUSH1 0xFF DUP9 DUP4 KECCAK256 SLOAD AND PUSH2 0x1264 JUMP JUMPDEST DUP7 MLOAD PUSH4 0xFCD0178F PUSH1 0xE0 SHL DUP2 MSTORE PUSH1 0x4 SWAP1 REVERT JUMPDEST POP PUSH1 0x1 PUSH2 0x112F JUMP JUMPDEST PUSH1 0x40 MLOAD PUSH4 0x32505749 PUSH1 0xE1 SHL DUP2 MSTORE PUSH1 0x0 PUSH1 0x4 DUP3 ADD MSTORE PUSH1 0x24 SWAP1 REVERT JUMPDEST PUSH1 0x0 DUP2 DUP2 MSTORE PUSH1 0x2 PUSH1 0x20 MSTORE PUSH1 0x40 SWAP1 KECCAK256 SLOAD PUSH1 0x1 PUSH1 0x1 PUSH1 0xA0 SHL SUB AND SWAP1 DUP2 ISZERO PUSH2 0x12EF JUMPI POP SWAP1 JUMP JUMPDEST PUSH1 0x24 SWAP1 PUSH1 0x40 MLOAD SWAP1 PUSH4 0x7E273289 PUSH1 0xE0 SHL DUP3 MSTORE PUSH1 0x4 DUP3 ADD MSTORE REVERT JUMPDEST SWAP1 SWAP4 SWAP2 SWAP3 DUP4 EXTCODESIZE PUSH2 0x1319 JUMPI JUMPDEST POP POP POP POP POP JUMP JUMPDEST PUSH1 0x40 MLOAD PUSH4 0xA85BD01 PUSH1 0xE1 SHL DUP1 DUP3 MSTORE PUSH1 0x1 PUSH1 0x1 PUSH1 0xA0 SHL SUB SWAP4 DUP5 AND PUSH1 0x4 DUP4 ADD MSTORE SWAP6 DUP4 AND PUSH1 0x24 DUP3 ADD MSTORE PUSH1 0x44 DUP2 ADD SWAP2 SWAP1 SWAP2 MSTORE PUSH1 0x80 PUSH1 0x64 DUP3 ADD MSTORE SWAP5 SWAP3 AND SWAP3 PUSH1 0x20 SWAP3 SWAP2 DUP6 SWAP1 PUSH2 0x1366 SWAP1 PUSH1 0x84 DUP4 ADD SWAP1 PUSH2 0xF80 JUMP JUMPDEST SUB SWAP5 DUP4 DUP2 PUSH1 0x0 SWAP8 DUP2 DUP10 DUP10 GAS CALL DUP7 SWAP2 DUP2 PUSH2 0x1411 JUMPI JUMPDEST POP PUSH2 0x13DB JUMPI POP POP POP RETURNDATASIZE PUSH1 0x0 EQ PUSH2 0x13D2 JUMPI RETURNDATASIZE PUSH2 0x1394 DUP2 PUSH2 0x107B JUMP JUMPDEST SWAP1 PUSH2 0x13A2 PUSH1 0x40 MLOAD SWAP3 DUP4 PUSH2 0x1059 JUMP JUMPDEST DUP2 MSTORE DUP1 SWAP4 DUP3 RETURNDATASIZE SWAP3 ADD RETURNDATACOPY JUMPDEST DUP3 MLOAD SWAP3 DUP4 PUSH2 0x13CD JUMPI PUSH1 0x40 MLOAD PUSH4 0x32505749 PUSH1 0xE1 SHL DUP2 MSTORE PUSH1 0x4 DUP2 ADD DUP5 SWAP1 MSTORE PUSH1 0x24 SWAP1 REVERT JUMPDEST ADD SWAP1 POP REVERT JUMPDEST PUSH1 0x60 SWAP3 POP PUSH2 0x13AC JUMP JUMPDEST SWAP2 SWAP5 POP SWAP2 POP PUSH4 0xFFFFFFFF PUSH1 0xE0 SHL AND SUB PUSH2 0x13F9 JUMPI POP CODESIZE DUP1 DUP1 DUP1 DUP1 PUSH2 0x1312 JUMP JUMPDEST PUSH1 0x24 SWAP1 PUSH1 0x40 MLOAD SWAP1 PUSH4 0x32505749 PUSH1 0xE1 SHL DUP3 MSTORE PUSH1 0x4 DUP3 ADD MSTORE REVERT JUMPDEST SWAP1 SWAP2 POP DUP5 DUP2 DUP2 RETURNDATASIZE DUP4 GT PUSH2 0x144E JUMPI JUMPDEST PUSH2 0x1429 DUP2 DUP4 PUSH2 0x1059 JUMP JUMPDEST DUP2 ADD SUB SLT PUSH2 0x144A JUMPI MLOAD PUSH1 0x1 PUSH1 0x1 PUSH1 0xE0 SHL SUB NOT DUP2 AND DUP2 SUB PUSH2 0x144A JUMPI SWAP1 CODESIZE PUSH2 0x137A JUMP JUMPDEST DUP7 DUP1 REVERT JUMPDEST POP RETURNDATASIZE PUSH2 0x141F JUMP JUMPDEST PUSH1 0x0 NOT DUP2 EQ PUSH2 0x1464 JUMPI PUSH1 0x1 ADD SWAP1 JUMP JUMPDEST PUSH4 0x4E487B71 PUSH1 0xE0 SHL PUSH1 0x0 MSTORE PUSH1 0x11 PUSH1 0x4 MSTORE PUSH1 0x24 PUSH1 0x0 REVERT JUMPDEST PUSH1 0x1 PUSH1 0x1 PUSH1 0xA0 SHL SUB AND PUSH1 0x0 DUP2 DUP2 MSTORE PUSH1 0xB PUSH1 0x20 MSTORE PUSH1 0x40 DUP2 KECCAK256 SLOAD SWAP2 SWAP3 SWAP2 PUSH1 0xFF AND ISZERO PUSH2 0x1505 JUMPI PUSH1 0xA PUSH1 0x20 MSTORE PUSH1 0x40 DUP2 KECCAK256 SLOAD SWAP2 DUP3 ADD SWAP1 DUP2 DUP4 GT PUSH2 0x14F1 JUMPI SWAP2 DUP2 PUSH1 0x40 SWAP3 DUP4 DUP6 DUP8 PUSH32 0x91878448EF87C3DB4AEB83E60E7DEB1240ECAE3FD04975EC93547398514CB4ED SWAP8 MSTORE PUSH1 0xA PUSH1 0x20 MSTORE KECCAK256 SSTORE DUP3 MLOAD SWAP2 DUP3 MSTORE PUSH1 0x20 DUP3 ADD MSTORE LOG2 JUMP JUMPDEST PUSH4 0x4E487B71 PUSH1 0xE0 SHL DUP2 MSTORE PUSH1 0x11 PUSH1 0x4 MSTORE PUSH1 0x24 SWAP1 REVERT JUMPDEST POP POP POP JUMP JUMPDEST DUP1 ISZERO PUSH2 0x15C7 JUMPI PUSH1 0x0 DUP2 DUP1 JUMPDEST PUSH2 0x15B3 JUMPI POP PUSH2 0x1523 DUP2 PUSH2 0x107B JUMP JUMPDEST SWAP1 PUSH2 0x1531 PUSH1 0x40 MLOAD SWAP3 DUP4 PUSH2 0x1059 JUMP JUMPDEST DUP1 DUP3 MSTORE PUSH1 0x1F NOT PUSH2 0x1540 DUP3 PUSH2 0x107B JUMP JUMPDEST ADD CALLDATASIZE PUSH1 0x20 DUP5 ADD CALLDATACOPY JUMPDEST DUP1 SWAP3 DUP1 ISZERO PUSH2 0x15AC JUMPI PUSH1 0x0 NOT DUP3 ADD SWAP2 DUP3 GT PUSH2 0x1464 JUMPI DUP2 SWAP4 PUSH1 0xA SWAP3 PUSH1 0x30 SWAP1 DUP5 DUP5 MOD DUP3 ADD DUP1 SWAP3 GT PUSH2 0x1464 JUMPI DUP6 MLOAD GT ISZERO PUSH2 0x1596 JUMPI PUSH1 0xF8 SHL PUSH1 0x1 PUSH1 0x1 PUSH1 0xF8 SHL SUB NOT AND PUSH1 0x0 BYTE SWAP1 DUP5 ADD PUSH1 0x1F ADD MSTORE8 DIV SWAP2 PUSH2 0x1548 JUMP JUMPDEST PUSH4 0x4E487B71 PUSH1 0xE0 SHL PUSH1 0x0 MSTORE PUSH1 0x32 PUSH1 0x4 MSTORE PUSH1 0x24 PUSH1 0x0 REVERT JUMPDEST POP POP SWAP1 POP SWAP1 JUMP JUMPDEST SWAP1 PUSH2 0x15BF PUSH1 0xA SWAP2 PUSH2 0x1455 JUMP JUMPDEST SWAP2 DIV DUP1 PUSH2 0x1515 JUMP JUMPDEST POP PUSH1 0x40 MLOAD PUSH2 0x15D4 DUP2 PUSH2 0x100B JUMP JUMPDEST PUSH1 0x1 DUP2 MSTORE PUSH1 0x3 PUSH1 0xFC SHL PUSH1 0x20 DUP3 ADD MSTORE SWAP1 JUMP INVALID LOG2 PUSH5 0x6970667358 0x22 SLT KECCAK256 PUSH9 0x8D78747D4C82263F56 POP 0x5C STOP PUSH7 0xF565145D292DFA 0xB2 ORIGIN PUSH29 0xDA4B321C3452A4E564736F6C6343000814003300000000000000000000 "},"methodIdentifiers":{"addScore(address,uint256)":"d119db4c","approve(address,uint256)":"095ea7b3","balanceOf(address)":"70a08231","getApproved(uint256)":"081812fc","hasMinted(address)":"38e21cce","hasPassport(address)":"4dc30e87","isApprovedForAll(address,address)":"e985e9c5","mint(uint256[2],uint256[2][2],uint256[2],uint256)":"30040da5","name()":"06fdde03","nullifiersUsed(uint256)":"f2393bcf","owner()":"8da5cb5b","ownerOf(uint256)":"6352211e","renounceOwnership()":"715018a6","safeTransferFrom(address,address,uint256)":"42842e0e","safeTransferFrom(address,address,uint256,bytes)":"b88d4fde","setApprovalForAll(address,bool)":"a22cb465","setBaseURI(string)":"55f804b3","supportsInterface(bytes4)":"01ffc9a7","symbol()":"95d89b41","tokenURI(uint256)":"c87b56dd","transferFrom(address,address,uint256)":"23b872dd","transferOwnership(address)":"f2fde38b","trustScores(address)":"12df0fc4","verifier()":"2b7ac3f3","viewTrustScore(address)":"5d514423"}}}}}