{"contracts/PoEPVerifier.sol":{"PoEPVerifier":{"abi":[{"inputs":[],"stateMutability":"nonpayable","type":"constructor"},{"anonymous":false,"inputs":[{"indexed":false,"internalType":"uint256","name":"nullifier","type":"uint256"},{"indexed":false,"internalType":"bool","name":"result","type":"bool"}],"name":"ProofVerified","type":"event"},{"anonymous":false,"inputs":[],"name":"VerifyingKeySet","type":"event"},{"inputs":[{"internalType":"uint256[2]","name":"a","type":"uint256[2]"},{"internalType":"uint256[2][2]","name":"b","type":"uint256[2][2]"},{"internalType":"uint256[2]","name":"c","type":"uint256[2]"},{"internalType":"uint256[]","name":"input","type":"uint256[]"}],"name":"verifyProof","outputs":[{"internalType":"bool","name":"","type":"bool"}],"stateMutability":"nonpayable","type":"function"}],"evm":{"bytecode":{"linkReferences":{},"object":"608060405234620003cf5762000014620003d4565b7f2d4d9aa7e302d9df41749d5507949d05dbea33fbb16c643b22f599a2be6df2e28082527f14bedd503c37ceb061d8ec60209fe345ce89830a19230301f076caff004d192691826020809201526000918255600192835562000075620003d4565b7f0e187847ad4c798374d0d6732bf501847dd68bc0e071241e0213bc7fc13db7ab81527f0967032fcbf776d1afc985f88877f182d38480a653f2decaa9794cbc3bf3060c82820152620000c7620003d4565b907f1739c1b1a457a8c7313123d24d2f9192f896b7c63eea05a9d57f06547ad0cec882527f304cfbd1e08a704a99f5e847d93f8c3caafddec46b7a0d379da69a4d112346a78383015281836200011c620003d4565b838152015291835b6002938482101562000143579081818489945192019601550162000124565b8583888681845b60028110620003bb5750505062000160620003d4565b7f1800deef121f1e76426a00665e5c4479674322d4f75edadd46debd5cd992f6ed8082527f198e9393920d483a7260bfb731fb5d25f1aa493335a9e71297e485b7aef312c2908185840152620001b5620003d4565b907f12c85ea5db8c6deb4aab71808dcb408fe3d1e7690c43d37b4ce6cc0166fa7daa918281527f090689d0585ff075ec9e99ad690c3395bc4b313370b38ef355acdadcd122975b94858883015281886200020e620003d4565b838152015286895b60028110620003a75750505085885b6002811062000393575050506200023b620003d4565b928352858301526200024c620003d4565b9283528483015281846200025f620003d4565b838152015282855b600281106200037f57505050835b600281106200036c57846200033885620002e062000292620003d4565b7f1ca165d49504f3b784a6f30c8c31570bad438b521054b9094c2a2098e8bfe98e81527f2a3726cfbc52f6aba95f28df47a5db1c4622a71b122faf1b652e4e6b34510501838201526200040a565b7f20bd15d97cf05fe563ece347fe1ae061df7d2c68117c1d552ededb105450c3486200030b620003d4565b917f05911abb73b40f8ebe7bcb5420389f58535e3c4bdf89b3ec0da46e5efff8dc0383528201526200040a565b7fea9c7b0d82bf5da5b86060aaf8e5d1e8efa40fa4899ae76094bdbe4890a7fe2a6040519180a1610f169081620004648239f35b8151600c82015590830190820162000275565b85835193019281600a015501839062000267565b888351930192816008015501869062000225565b898351930192816006015501879062000216565b84835193019281600401550182906200014a565b600080fd5b60408051919082016001600160401b03811183821017620003f457604052565b634e487b7160e01b600052604160045260246000fd5b600e5468010000000000000000811015620003f4576001810180600e558110156200044d576020600191600e6000528160002090831b0192805184550151910155565b634e487b7160e01b600052603260045260246000fdfe604060808152600436101561001357600080fd5b600090813560e01c63c32e370e1461002a57600080fd5b346100e6576101203660031901126100e65761004536610152565b9136606312156100c557815161005a81610100565b60c4813682116100e257846044915b8383106100c8575050505061007d36610198565b91610104359067ffffffffffffffff82116100c55750916100c194916100aa6100b0943690600401610237565b926103fc565b905190151581529081906020820190565b0390f35b80fd5b6020906100d536856101da565b8152019101908590610069565b8380fd5b5080fd5b634e487b7160e01b600052604160045260246000fd5b6040810190811067ffffffffffffffff82111761011c57604052565b6100ea565b90601f8019910116810190811067ffffffffffffffff82111761011c57604052565b6040519061015082610100565b565b8060231215610193576040519061016882610100565b816044918211610193576004905b8282106101835750505090565b8135815260209182019101610176565b600080fd5b8060e3121561019357604051906101ae82610100565b816101049182116101935760c4905b8282106101ca5750505090565b81358152602091820191016101bd565b9080601f8301121561019357604051916101f383610100565b82906040810192831161019357905b82821061020f5750505090565b8135815260209182019101610202565b67ffffffffffffffff811161011c5760051b60200190565b81601f820112156101935780359161024e8361021f565b9261025c6040519485610121565b808452602092838086019260051b820101928311610193578301905b828210610286575050505090565b81358152908301908301610278565b604051906102a282610100565b60006020838281520152565b6040519061030080830183811067ffffffffffffffff82111761011c57604052368337565b604051906020820182811067ffffffffffffffff82111761011c576040526020368337565b60409081516060810181811067ffffffffffffffff82111761011c5783528092610320610295565b8252805161032d81610100565b815161033881610100565b823682378152815161034981610100565b823682376020820152602083015261035f610295565b910152565b634e487b7160e01b600052603260045260246000fd5b906103848261021f565b6103916040519182610121565b82815280926103a2601f199161021f565b0190602036910137565b634e487b7160e01b600052601160045260246000fd5b60001981146103d15760010190565b6103ac565b8051156103e35760200190565b610364565b80518210156103e35760209160051b010190565b93919092936104096102f8565b93815160208093015161041a610143565b91825283820152855261042b610143565b90805151825261043c815160200190565b518383015261045b8361044d610143565b920180515183525160200190565b5183820152610468610143565b918252828201528185015280825192015190610482610143565b9283528201526040830152610497835161037a565b9060005b84518110156104c857806104b26104c392876103e8565b516104bd82866103e8565b526103c2565b61049b565b509291906104d59161078f565b908181516104e257505090565b61050c7f3be2725592ab0e6a22480e6578f02741d024014aed13ba676461b18208c66e13926103d6565b51604080519182529115156020820152a190565b90600182018092116103d157565b1561053557565b60405162461bcd60e51b8152602060048201526014602482015273092dcecc2d8d2c840d2dce0eae840d8cadccee8d60631b6044820152606490fd5b600e54156103e357600e6000527fbb7b4a454dc3493923482f07822329ed19e8244eff582cc204f8554c3620c3fd90600090565b600e548110156103e357600e60005260011b7fbb7b4a454dc3493923482f07822329ed19e8244eff582cc204f8554c3620c3fd0190600090565b604051906105ec82610100565b60005482526001546020830152565b9060405161060881610100565b602060018294805484520154910152565b6040519061062682610100565b604051829060066000825b600282106106825750505061064581610100565b81526040519060086000835b6002821061066c5750505060209061066883610100565b0152565b6001602081928554815201930191019091610651565b6001602081928554815201930191019091610631565b604051906106a582610100565b6040518290600a6000825b600282106106fd575050506106c481610100565b815260405190600c6000835b600282106106e75750505060209061066883610100565b60016020819285548152019301910190916106d0565b60016020819285548152019301910190916106b0565b6040519061072082610100565b6040516002908390826000825b8582106107795750505061074081610100565b81526040519160006004845b838310610763575050505060209061066883610100565b600160208192845481520192019201919061074c565b600160208192855481520193019101909161072d565b906107a661079d8251610520565b600e541461052e565b6107b76107b383516108f9565b1590565b6108f25760408201926107cd6107b385516108f9565b6108e957602083016107e26107b3825161093c565b6108be578251610895575b6107fe6107f8610571565b506105fb565b946000955b84518710156108535761084761084d916108416108276108228b610520565b6105a5565b5061083c6108358c8b6103e8565b51916105fb565b610cc8565b90610a91565b966103c2565b95610803565b9193509194506108666108929451610a1a565b92519151610872610619565b61087a610698565b926108836105df565b9461088c610713565b96610d98565b90565b61089e836103d6565b511580156108c8575b6108be576103e86108b7846103d6565b51116107ed575b5092505050600090565b50600080516020610ec18339815191526108e1846103d6565b5110156108a7565b92505050600090565b5050600090565b805190811580610930575b6108f2576020600391015191600080516020610ec1833981519152918282818181950909089180091490565b50602081015115610904565b8051908151908115806109f2575b806109e5575b806109d6575b6109ce57600080516020610ec1833981519152809210928315936109bf575b5082156109ae575b8215610994575b505061098f57600190565b600090565b6109a49192506020015160200190565b5110153880610984565b91508060208301515110159161097d565b60200151821115925038610975565b505050600090565b50602081810151015115610956565b5060208101515115610950565b5060208301511561094a565b90600080516020610ec18339815191529182039182116103d157565b610a22610295565b5080511580610a85575b610a6a576020815191600080516020610ec183398151915291829101510681039081116103d15760405191610a6083610100565b8252602082015290565b50604051610a7781610100565b600081526000602082015290565b50602081015115610a2c565b90610a9a610295565b508151801580610b88575b610b8257815190811580610b76575b610b705714610b5057805190610b3b600080516020610ec1833981519152808094610adf87516109fe565b900892818080602084015196610b068260208c0199610afe8b516109fe565b900891610c1a565b900992610b2382610b178b516109fe565b818780090891516109fe565b90089651610b30886109fe565b9008900991516109fe565b9008610b45610143565b918252602082015290565b60208281015191015103610b675761089290610b94565b50610a77610143565b50505090565b50602083015115610ab4565b50905090565b50602083015115610aa5565b610b9c610295565b508051801580610c0e575b610c0a5760208201610bfb600080516020610ec18339815191528080948180610bd4818851600209610c1a565b928009600309098180610beb8189516002096109fe565b81848009089651610b30886109fe565b900860405191610a6083610100565b5090565b50602082015115610ba7565b600080516020610ec183398151915280821015610c9357907f30644e72e131a029b85045b68181585d97816a916871ca8d3c208c16d87cfd459182600182819406915b610c6957505050905090565b8080861614610c87575b829394811c92828493099294939291610c5d565b82828195099350610c73565b60405162461bcd60e51b815260206004820152600d60248201526c125b9d985b1a59081a5b9c1d5d609a1b6044820152606490fd5b90610cd1610295565b508015610d3e576001808214610d395781604051610cee81610100565b600081526000602082015293905b610d065750505090565b8180841614610d23575b610d1990610b94565b91811c9182610cfc565b92610d3184610d1992610a91565b939050610d10565b505090565b5050604051610a7781610100565b15610d5357565b60405162461bcd60e51b815260206004820152601b60248201527f50616972696e6720766572696669636174696f6e206661696c656400000000006044820152606490fd5b6103009660a0610ebb9760019a94979697610db16102ae565b9785899651875260209a8b809a81998298838098818098015182850152610dd9815160200190565b51604085015280515160608501520180516020015160808401525151910152805160c08e0152015160e08c01528051602001516101008c01528051516101208c0152018051602001516101408b015251516101608a015280516101808a015201516101a08801528051602001516101c08801528051516101e0880152018051602001516102008701525151610220860152805161024086015201516102608401528051602001516102808401528051516102a0840152018051602001516102c083015251516102e0820152610eac6102d3565b9384916008620493e0fa610d4c565b51149056fe30644e72e131a029b85045b68181585d97816a916871ca8d3c208c16d87cfd47a264697066735822122043f741f268285065ec772ebae68c2209bea834d0cb61195d1cdd946c1b122b1e64736f6c63430008140033","opcodes":"PUSH1 0x80 PUSH1 0x40 MSTORE CALLVALUE PUSH3 0x3CF JUMPI PUSH3 0x14 PUSH3 0x3D4 JUMP JUMPDEST PUSH32 0x2D4D9AA7E302D9DF41749D5507949D05DBEA33FBB16C643B22F599A2BE6DF2E2 DUP1 DUP3 MSTORE PUSH32 0x14BEDD503C37CEB061D8EC60209FE345CE89830A19230301F076CAFF004D1926 SWAP2 DUP3 PUSH1 0x20 DUP1 SWAP3 ADD MSTORE PUSH1 0x0 SWAP2 DUP3 SSTORE PUSH1 0x1 SWAP3 DUP4 SSTORE PUSH3 0x75 PUSH3 0x3D4 JUMP JUMPDEST PUSH32 0xE187847AD4C798374D0D6732BF501847DD68BC0E071241E0213BC7FC13DB7AB DUP2 MSTORE PUSH32 0x967032FCBF776D1AFC985F88877F182D38480A653F2DECAA9794CBC3BF3060C DUP3 DUP3 ADD MSTORE PUSH3 0xC7 PUSH3 0x3D4 JUMP JUMPDEST SWAP1 PUSH32 0x1739C1B1A457A8C7313123D24D2F9192F896B7C63EEA05A9D57F06547AD0CEC8 DUP3 MSTORE PUSH32 0x304CFBD1E08A704A99F5E847D93F8C3CAAFDDEC46B7A0D379DA69A4D112346A7 DUP4 DUP4 ADD MSTORE DUP2 DUP4 PUSH3 0x11C PUSH3 0x3D4 JUMP JUMPDEST DUP4 DUP2 MSTORE ADD MSTORE SWAP2 DUP4 JUMPDEST PUSH1 0x2 SWAP4 DUP5 DUP3 LT ISZERO PUSH3 0x143 JUMPI SWAP1 DUP2 DUP2 DUP5 DUP10 SWAP5 MLOAD SWAP3 ADD SWAP7 ADD SSTORE ADD PUSH3 0x124 JUMP JUMPDEST DUP6 DUP4 DUP9 DUP7 DUP2 DUP5 JUMPDEST PUSH1 0x2 DUP2 LT PUSH3 0x3BB JUMPI POP POP POP PUSH3 0x160 PUSH3 0x3D4 JUMP JUMPDEST PUSH32 0x1800DEEF121F1E76426A00665E5C4479674322D4F75EDADD46DEBD5CD992F6ED DUP1 DUP3 MSTORE PUSH32 0x198E9393920D483A7260BFB731FB5D25F1AA493335A9E71297E485B7AEF312C2 SWAP1 DUP2 DUP6 DUP5 ADD MSTORE PUSH3 0x1B5 PUSH3 0x3D4 JUMP JUMPDEST SWAP1 PUSH32 0x12C85EA5DB8C6DEB4AAB71808DCB408FE3D1E7690C43D37B4CE6CC0166FA7DAA SWAP2 DUP3 DUP2 MSTORE PUSH32 0x90689D0585FF075EC9E99AD690C3395BC4B313370B38EF355ACDADCD122975B SWAP5 DUP6 DUP9 DUP4 ADD MSTORE DUP2 DUP9 PUSH3 0x20E PUSH3 0x3D4 JUMP JUMPDEST DUP4 DUP2 MSTORE ADD MSTORE DUP7 DUP10 JUMPDEST PUSH1 0x2 DUP2 LT PUSH3 0x3A7 JUMPI POP POP POP DUP6 DUP9 JUMPDEST PUSH1 0x2 DUP2 LT PUSH3 0x393 JUMPI POP POP POP PUSH3 0x23B PUSH3 0x3D4 JUMP JUMPDEST SWAP3 DUP4 MSTORE DUP6 DUP4 ADD MSTORE PUSH3 0x24C PUSH3 0x3D4 JUMP JUMPDEST SWAP3 DUP4 MSTORE DUP5 DUP4 ADD MSTORE DUP2 DUP5 PUSH3 0x25F PUSH3 0x3D4 JUMP JUMPDEST DUP4 DUP2 MSTORE ADD MSTORE DUP3 DUP6 JUMPDEST PUSH1 0x2 DUP2 LT PUSH3 0x37F JUMPI POP POP POP DUP4 JUMPDEST PUSH1 0x2 DUP2 LT PUSH3 0x36C JUMPI DUP5 PUSH3 0x338 DUP6 PUSH3 0x2E0 PUSH3 0x292 PUSH3 0x3D4 JUMP JUMPDEST PUSH32 0x1CA165D49504F3B784A6F30C8C31570BAD438B521054B9094C2A2098E8BFE98E DUP2 MSTORE PUSH32 0x2A3726CFBC52F6ABA95F28DF47A5DB1C4622A71B122FAF1B652E4E6B34510501 DUP4 DUP3 ADD MSTORE PUSH3 0x40A JUMP JUMPDEST PUSH32 0x20BD15D97CF05FE563ECE347FE1AE061DF7D2C68117C1D552EDEDB105450C348 PUSH3 0x30B PUSH3 0x3D4 JUMP JUMPDEST SWAP2 PUSH32 0x5911ABB73B40F8EBE7BCB5420389F58535E3C4BDF89B3EC0DA46E5EFFF8DC03 DUP4 MSTORE DUP3 ADD MSTORE PUSH3 0x40A JUMP JUMPDEST PUSH32 0xEA9C7B0D82BF5DA5B86060AAF8E5D1E8EFA40FA4899AE76094BDBE4890A7FE2A PUSH1 0x40 MLOAD SWAP2 DUP1 LOG1 PUSH2 0xF16 SWAP1 DUP2 PUSH3 0x464 DUP3 CODECOPY RETURN JUMPDEST DUP2 MLOAD PUSH1 0xC DUP3 ADD SSTORE SWAP1 DUP4 ADD SWAP1 DUP3 ADD PUSH3 0x275 JUMP JUMPDEST DUP6 DUP4 MLOAD SWAP4 ADD SWAP3 DUP2 PUSH1 0xA ADD SSTORE ADD DUP4 SWAP1 PUSH3 0x267 JUMP JUMPDEST DUP9 DUP4 MLOAD SWAP4 ADD SWAP3 DUP2 PUSH1 0x8 ADD SSTORE ADD DUP7 SWAP1 PUSH3 0x225 JUMP JUMPDEST DUP10 DUP4 MLOAD SWAP4 ADD SWAP3 DUP2 PUSH1 0x6 ADD SSTORE ADD DUP8 SWAP1 PUSH3 0x216 JUMP JUMPDEST DUP5 DUP4 MLOAD SWAP4 ADD SWAP3 DUP2 PUSH1 0x4 ADD SSTORE ADD DUP3 SWAP1 PUSH3 0x14A JUMP JUMPDEST PUSH1 0x0 DUP1 REVERT JUMPDEST PUSH1 0x40 DUP1 MLOAD SWAP2 SWAP1 DUP3 ADD PUSH1 0x1 PUSH1 0x1 PUSH1 0x40 SHL SUB DUP2 GT DUP4 DUP3 LT OR PUSH3 0x3F4 JUMPI PUSH1 0x40 MSTORE JUMP JUMPDEST PUSH4 0x4E487B71 PUSH1 0xE0 SHL PUSH1 0x0 MSTORE PUSH1 0x41 PUSH1 0x4 MSTORE PUSH1 0x24 PUSH1 0x0 REVERT JUMPDEST PUSH1 0xE SLOAD PUSH9 0x10000000000000000 DUP2 LT ISZERO PUSH3 0x3F4 JUMPI PUSH1 0x1 DUP2 ADD DUP1 PUSH1 0xE SSTORE DUP2 LT ISZERO PUSH3 0x44D JUMPI PUSH1 0x20 PUSH1 0x1 SWAP2 PUSH1 0xE PUSH1 0x0 MSTORE DUP2 PUSH1 0x0 KECCAK256 SWAP1 DUP4 SHL ADD SWAP3 DUP1 MLOAD DUP5 SSTORE ADD MLOAD SWAP2 ADD SSTORE JUMP JUMPDEST PUSH4 0x4E487B71 PUSH1 0xE0 SHL PUSH1 0x0 MSTORE PUSH1 0x32 PUSH1 0x4 MSTORE PUSH1 0x24 PUSH1 0x0 REVERT INVALID PUSH1 0x40 PUSH1 0x80 DUP2 MSTORE PUSH1 0x4 CALLDATASIZE LT ISZERO PUSH2 0x13 JUMPI PUSH1 0x0 DUP1 REVERT JUMPDEST PUSH1 0x0 SWAP1 DUP2 CALLDATALOAD PUSH1 0xE0 SHR PUSH4 0xC32E370E EQ PUSH2 0x2A JUMPI PUSH1 0x0 DUP1 REVERT JUMPDEST CALLVALUE PUSH2 0xE6 JUMPI PUSH2 0x120 CALLDATASIZE PUSH1 0x3 NOT ADD SLT PUSH2 0xE6 JUMPI PUSH2 0x45 CALLDATASIZE PUSH2 0x152 JUMP JUMPDEST SWAP2 CALLDATASIZE PUSH1 0x63 SLT ISZERO PUSH2 0xC5 JUMPI DUP2 MLOAD PUSH2 0x5A DUP2 PUSH2 0x100 JUMP JUMPDEST PUSH1 0xC4 DUP2 CALLDATASIZE DUP3 GT PUSH2 0xE2 JUMPI DUP5 PUSH1 0x44 SWAP2 JUMPDEST DUP4 DUP4 LT PUSH2 0xC8 JUMPI POP POP POP POP PUSH2 0x7D CALLDATASIZE PUSH2 0x198 JUMP JUMPDEST SWAP2 PUSH2 0x104 CALLDATALOAD SWAP1 PUSH8 0xFFFFFFFFFFFFFFFF DUP3 GT PUSH2 0xC5 JUMPI POP SWAP2 PUSH2 0xC1 SWAP5 SWAP2 PUSH2 0xAA PUSH2 0xB0 SWAP5 CALLDATASIZE SWAP1 PUSH1 0x4 ADD PUSH2 0x237 JUMP JUMPDEST SWAP3 PUSH2 0x3FC JUMP JUMPDEST SWAP1 MLOAD SWAP1 ISZERO ISZERO DUP2 MSTORE SWAP1 DUP2 SWAP1 PUSH1 0x20 DUP3 ADD SWAP1 JUMP JUMPDEST SUB SWAP1 RETURN JUMPDEST DUP1 REVERT JUMPDEST PUSH1 0x20 SWAP1 PUSH2 0xD5 CALLDATASIZE DUP6 PUSH2 0x1DA JUMP JUMPDEST DUP2 MSTORE ADD SWAP2 ADD SWAP1 DUP6 SWAP1 PUSH2 0x69 JUMP JUMPDEST DUP4 DUP1 REVERT JUMPDEST POP DUP1 REVERT JUMPDEST PUSH4 0x4E487B71 PUSH1 0xE0 SHL PUSH1 0x0 MSTORE PUSH1 0x41 PUSH1 0x4 MSTORE PUSH1 0x24 PUSH1 0x0 REVERT JUMPDEST PUSH1 0x40 DUP2 ADD SWAP1 DUP2 LT PUSH8 0xFFFFFFFFFFFFFFFF DUP3 GT OR PUSH2 0x11C JUMPI PUSH1 0x40 MSTORE JUMP JUMPDEST PUSH2 0xEA JUMP JUMPDEST SWAP1 PUSH1 0x1F DUP1 NOT SWAP2 ADD AND DUP2 ADD SWAP1 DUP2 LT PUSH8 0xFFFFFFFFFFFFFFFF DUP3 GT OR PUSH2 0x11C JUMPI PUSH1 0x40 MSTORE JUMP JUMPDEST PUSH1 0x40 MLOAD SWAP1 PUSH2 0x150 DUP3 PUSH2 0x100 JUMP JUMPDEST JUMP JUMPDEST DUP1 PUSH1 0x23 SLT ISZERO PUSH2 0x193 JUMPI PUSH1 0x40 MLOAD SWAP1 PUSH2 0x168 DUP3 PUSH2 0x100 JUMP JUMPDEST DUP2 PUSH1 0x44 SWAP2 DUP3 GT PUSH2 0x193 JUMPI PUSH1 0x4 SWAP1 JUMPDEST DUP3 DUP3 LT PUSH2 0x183 JUMPI POP POP POP SWAP1 JUMP JUMPDEST DUP2 CALLDATALOAD DUP2 MSTORE PUSH1 0x20 SWAP2 DUP3 ADD SWAP2 ADD PUSH2 0x176 JUMP JUMPDEST PUSH1 0x0 DUP1 REVERT JUMPDEST DUP1 PUSH1 0xE3 SLT ISZERO PUSH2 0x193 JUMPI PUSH1 0x40 MLOAD SWAP1 PUSH2 0x1AE DUP3 PUSH2 0x100 JUMP JUMPDEST DUP2 PUSH2 0x104 SWAP2 DUP3 GT PUSH2 0x193 JUMPI PUSH1 0xC4 SWAP1 JUMPDEST DUP3 DUP3 LT PUSH2 0x1CA JUMPI POP POP POP SWAP1 JUMP JUMPDEST DUP2 CALLDATALOAD DUP2 MSTORE PUSH1 0x20 SWAP2 DUP3 ADD SWAP2 ADD PUSH2 0x1BD JUMP JUMPDEST SWAP1 DUP1 PUSH1 0x1F DUP4 ADD SLT ISZERO PUSH2 0x193 JUMPI PUSH1 0x40 MLOAD SWAP2 PUSH2 0x1F3 DUP4 PUSH2 0x100 JUMP JUMPDEST DUP3 SWAP1 PUSH1 0x40 DUP2 ADD SWAP3 DUP4 GT PUSH2 0x193 JUMPI SWAP1 JUMPDEST DUP3 DUP3 LT PUSH2 0x20F JUMPI POP POP POP SWAP1 JUMP JUMPDEST DUP2 CALLDATALOAD DUP2 MSTORE PUSH1 0x20 SWAP2 DUP3 ADD SWAP2 ADD PUSH2 0x202 JUMP JUMPDEST PUSH8 0xFFFFFFFFFFFFFFFF DUP2 GT PUSH2 0x11C JUMPI PUSH1 0x5 SHL PUSH1 0x20 ADD SWAP1 JUMP JUMPDEST DUP2 PUSH1 0x1F DUP3 ADD SLT ISZERO PUSH2 0x193 JUMPI DUP1 CALLDATALOAD SWAP2 PUSH2 0x24E DUP4 PUSH2 0x21F JUMP JUMPDEST SWAP3 PUSH2 0x25C PUSH1 0x40 MLOAD SWAP5 DUP6 PUSH2 0x121 JUMP JUMPDEST DUP1 DUP5 MSTORE PUSH1 0x20 SWAP3 DUP4 DUP1 DUP7 ADD SWAP3 PUSH1 0x5 SHL DUP3 ADD ADD SWAP3 DUP4 GT PUSH2 0x193 JUMPI DUP4 ADD SWAP1 JUMPDEST DUP3 DUP3 LT PUSH2 0x286 JUMPI POP POP POP POP SWAP1 JUMP JUMPDEST DUP2 CALLDATALOAD DUP2 MSTORE SWAP1 DUP4 ADD SWAP1 DUP4 ADD PUSH2 0x278 JUMP JUMPDEST PUSH1 0x40 MLOAD SWAP1 PUSH2 0x2A2 DUP3 PUSH2 0x100 JUMP JUMPDEST PUSH1 0x0 PUSH1 0x20 DUP4 DUP3 DUP2 MSTORE ADD MSTORE JUMP JUMPDEST PUSH1 0x40 MLOAD SWAP1 PUSH2 0x300 DUP1 DUP4 ADD DUP4 DUP2 LT PUSH8 0xFFFFFFFFFFFFFFFF DUP3 GT OR PUSH2 0x11C JUMPI PUSH1 0x40 MSTORE CALLDATASIZE DUP4 CALLDATACOPY JUMP JUMPDEST PUSH1 0x40 MLOAD SWAP1 PUSH1 0x20 DUP3 ADD DUP3 DUP2 LT PUSH8 0xFFFFFFFFFFFFFFFF DUP3 GT OR PUSH2 0x11C JUMPI PUSH1 0x40 MSTORE PUSH1 0x20 CALLDATASIZE DUP4 CALLDATACOPY JUMP JUMPDEST PUSH1 0x40 SWAP1 DUP2 MLOAD PUSH1 0x60 DUP2 ADD DUP2 DUP2 LT PUSH8 0xFFFFFFFFFFFFFFFF DUP3 GT OR PUSH2 0x11C JUMPI DUP4 MSTORE DUP1 SWAP3 PUSH2 0x320 PUSH2 0x295 JUMP JUMPDEST DUP3 MSTORE DUP1 MLOAD PUSH2 0x32D DUP2 PUSH2 0x100 JUMP JUMPDEST DUP2 MLOAD PUSH2 0x338 DUP2 PUSH2 0x100 JUMP JUMPDEST DUP3 CALLDATASIZE DUP3 CALLDATACOPY DUP2 MSTORE DUP2 MLOAD PUSH2 0x349 DUP2 PUSH2 0x100 JUMP JUMPDEST DUP3 CALLDATASIZE DUP3 CALLDATACOPY PUSH1 0x20 DUP3 ADD MSTORE PUSH1 0x20 DUP4 ADD MSTORE PUSH2 0x35F PUSH2 0x295 JUMP JUMPDEST SWAP2 ADD MSTORE JUMP JUMPDEST PUSH4 0x4E487B71 PUSH1 0xE0 SHL PUSH1 0x0 MSTORE PUSH1 0x32 PUSH1 0x4 MSTORE PUSH1 0x24 PUSH1 0x0 REVERT JUMPDEST SWAP1 PUSH2 0x384 DUP3 PUSH2 0x21F JUMP JUMPDEST PUSH2 0x391 PUSH1 0x40 MLOAD SWAP2 DUP3 PUSH2 0x121 JUMP JUMPDEST DUP3 DUP2 MSTORE DUP1 SWAP3 PUSH2 0x3A2 PUSH1 0x1F NOT SWAP2 PUSH2 0x21F JUMP JUMPDEST ADD SWAP1 PUSH1 0x20 CALLDATASIZE SWAP2 ADD CALLDATACOPY JUMP JUMPDEST PUSH4 0x4E487B71 PUSH1 0xE0 SHL PUSH1 0x0 MSTORE PUSH1 0x11 PUSH1 0x4 MSTORE PUSH1 0x24 PUSH1 0x0 REVERT JUMPDEST PUSH1 0x0 NOT DUP2 EQ PUSH2 0x3D1 JUMPI PUSH1 0x1 ADD SWAP1 JUMP JUMPDEST PUSH2 0x3AC JUMP JUMPDEST DUP1 MLOAD ISZERO PUSH2 0x3E3 JUMPI PUSH1 0x20 ADD SWAP1 JUMP JUMPDEST PUSH2 0x364 JUMP JUMPDEST DUP1 MLOAD DUP3 LT ISZERO PUSH2 0x3E3 JUMPI PUSH1 0x20 SWAP2 PUSH1 0x5 SHL ADD ADD SWAP1 JUMP JUMPDEST SWAP4 SWAP2 SWAP1 SWAP3 SWAP4 PUSH2 0x409 PUSH2 0x2F8 JUMP JUMPDEST SWAP4 DUP2 MLOAD PUSH1 0x20 DUP1 SWAP4 ADD MLOAD PUSH2 0x41A PUSH2 0x143 JUMP JUMPDEST SWAP2 DUP3 MSTORE DUP4 DUP3 ADD MSTORE DUP6 MSTORE PUSH2 0x42B PUSH2 0x143 JUMP JUMPDEST SWAP1 DUP1 MLOAD MLOAD DUP3 MSTORE PUSH2 0x43C DUP2 MLOAD PUSH1 0x20 ADD SWAP1 JUMP JUMPDEST MLOAD DUP4 DUP4 ADD MSTORE PUSH2 0x45B DUP4 PUSH2 0x44D PUSH2 0x143 JUMP JUMPDEST SWAP3 ADD DUP1 MLOAD MLOAD DUP4 MSTORE MLOAD PUSH1 0x20 ADD SWAP1 JUMP JUMPDEST MLOAD DUP4 DUP3 ADD MSTORE PUSH2 0x468 PUSH2 0x143 JUMP JUMPDEST SWAP2 DUP3 MSTORE DUP3 DUP3 ADD MSTORE DUP2 DUP6 ADD MSTORE DUP1 DUP3 MLOAD SWAP3 ADD MLOAD SWAP1 PUSH2 0x482 PUSH2 0x143 JUMP JUMPDEST SWAP3 DUP4 MSTORE DUP3 ADD MSTORE PUSH1 0x40 DUP4 ADD MSTORE PUSH2 0x497 DUP4 MLOAD PUSH2 0x37A JUMP JUMPDEST SWAP1 PUSH1 0x0 JUMPDEST DUP5 MLOAD DUP2 LT ISZERO PUSH2 0x4C8 JUMPI DUP1 PUSH2 0x4B2 PUSH2 0x4C3 SWAP3 DUP8 PUSH2 0x3E8 JUMP JUMPDEST MLOAD PUSH2 0x4BD DUP3 DUP7 PUSH2 0x3E8 JUMP JUMPDEST MSTORE PUSH2 0x3C2 JUMP JUMPDEST PUSH2 0x49B JUMP JUMPDEST POP SWAP3 SWAP2 SWAP1 PUSH2 0x4D5 SWAP2 PUSH2 0x78F JUMP JUMPDEST SWAP1 DUP2 DUP2 MLOAD PUSH2 0x4E2 JUMPI POP POP SWAP1 JUMP JUMPDEST PUSH2 0x50C PUSH32 0x3BE2725592AB0E6A22480E6578F02741D024014AED13BA676461B18208C66E13 SWAP3 PUSH2 0x3D6 JUMP JUMPDEST MLOAD PUSH1 0x40 DUP1 MLOAD SWAP2 DUP3 MSTORE SWAP2 ISZERO ISZERO PUSH1 0x20 DUP3 ADD MSTORE LOG1 SWAP1 JUMP JUMPDEST SWAP1 PUSH1 0x1 DUP3 ADD DUP1 SWAP3 GT PUSH2 0x3D1 JUMPI JUMP JUMPDEST ISZERO PUSH2 0x535 JUMPI JUMP JUMPDEST PUSH1 0x40 MLOAD PUSH3 0x461BCD PUSH1 0xE5 SHL DUP2 MSTORE PUSH1 0x20 PUSH1 0x4 DUP3 ADD MSTORE PUSH1 0x14 PUSH1 0x24 DUP3 ADD MSTORE PUSH20 0x92DCECC2D8D2C840D2DCE0EAE840D8CADCCEE8D PUSH1 0x63 SHL PUSH1 0x44 DUP3 ADD MSTORE PUSH1 0x64 SWAP1 REVERT JUMPDEST PUSH1 0xE SLOAD ISZERO PUSH2 0x3E3 JUMPI PUSH1 0xE PUSH1 0x0 MSTORE PUSH32 0xBB7B4A454DC3493923482F07822329ED19E8244EFF582CC204F8554C3620C3FD SWAP1 PUSH1 0x0 SWAP1 JUMP JUMPDEST PUSH1 0xE SLOAD DUP2 LT ISZERO PUSH2 0x3E3 JUMPI PUSH1 0xE PUSH1 0x0 MSTORE PUSH1 0x1 SHL PUSH32 0xBB7B4A454DC3493923482F07822329ED19E8244EFF582CC204F8554C3620C3FD ADD SWAP1 PUSH1 0x0 SWAP1 JUMP JUMPDEST PUSH1 0x40 MLOAD SWAP1 PUSH2 0x5EC DUP3 PUSH2 0x100 JUMP JUMPDEST PUSH1 0x0 SLOAD DUP3 MSTORE PUSH1 0x1 SLOAD PUSH1 0x20 DUP4 ADD MSTORE JUMP JUMPDEST SWAP1 PUSH1 0x40 MLOAD PUSH2 0x608 DUP2 PUSH2 0x100 JUMP JUMPDEST PUSH1 0x20 PUSH1 0x1 DUP3 SWAP5 DUP1 SLOAD DUP5 MSTORE ADD SLOAD SWAP2 ADD MSTORE JUMP JUMPDEST PUSH1 0x40 MLOAD SWAP1 PUSH2 0x626 DUP3 PUSH2 0x100 JUMP JUMPDEST PUSH1 0x40 MLOAD DUP3 SWAP1 PUSH1 0x6 PUSH1 0x0 DUP3 JUMPDEST PUSH1 0x2 DUP3 LT PUSH2 0x682 JUMPI POP POP POP PUSH2 0x645 DUP2 PUSH2 0x100 JUMP JUMPDEST DUP2 MSTORE PUSH1 0x40 MLOAD SWAP1 PUSH1 0x8 PUSH1 0x0 DUP4 JUMPDEST PUSH1 0x2 DUP3 LT PUSH2 0x66C JUMPI POP POP POP PUSH1 0x20 SWAP1 PUSH2 0x668 DUP4 PUSH2 0x100 JUMP JUMPDEST ADD MSTORE JUMP JUMPDEST PUSH1 0x1 PUSH1 0x20 DUP2 SWAP3 DUP6 SLOAD DUP2 MSTORE ADD SWAP4 ADD SWAP2 ADD SWAP1 SWAP2 PUSH2 0x651 JUMP JUMPDEST PUSH1 0x1 PUSH1 0x20 DUP2 SWAP3 DUP6 SLOAD DUP2 MSTORE ADD SWAP4 ADD SWAP2 ADD SWAP1 SWAP2 PUSH2 0x631 JUMP JUMPDEST PUSH1 0x40 MLOAD SWAP1 PUSH2 0x6A5 DUP3 PUSH2 0x100 JUMP JUMPDEST PUSH1 0x40 MLOAD DUP3 SWAP1 PUSH1 0xA PUSH1 0x0 DUP3 JUMPDEST PUSH1 0x2 DUP3 LT PUSH2 0x6FD JUMPI POP POP POP PUSH2 0x6C4 DUP2 PUSH2 0x100 JUMP JUMPDEST DUP2 MSTORE PUSH1 0x40 MLOAD SWAP1 PUSH1 0xC PUSH1 0x0 DUP4 JUMPDEST PUSH1 0x2 DUP3 LT PUSH2 0x6E7 JUMPI POP POP POP PUSH1 0x20 SWAP1 PUSH2 0x668 DUP4 PUSH2 0x100 JUMP JUMPDEST PUSH1 0x1 PUSH1 0x20 DUP2 SWAP3 DUP6 SLOAD DUP2 MSTORE ADD SWAP4 ADD SWAP2 ADD SWAP1 SWAP2 PUSH2 0x6D0 JUMP JUMPDEST PUSH1 0x1 PUSH1 0x20 DUP2 SWAP3 DUP6 SLOAD DUP2 MSTORE ADD SWAP4 ADD SWAP2 ADD SWAP1 SWAP2 PUSH2 0x6B0 JUMP JUMPDEST PUSH1 0x40 MLOAD SWAP1 PUSH2 0x720 DUP3 PUSH2 0x100 JUMP JUMPDEST PUSH1 0x40 MLOAD PUSH1 0x2 SWAP1 DUP4 SWAP1 DUP3 PUSH1 0x0 DUP3 JUMPDEST DUP6 DUP3 LT PUSH2 0x779 JUMPI POP POP POP PUSH2 0x740 DUP2 PUSH2 0x100 JUMP JUMPDEST DUP2 MSTORE PUSH1 0x40 MLOAD SWAP2 PUSH1 0x0 PUSH1 0x4 DUP5 JUMPDEST DUP4 DUP4 LT PUSH2 0x763 JUMPI POP POP POP POP PUSH1 0x20 SWAP1 PUSH2 0x668 DUP4 PUSH2 0x100 JUMP JUMPDEST PUSH1 0x1 PUSH1 0x20 DUP2 SWAP3 DUP5 SLOAD DUP2 MSTORE ADD SWAP3 ADD SWAP3 ADD SWAP2 SWAP1 PUSH2 0x74C JUMP JUMPDEST PUSH1 0x1 PUSH1 0x20 DUP2 SWAP3 DUP6 SLOAD DUP2 MSTORE ADD SWAP4 ADD SWAP2 ADD SWAP1 SWAP2 PUSH2 0x72D JUMP JUMPDEST SWAP1 PUSH2 0x7A6 PUSH2 0x79D DUP3 MLOAD PUSH2 0x520 JUMP JUMPDEST PUSH1 0xE SLOAD EQ PUSH2 0x52E JUMP JUMPDEST PUSH2 0x7B7 PUSH2 0x7B3 DUP4 MLOAD PUSH2 0x8F9 JUMP JUMPDEST ISZERO SWAP1 JUMP JUMPDEST PUSH2 0x8F2 JUMPI PUSH1 0x40 DUP3 ADD SWAP3 PUSH2 0x7CD PUSH2 0x7B3 DUP6 MLOAD PUSH2 0x8F9 JUMP JUMPDEST PUSH2 0x8E9 JUMPI PUSH1 0x20 DUP4 ADD PUSH2 0x7E2 PUSH2 0x7B3 DUP3 MLOAD PUSH2 0x93C JUMP JUMPDEST PUSH2 0x8BE JUMPI DUP3 MLOAD PUSH2 0x895 JUMPI JUMPDEST PUSH2 0x7FE PUSH2 0x7F8 PUSH2 0x571 JUMP JUMPDEST POP PUSH2 0x5FB JUMP JUMPDEST SWAP5 PUSH1 0x0 SWAP6 JUMPDEST DUP5 MLOAD DUP8 LT ISZERO PUSH2 0x853 JUMPI PUSH2 0x847 PUSH2 0x84D SWAP2 PUSH2 0x841 PUSH2 0x827 PUSH2 0x822 DUP12 PUSH2 0x520 JUMP JUMPDEST PUSH2 0x5A5 JUMP JUMPDEST POP PUSH2 0x83C PUSH2 0x835 DUP13 DUP12 PUSH2 0x3E8 JUMP JUMPDEST MLOAD SWAP2 PUSH2 0x5FB JUMP JUMPDEST PUSH2 0xCC8 JUMP JUMPDEST SWAP1 PUSH2 0xA91 JUMP JUMPDEST SWAP7 PUSH2 0x3C2 JUMP JUMPDEST SWAP6 PUSH2 0x803 JUMP JUMPDEST SWAP2 SWAP4 POP SWAP2 SWAP5 POP PUSH2 0x866 PUSH2 0x892 SWAP5 MLOAD PUSH2 0xA1A JUMP JUMPDEST SWAP3 MLOAD SWAP2 MLOAD PUSH2 0x872 PUSH2 0x619 JUMP JUMPDEST PUSH2 0x87A PUSH2 0x698 JUMP JUMPDEST SWAP3 PUSH2 0x883 PUSH2 0x5DF JUMP JUMPDEST SWAP5 PUSH2 0x88C PUSH2 0x713 JUMP JUMPDEST SWAP7 PUSH2 0xD98 JUMP JUMPDEST SWAP1 JUMP JUMPDEST PUSH2 0x89E DUP4 PUSH2 0x3D6 JUMP JUMPDEST MLOAD ISZERO DUP1 ISZERO PUSH2 0x8C8 JUMPI JUMPDEST PUSH2 0x8BE JUMPI PUSH2 0x3E8 PUSH2 0x8B7 DUP5 PUSH2 0x3D6 JUMP JUMPDEST MLOAD GT PUSH2 0x7ED JUMPI JUMPDEST POP SWAP3 POP POP POP PUSH1 0x0 SWAP1 JUMP JUMPDEST POP PUSH1 0x0 DUP1 MLOAD PUSH1 0x20 PUSH2 0xEC1 DUP4 CODECOPY DUP2 MLOAD SWAP2 MSTORE PUSH2 0x8E1 DUP5 PUSH2 0x3D6 JUMP JUMPDEST MLOAD LT ISZERO PUSH2 0x8A7 JUMP JUMPDEST SWAP3 POP POP POP PUSH1 0x0 SWAP1 JUMP JUMPDEST POP POP PUSH1 0x0 SWAP1 JUMP JUMPDEST DUP1 MLOAD SWAP1 DUP2 ISZERO DUP1 PUSH2 0x930 JUMPI JUMPDEST PUSH2 0x8F2 JUMPI PUSH1 0x20 PUSH1 0x3 SWAP2 ADD MLOAD SWAP2 PUSH1 0x0 DUP1 MLOAD PUSH1 0x20 PUSH2 0xEC1 DUP4 CODECOPY DUP2 MLOAD SWAP2 MSTORE SWAP2 DUP3 DUP3 DUP2 DUP2 DUP2 SWAP6 MULMOD MULMOD ADDMOD SWAP2 DUP1 MULMOD EQ SWAP1 JUMP JUMPDEST POP PUSH1 0x20 DUP2 ADD MLOAD ISZERO PUSH2 0x904 JUMP JUMPDEST DUP1 MLOAD SWAP1 DUP2 MLOAD SWAP1 DUP2 ISZERO DUP1 PUSH2 0x9F2 JUMPI JUMPDEST DUP1 PUSH2 0x9E5 JUMPI JUMPDEST DUP1 PUSH2 0x9D6 JUMPI JUMPDEST PUSH2 0x9CE JUMPI PUSH1 0x0 DUP1 MLOAD PUSH1 0x20 PUSH2 0xEC1 DUP4 CODECOPY DUP2 MLOAD SWAP2 MSTORE DUP1 SWAP3 LT SWAP3 DUP4 ISZERO SWAP4 PUSH2 0x9BF JUMPI JUMPDEST POP DUP3 ISZERO PUSH2 0x9AE JUMPI JUMPDEST DUP3 ISZERO PUSH2 0x994 JUMPI JUMPDEST POP POP PUSH2 0x98F JUMPI PUSH1 0x1 SWAP1 JUMP JUMPDEST PUSH1 0x0 SWAP1 JUMP JUMPDEST PUSH2 0x9A4 SWAP2 SWAP3 POP PUSH1 0x20 ADD MLOAD PUSH1 0x20 ADD SWAP1 JUMP JUMPDEST MLOAD LT ISZERO CODESIZE DUP1 PUSH2 0x984 JUMP JUMPDEST SWAP2 POP DUP1 PUSH1 0x20 DUP4 ADD MLOAD MLOAD LT ISZERO SWAP2 PUSH2 0x97D JUMP JUMPDEST PUSH1 0x20 ADD MLOAD DUP3 GT ISZERO SWAP3 POP CODESIZE PUSH2 0x975 JUMP JUMPDEST POP POP POP PUSH1 0x0 SWAP1 JUMP JUMPDEST POP PUSH1 0x20 DUP2 DUP2 ADD MLOAD ADD MLOAD ISZERO PUSH2 0x956 JUMP JUMPDEST POP PUSH1 0x20 DUP2 ADD MLOAD MLOAD ISZERO PUSH2 0x950 JUMP JUMPDEST POP PUSH1 0x20 DUP4 ADD MLOAD ISZERO PUSH2 0x94A JUMP JUMPDEST SWAP1 PUSH1 0x0 DUP1 MLOAD PUSH1 0x20 PUSH2 0xEC1 DUP4 CODECOPY DUP2 MLOAD SWAP2 MSTORE SWAP2 DUP3 SUB SWAP2 DUP3 GT PUSH2 0x3D1 JUMPI JUMP JUMPDEST PUSH2 0xA22 PUSH2 0x295 JUMP JUMPDEST POP DUP1 MLOAD ISZERO DUP1 PUSH2 0xA85 JUMPI JUMPDEST PUSH2 0xA6A JUMPI PUSH1 0x20 DUP2 MLOAD SWAP2 PUSH1 0x0 DUP1 MLOAD PUSH1 0x20 PUSH2 0xEC1 DUP4 CODECOPY DUP2 MLOAD SWAP2 MSTORE SWAP2 DUP3 SWAP2 ADD MLOAD MOD DUP2 SUB SWAP1 DUP2 GT PUSH2 0x3D1 JUMPI PUSH1 0x40 MLOAD SWAP2 PUSH2 0xA60 DUP4 PUSH2 0x100 JUMP JUMPDEST DUP3 MSTORE PUSH1 0x20 DUP3 ADD MSTORE SWAP1 JUMP JUMPDEST POP PUSH1 0x40 MLOAD PUSH2 0xA77 DUP2 PUSH2 0x100 JUMP JUMPDEST PUSH1 0x0 DUP2 MSTORE PUSH1 0x0 PUSH1 0x20 DUP3 ADD MSTORE SWAP1 JUMP JUMPDEST POP PUSH1 0x20 DUP2 ADD MLOAD ISZERO PUSH2 0xA2C JUMP JUMPDEST SWAP1 PUSH2 0xA9A PUSH2 0x295 JUMP JUMPDEST POP DUP2 MLOAD DUP1 ISZERO DUP1 PUSH2 0xB88 JUMPI JUMPDEST PUSH2 0xB82 JUMPI DUP2 MLOAD SWAP1 DUP2 ISZERO DUP1 PUSH2 0xB76 JUMPI JUMPDEST PUSH2 0xB70 JUMPI EQ PUSH2 0xB50 JUMPI DUP1 MLOAD SWAP1 PUSH2 0xB3B PUSH1 0x0 DUP1 MLOAD PUSH1 0x20 PUSH2 0xEC1 DUP4 CODECOPY DUP2 MLOAD SWAP2 MSTORE DUP1 DUP1 SWAP5 PUSH2 0xADF DUP8 MLOAD PUSH2 0x9FE JUMP JUMPDEST SWAP1 ADDMOD SWAP3 DUP2 DUP1 DUP1 PUSH1 0x20 DUP5 ADD MLOAD SWAP7 PUSH2 0xB06 DUP3 PUSH1 0x20 DUP13 ADD SWAP10 PUSH2 0xAFE DUP12 MLOAD PUSH2 0x9FE JUMP JUMPDEST SWAP1 ADDMOD SWAP2 PUSH2 0xC1A JUMP JUMPDEST SWAP1 MULMOD SWAP3 PUSH2 0xB23 DUP3 PUSH2 0xB17 DUP12 MLOAD PUSH2 0x9FE JUMP JUMPDEST DUP2 DUP8 DUP1 MULMOD ADDMOD SWAP2 MLOAD PUSH2 0x9FE JUMP JUMPDEST SWAP1 ADDMOD SWAP7 MLOAD PUSH2 0xB30 DUP9 PUSH2 0x9FE JUMP JUMPDEST SWAP1 ADDMOD SWAP1 MULMOD SWAP2 MLOAD PUSH2 0x9FE JUMP JUMPDEST SWAP1 ADDMOD PUSH2 0xB45 PUSH2 0x143 JUMP JUMPDEST SWAP2 DUP3 MSTORE PUSH1 0x20 DUP3 ADD MSTORE SWAP1 JUMP JUMPDEST PUSH1 0x20 DUP3 DUP2 ADD MLOAD SWAP2 ADD MLOAD SUB PUSH2 0xB67 JUMPI PUSH2 0x892 SWAP1 PUSH2 0xB94 JUMP JUMPDEST POP PUSH2 0xA77 PUSH2 0x143 JUMP JUMPDEST POP POP POP SWAP1 JUMP JUMPDEST POP PUSH1 0x20 DUP4 ADD MLOAD ISZERO PUSH2 0xAB4 JUMP JUMPDEST POP SWAP1 POP SWAP1 JUMP JUMPDEST POP PUSH1 0x20 DUP4 ADD MLOAD ISZERO PUSH2 0xAA5 JUMP JUMPDEST PUSH2 0xB9C PUSH2 0x295 JUMP JUMPDEST POP DUP1 MLOAD DUP1 ISZERO DUP1 PUSH2 0xC0E JUMPI JUMPDEST PUSH2 0xC0A JUMPI PUSH1 0x20 DUP3 ADD PUSH2 0xBFB PUSH1 0x0 DUP1 MLOAD PUSH1 0x20 PUSH2 0xEC1 DUP4 CODECOPY DUP2 MLOAD SWAP2 MSTORE DUP1 DUP1 SWAP5 DUP2 DUP1 PUSH2 0xBD4 DUP2 DUP9 MLOAD PUSH1 0x2 MULMOD PUSH2 0xC1A JUMP JUMPDEST SWAP3 DUP1 MULMOD PUSH1 0x3 MULMOD MULMOD DUP2 DUP1 PUSH2 0xBEB DUP2 DUP10 MLOAD PUSH1 0x2 MULMOD PUSH2 0x9FE JUMP JUMPDEST DUP2 DUP5 DUP1 MULMOD ADDMOD SWAP7 MLOAD PUSH2 0xB30 DUP9 PUSH2 0x9FE JUMP JUMPDEST SWAP1 ADDMOD PUSH1 0x40 MLOAD SWAP2 PUSH2 0xA60 DUP4 PUSH2 0x100 JUMP JUMPDEST POP SWAP1 JUMP JUMPDEST POP PUSH1 0x20 DUP3 ADD MLOAD ISZERO PUSH2 0xBA7 JUMP JUMPDEST PUSH1 0x0 DUP1 MLOAD PUSH1 0x20 PUSH2 0xEC1 DUP4 CODECOPY DUP2 MLOAD SWAP2 MSTORE DUP1 DUP3 LT ISZERO PUSH2 0xC93 JUMPI SWAP1 PUSH32 0x30644E72E131A029B85045B68181585D97816A916871CA8D3C208C16D87CFD45 SWAP2 DUP3 PUSH1 0x1 DUP3 DUP2 SWAP5 MOD SWAP2 JUMPDEST PUSH2 0xC69 JUMPI POP POP POP SWAP1 POP SWAP1 JUMP JUMPDEST DUP1 DUP1 DUP7 AND EQ PUSH2 0xC87 JUMPI JUMPDEST DUP3 SWAP4 SWAP5 DUP2 SHR SWAP3 DUP3 DUP5 SWAP4 MULMOD SWAP3 SWAP5 SWAP4 SWAP3 SWAP2 PUSH2 0xC5D JUMP JUMPDEST DUP3 DUP3 DUP2 SWAP6 MULMOD SWAP4 POP PUSH2 0xC73 JUMP JUMPDEST PUSH1 0x40 MLOAD PUSH3 0x461BCD PUSH1 0xE5 SHL DUP2 MSTORE PUSH1 0x20 PUSH1 0x4 DUP3 ADD MSTORE PUSH1 0xD PUSH1 0x24 DUP3 ADD MSTORE PUSH13 0x125B9D985B1A59081A5B9C1D5D PUSH1 0x9A SHL PUSH1 0x44 DUP3 ADD MSTORE PUSH1 0x64 SWAP1 REVERT JUMPDEST SWAP1 PUSH2 0xCD1 PUSH2 0x295 JUMP JUMPDEST POP DUP1 ISZERO PUSH2 0xD3E JUMPI PUSH1 0x1 DUP1 DUP3 EQ PUSH2 0xD39 JUMPI DUP2 PUSH1 0x40 MLOAD PUSH2 0xCEE DUP2 PUSH2 0x100 JUMP JUMPDEST PUSH1 0x0 DUP2 MSTORE PUSH1 0x0 PUSH1 0x20 DUP3 ADD MSTORE SWAP4 SWAP1 JUMPDEST PUSH2 0xD06 JUMPI POP POP POP SWAP1 JUMP JUMPDEST DUP2 DUP1 DUP5 AND EQ PUSH2 0xD23 JUMPI JUMPDEST PUSH2 0xD19 SWAP1 PUSH2 0xB94 JUMP JUMPDEST SWAP2 DUP2 SHR SWAP2 DUP3 PUSH2 0xCFC JUMP JUMPDEST SWAP3 PUSH2 0xD31 DUP5 PUSH2 0xD19 SWAP3 PUSH2 0xA91 JUMP JUMPDEST SWAP4 SWAP1 POP PUSH2 0xD10 JUMP JUMPDEST POP POP SWAP1 JUMP JUMPDEST POP POP PUSH1 0x40 MLOAD PUSH2 0xA77 DUP2 PUSH2 0x100 JUMP JUMPDEST ISZERO PUSH2 0xD53 JUMPI JUMP JUMPDEST PUSH1 0x40 MLOAD PUSH3 0x461BCD PUSH1 0xE5 SHL DUP2 MSTORE PUSH1 0x20 PUSH1 0x4 DUP3 ADD MSTORE PUSH1 0x1B PUSH1 0x24 DUP3 ADD MSTORE PUSH32 0x50616972696E6720766572696669636174696F6E206661696C65640000000000 PUSH1 0x44 DUP3 ADD MSTORE PUSH1 0x64 SWAP1 REVERT JUMPDEST PUSH2 0x300 SWAP7 PUSH1 0xA0 PUSH2 0xEBB SWAP8 PUSH1 0x1 SWAP11 SWAP5 SWAP8 SWAP7 SWAP8 PUSH2 0xDB1 PUSH2 0x2AE JUMP JUMPDEST SWAP8 DUP6 DUP10 SWAP7 MLOAD DUP8 MSTORE PUSH1 0x20 SWAP11 DUP12 DUP1 SWAP11 DUP2 SWAP10 DUP3 SWAP9 DUP4 DUP1 SWAP9 DUP2 DUP1 SWAP9 ADD MLOAD DUP3 DUP6 ADD MSTORE PUSH2 0xDD9 DUP2 MLOAD PUSH1 0x20 ADD SWAP1 JUMP JUMPDEST MLOAD PUSH1 0x40 DUP6 ADD MSTORE DUP1 MLOAD MLOAD PUSH1 0x60 DUP6 ADD MSTORE ADD DUP1 MLOAD PUSH1 0x20 ADD MLOAD PUSH1 0x80 DUP5 ADD MSTORE MLOAD MLOAD SWAP2 ADD MSTORE DUP1 MLOAD PUSH1 0xC0 DUP15 ADD MSTORE ADD MLOAD PUSH1 0xE0 DUP13 ADD MSTORE DUP1 MLOAD PUSH1 0x20 ADD MLOAD PUSH2 0x100 DUP13 ADD MSTORE DUP1 MLOAD MLOAD PUSH2 0x120 DUP13 ADD MSTORE ADD DUP1 MLOAD PUSH1 0x20 ADD MLOAD PUSH2 0x140 DUP12 ADD MSTORE MLOAD MLOAD PUSH2 0x160 DUP11 ADD MSTORE DUP1 MLOAD PUSH2 0x180 DUP11 ADD MSTORE ADD MLOAD PUSH2 0x1A0 DUP9 ADD MSTORE DUP1 MLOAD PUSH1 0x20 ADD MLOAD PUSH2 0x1C0 DUP9 ADD MSTORE DUP1 MLOAD MLOAD PUSH2 0x1E0 DUP9 ADD MSTORE ADD DUP1 MLOAD PUSH1 0x20 ADD MLOAD PUSH2 0x200 DUP8 ADD MSTORE MLOAD MLOAD PUSH2 0x220 DUP7 ADD MSTORE DUP1 MLOAD PUSH2 0x240 DUP7 ADD MSTORE ADD MLOAD PUSH2 0x260 DUP5 ADD MSTORE DUP1 MLOAD PUSH1 0x20 ADD MLOAD PUSH2 0x280 DUP5 ADD MSTORE DUP1 MLOAD MLOAD PUSH2 0x2A0 DUP5 ADD MSTORE ADD DUP1 MLOAD PUSH1 0x20 ADD MLOAD PUSH2 0x2C0 DUP4 ADD MSTORE MLOAD MLOAD PUSH2 0x2E0 DUP3 ADD MSTORE PUSH2 0xEAC PUSH2 0x2D3 JUMP JUMPDEST SWAP4 DUP5 SWAP2 PUSH1 0x8 PUSH3 0x493E0 STATICCALL PUSH2 0xD4C JUMP JUMPDEST MLOAD EQ SWAP1 JUMP INVALID ADDRESS PUSH5 0x4E72E131A0 0x29 0xB8 POP GASLIMIT 0xB6 DUP2 DUP2 PC 0x5D SWAP8 DUP2 PUSH11 0x916871CA8D3C208C16D87C REVERT SELFBALANCE LOG2 PUSH5 0x6970667358 0x22 SLT KECCAK256 NUMBER 0xF7 COINBASE CALLCODE PUSH9 0x285065EC772EBAE68C 0x22 MULMOD 0xBE 0xA8 CALLVALUE 0xD0 0xCB PUSH2 0x195D SHR 0xDD SWAP5 PUSH13 0x1B122B1E64736F6C6343000814 STOP CALLER "},"methodIdentifiers":{"verifyProof(uint256[2],uint256[2][2],uint256[2],uint256[])":"c32e370e"}}}}}