{
  "_format": "hh-sol-artifact-1",
  "contractName": "PoEPVerifier",
  "sourceName": "contracts/PoEPVerifier.sol",
  "abi": [
    {
      "inputs": [],
      "stateMutability": "nonpayable",
      "type": "constructor"
    },
    {
      "anonymous": false,
      "inputs": [
        {
          "indexed": false,
          "internalType": "uint256",
          "name": "nullifier",
          "type": "uint256"
        },
        {
          "indexed": false,
          "internalType": "bool",
          "name": "result",
          "type": "bool"
        }
      ],
      "name": "ProofVerified",
      "type": "event"
    },
    {
      "anonymous": false,
      "inputs": [],
      "name": "VerifyingKeySet",
      "type": "event"
    },
    {
      "inputs": [
        {
          "internalType": "uint256[2]",
          "name": "a",
          "type": "uint256[2]"
        },
        {
          "internalType": "uint256[2][2]",
          "name": "b",
          "type": "uint256[2][2]"
        },
        {
          "internalType": "uint256[2]",
          "name": "c",
          "type": "uint256[2]"
        },
        {
          "internalType": "uint256[]",
          "name": "input",
          "type": "uint256[]"
        }
      ],
      "name": "verifyProof",
      "outputs": [
        {
          "internalType": "bool",
          "name": "",
          "type": "bool"
        }
      ],
      "stateMutability": "nonpayable",
      "type": "function"
    }
  ],
  "bytecode": "0x608060405234620003cf5762000014620003d4565b7f2d4d9aa7e302d9df41749d5507949d05dbea33fbb16c643b22f599a2be6df2e28082527f14bedd503c37ceb061d8ec60209fe345ce89830a19230301f076caff004d192691826020809201526000918255600192835562000075620003d4565b7f0e187847ad4c798374d0d6732bf501847dd68bc0e071241e0213bc7fc13db7ab81527f0967032fcbf776d1afc985f88877f182d38480a653f2decaa9794cbc3bf3060c82820152620000c7620003d4565b907f1739c1b1a457a8c7313123d24d2f9192f896b7c63eea05a9d57f06547ad0cec882527f304cfbd1e08a704a99f5e847d93f8c3caafddec46b7a0d379da69a4d112346a78383015281836200011c620003d4565b838152015291835b6002938482101562000143579081818489945192019601550162000124565b8583888681845b60028110620003bb5750505062000160620003d4565b7f1800deef121f1e76426a00665e5c4479674322d4f75edadd46debd5cd992f6ed8082527f198e9393920d483a7260bfb731fb5d25f1aa493335a9e71297e485b7aef312c2908185840152620001b5620003d4565b907f12c85ea5db8c6deb4aab71808dcb408fe3d1e7690c43d37b4ce6cc0166fa7daa918281527f090689d0585ff075ec9e99ad690c3395bc4b313370b38ef355acdadcd122975b94858883015281886200020e620003d4565b838152015286895b60028110620003a75750505085885b6002811062000393575050506200023b620003d4565b928352858301526200024c620003d4565b9283528483015281846200025f620003d4565b838152015282855b600281106200037f57505050835b600281106200036c57846200033885620002e062000292620003d4565b7f1ca165d49504f3b784a6f30c8c31570bad438b521054b9094c2a2098e8bfe98e81527f2a3726cfbc52f6aba95f28df47a5db1c4622a71b122faf1b652e4e6b34510501838201526200040a565b7f20bd15d97cf05fe563ece347fe1ae061df7d2c68117c1d552ededb105450c3486200030b620003d4565b917f05911abb73b40f8ebe7bcb5420389f58535e3c4bdf89b3ec0da46e5efff8dc0383528201526200040a565b7fea9c7b0d82bf5da5b86060aaf8e5d1e8efa40fa4899ae76094bdbe4890a7fe2a6040519180a1610f169081620004648239f35b8151600c82015590830190820162000275565b85835193019281600a015501839062000267565b888351930192816008015501869062000225565b898351930192816006015501879062000216565b84835193019281600401550182906200014a565b600080fd5b60408051919082016001600160401b03811183821017620003f457604052565b634e487b7160e01b600052604160045260246000fd5b600e5468010000000000000000811015620003f4576001810180600e558110156200044d576020600191600e6000528160002090831b0192805184550151910155565b634e487b7160e01b600052603260045260246000fdfe604060808152600436101561001357600080fd5b600090813560e01c63c32e370e1461002a57600080fd5b346100e6576101203660031901126100e65761004536610152565b9136606312156100c557815161005a81610100565b60c4813682116100e257846044915b8383106100c8575050505061007d36610198565b91610104359067ffffffffffffffff82116100c55750916100c194916100aa6100b0943690600401610237565b926103fc565b905190151581529081906020820190565b0390f35b80fd5b6020906100d536856101da565b8152019101908590610069565b8380fd5b5080fd5b634e487b7160e01b600052604160045260246000fd5b6040810190811067ffffffffffffffff82111761011c57604052565b6100ea565b90601f8019910116810190811067ffffffffffffffff82111761011c57604052565b6040519061015082610100565b565b8060231215610193576040519061016882610100565b816044918211610193576004905b8282106101835750505090565b8135815260209182019101610176565b600080fd5b8060e3121561019357604051906101ae82610100565b816101049182116101935760c4905b8282106101ca5750505090565b81358152602091820191016101bd565b9080601f8301121561019357604051916101f383610100565b82906040810192831161019357905b82821061020f5750505090565b8135815260209182019101610202565b67ffffffffffffffff811161011c5760051b60200190565b81601f820112156101935780359161024e8361021f565b9261025c6040519485610121565b808452602092838086019260051b820101928311610193578301905b828210610286575050505090565b81358152908301908301610278565b604051906102a282610100565b60006020838281520152565b6040519061030080830183811067ffffffffffffffff82111761011c57604052368337565b604051906020820182811067ffffffffffffffff82111761011c576040526020368337565b60409081516060810181811067ffffffffffffffff82111761011c5783528092610320610295565b8252805161032d81610100565b815161033881610100565b823682378152815161034981610100565b823682376020820152602083015261035f610295565b910152565b634e487b7160e01b600052603260045260246000fd5b906103848261021f565b6103916040519182610121565b82815280926103a2601f199161021f565b0190602036910137565b634e487b7160e01b600052601160045260246000fd5b60001981146103d15760010190565b6103ac565b8051156103e35760200190565b610364565b80518210156103e35760209160051b010190565b93919092936104096102f8565b93815160208093015161041a610143565b91825283820152855261042b610143565b90805151825261043c815160200190565b518383015261045b8361044d610143565b920180515183525160200190565b5183820152610468610143565b918252828201528185015280825192015190610482610143565b9283528201526040830152610497835161037a565b9060005b84518110156104c857806104b26104c392876103e8565b516104bd82866103e8565b526103c2565b61049b565b509291906104d59161078f565b908181516104e257505090565b61050c7f3be2725592ab0e6a22480e6578f02741d024014aed13ba676461b18208c66e13926103d6565b51604080519182529115156020820152a190565b90600182018092116103d157565b1561053557565b60405162461bcd60e51b8152602060048201526014602482015273092dcecc2d8d2c840d2dce0eae840d8cadccee8d60631b6044820152606490fd5b600e54156103e357600e6000527fbb7b4a454dc3493923482f07822329ed19e8244eff582cc204f8554c3620c3fd90600090565b600e548110156103e357600e60005260011b7fbb7b4a454dc3493923482f07822329ed19e8244eff582cc204f8554c3620c3fd0190600090565b604051906105ec82610100565b60005482526001546020830152565b9060405161060881610100565b602060018294805484520154910152565b6040519061062682610100565b604051829060066000825b600282106106825750505061064581610100565b81526040519060086000835b6002821061066c5750505060209061066883610100565b0152565b6001602081928554815201930191019091610651565b6001602081928554815201930191019091610631565b604051906106a582610100565b6040518290600a6000825b600282106106fd575050506106c481610100565b815260405190600c6000835b600282106106e75750505060209061066883610100565b60016020819285548152019301910190916106d0565b60016020819285548152019301910190916106b0565b6040519061072082610100565b6040516002908390826000825b8582106107795750505061074081610100565b81526040519160006004845b838310610763575050505060209061066883610100565b600160208192845481520192019201919061074c565b600160208192855481520193019101909161072d565b906107a661079d8251610520565b600e541461052e565b6107b76107b383516108f9565b1590565b6108f25760408201926107cd6107b385516108f9565b6108e957602083016107e26107b3825161093c565b6108be578251610895575b6107fe6107f8610571565b506105fb565b946000955b84518710156108535761084761084d916108416108276108228b610520565b6105a5565b5061083c6108358c8b6103e8565b51916105fb565b610cc8565b90610a91565b966103c2565b95610803565b9193509194506108666108929451610a1a565b92519151610872610619565b61087a610698565b926108836105df565b9461088c610713565b96610d98565b90565b61089e836103d6565b511580156108c8575b6108be576103e86108b7846103d6565b51116107ed575b5092505050600090565b50600080516020610ec18339815191526108e1846103d6565b5110156108a7565b92505050600090565b5050600090565b805190811580610930575b6108f2576020600391015191600080516020610ec1833981519152918282818181950909089180091490565b50602081015115610904565b8051908151908115806109f2575b806109e5575b806109d6575b6109ce57600080516020610ec1833981519152809210928315936109bf575b5082156109ae575b8215610994575b505061098f57600190565b600090565b6109a49192506020015160200190565b5110153880610984565b91508060208301515110159161097d565b60200151821115925038610975565b505050600090565b50602081810151015115610956565b5060208101515115610950565b5060208301511561094a565b90600080516020610ec18339815191529182039182116103d157565b610a22610295565b5080511580610a85575b610a6a576020815191600080516020610ec183398151915291829101510681039081116103d15760405191610a6083610100565b8252602082015290565b50604051610a7781610100565b600081526000602082015290565b50602081015115610a2c565b90610a9a610295565b508151801580610b88575b610b8257815190811580610b76575b610b705714610b5057805190610b3b600080516020610ec1833981519152808094610adf87516109fe565b900892818080602084015196610b068260208c0199610afe8b516109fe565b900891610c1a565b900992610b2382610b178b516109fe565b818780090891516109fe565b90089651610b30886109fe565b9008900991516109fe565b9008610b45610143565b918252602082015290565b60208281015191015103610b675761089290610b94565b50610a77610143565b50505090565b50602083015115610ab4565b50905090565b50602083015115610aa5565b610b9c610295565b508051801580610c0e575b610c0a5760208201610bfb600080516020610ec18339815191528080948180610bd4818851600209610c1a565b928009600309098180610beb8189516002096109fe565b81848009089651610b30886109fe565b900860405191610a6083610100565b5090565b50602082015115610ba7565b600080516020610ec183398151915280821015610c9357907f30644e72e131a029b85045b68181585d97816a916871ca8d3c208c16d87cfd459182600182819406915b610c6957505050905090565b8080861614610c87575b829394811c92828493099294939291610c5d565b82828195099350610c73565b60405162461bcd60e51b815260206004820152600d60248201526c125b9d985b1a59081a5b9c1d5d609a1b6044820152606490fd5b90610cd1610295565b508015610d3e576001808214610d395781604051610cee81610100565b600081526000602082015293905b610d065750505090565b8180841614610d23575b610d1990610b94565b91811c9182610cfc565b92610d3184610d1992610a91565b939050610d10565b505090565b5050604051610a7781610100565b15610d5357565b60405162461bcd60e51b815260206004820152601b60248201527f50616972696e6720766572696669636174696f6e206661696c656400000000006044820152606490fd5b6103009660a0610ebb9760019a94979697610db16102ae565b9785899651875260209a8b809a81998298838098818098015182850152610dd9815160200190565b51604085015280515160608501520180516020015160808401525151910152805160c08e0152015160e08c01528051602001516101008c01528051516101208c0152018051602001516101408b015251516101608a015280516101808a015201516101a08801528051602001516101c08801528051516101e0880152018051602001516102008701525151610220860152805161024086015201516102608401528051602001516102808401528051516102a0840152018051602001516102c083015251516102e0820152610eac6102d3565b9384916008620493e0fa610d4c565b51149056fe30644e72e131a029b85045b68181585d97816a916871ca8d3c208c16d87cfd47a264697066735822122043f741f268285065ec772ebae68c2209bea834d0cb61195d1cdd946c1b122b1e64736f6c63430008140033",
  "linkReferences": {},
  "deployedLinkReferences": {}
}